:04000000F2EF02F029
:08000800046ED8CF05F0E0CF33
:1000100006F00001E9CF0CF0EACF07F0E1CF08F0DD
:10002000E2CF09F0D9CF0AF0DACF0BF0F3CF12F01C
:10003000F4CF13F0FACF14F0F5CF15F0F6CF16F099
:10004000F7CF17F000C00EF001C00FF002C010F0A3
:1000500003C011F0F2AA30EF00F0F2B461EF00F04B
:100060000EC000F00FC001F010C002F011C003F08C
:100070000CC0E9FF07C0EAFF078E08C0E1FF09C016
:10008000E2FF0AC0D9FF0BC0DAFF12C0F3FF13C0B2
:10009000F4FF14C0FAFF15C0F5FF16C0F6FF17C035
:1000A000F7FF045006C0E0FF05C0D8FF1000F76A54
:1000B000BE0FF66E000EF7220900F5501200280C54
:1000C00001061EC0D7FF1DC0D6FF1F50010802E267
:1000D0001F0605D01F5203E0939E8A9E1F6A20527E
:1000E00002E0200606D0939E8A8E1CC01FF0640E8C
:1000F000206EF29430EF00F050574D3A20256420E6
:10010000487A2C20256425250A004379636C653ADA
:100110002025640A0000EA6A280EE96EEF500EE01E
:10012000050E016E006A002EFED7012EFBD72E0EA3
:10013000006E002EFED700D0EF2EF2D7000C30B0AC
:1001400002D0899801D08988929830B202D0899AD9
:1001500001D0898A929A30B402D08A9601D08A86D8
:10016000939630B602D08A9801D08A88939800007E
:100170008A849394020E006E002EFED700008A94AB
:100180009394000C316A9288000E80B8010E3112EF
:10019000928A000E80BA010E006ED8900036005090
:1001A00031129386000E81B6010E006E00360036C5
:1001B000FC0E0016005031129388000E81B8010E1B
:1001C000006E003600360036F80E00160050311270
:1001D00031C001F0000C9288928A938693888A82BB
:1001E000939200008A8493940000CCDF01C030F029
:1001F0008A94939400008A84939400D000D0C2DF44
:1002000001C02FF08A9493949298929A939693981F
:100210003038006EF00E001600502F10016E17EFF0
:1002200001F09394939093928A909390D4D701C0C5
:100230002FF001BEFBD72D5202E18A9001D08A80B7
:10024000939000008A92939200008A9493942E389F
:100250002F6E0F0E2F162FC030F071DF2E500F0BA8
:100260002F6E306E6CDF000C9298929A9396939852
:100270009394939093928A9093908A9293928A9473
:1002800093940F0E286E47DF010E216E2150030854
:100290000AE3030E306E53DF306A51DF050E286E1D
:1002A0003ADF212AF3D7020E306E49DF306A47DF8A
:1002B000050E286E30DF216A2150030809E3036A26
:1002C0002150F5DE226E2D6A2E6EABDF212AF4D787
:1002D000196A1A6AFEEF02F02A2C01D003D0400EF0
:1002E0002B6E01D02B6A010E295C2B262B50800926
:1002F0002C6E2D6A2E6E95DF010E295C196E010E93
:100300002A5C1A6E000C2750070A09E00B0A0CE061
:10031000010A14E0070A1BE0020A2CE030D0010EAB
:10032000296E2A6ED9DF35D02D6A010E2E6E79DF47
:10033000020E286EF0DE196A1A6A2BD0010E1A24FA
:10034000286E010E296E28C02AF0C6DF22D019506F
:10035000192A130806E3010E2D6E200E2E6E61DFA2
:10036000F6D7020E1A24286E010E296E28C02AF034
:10037000B3DF0FD02D6A100E2E6E53DF0AD0195046
:10038000130806E3010E2D6E27C02EF04ADF192A4E
:1003900000D0000CD8B203D0EA6A2A0EE96E006AD7
:1003A000016A026A036A2A6A2B6A2C6A2D6A29503A
:1003B0002810271026102CE0200E2E6ED890223602
:1003C0002336243625362A362B362C362D36295020
:1003D0002D5C08E128502C5C05E127502B5C02E1E4
:1003E00026502A5C0FE326502A5E2750D8A0273CCF
:1003F0002B5E2850D8A0283C2C5E2950D8A0293C40
:100400002D5ED88000360136023603362E2ED6D722
:100410002AC0EFFF2BC0ECFF2CC0ECFF2DC0ECFF7F
:100420001FEF02F0D892256A246A9C0E236E400EBC
:10043000226E296A286A276A21C026F0ABD7FF0EF0
:10044000D8800054226EFF0E0154236E000E025419
:10045000000E0354320E22241D6E000E23201E6E49
:1004600021C01BF006EF03F021C01CF009EF03F0E0
:100470000900F6CF22F0F7CF23F0F5CF27F043DFC6
:1004800022C0F6FF23C0F7FF212EF2D7000C285020
:10049000016A275C03E227C000F00CD0006A080E56
:1004A000296E273600362850005CD8B0006E013621
:1004B000292EF7D7000C200E22A8300E236E21C063
:1004C00000F021AE07D0001E002A00C021F02D0E42
:1004D000236E228E015021C027F0640E286ED7DFD4
:1004E00000C021F0300E0124246E21C027F00A0E36
:1004F000286ECDDF300E0024266E300E0124256ECE
:1005000023C000F022A602D022AE229422B80BD043
:1005100022AE22D022B420D000C024F022B21CD0BF
:1005200000C025F019D0300E245C16E100C024F084
:10053000200E236E22A604D02294228222AE229282
:10054000300E255C09E100C025F0200E246E22A6A5
:10055000F7D7229222AE229022A403D023C027F004
:10056000D2DE22A203D024C027F0CDDE22A003D009
:1005700025C027F0C8DE26C027F0C5DE000C010E1E
:10058000296E2A6EA9DEF80EF66E000EF76E050EC5
:10059000216E6EDF1BC021F01F0E226E8CDFFF0E5E
:1005A000F66E000EF76E050E216E62DF1CC021F0A4
:1005B0001F0E226E80DF250E276EA5DE0A0E276E27
:1005C000A2DE0A0EF66E010EF76E070E216E50DFE8
:1005D00020C021F01F0E226E6EDF0A0E276E93DE02
:1005E00019EF03F0F86AD09E078EEA6AE96AC150F3
:1005F000C00B0F09C16E070EB46E36D60C0E276EF7
:1006000082DE000E936E460E216E0CD71E0E216EFA
:100610002BD7880ED56EF28AC00EF2121EC0D7FFFD
:100620001DC0D6FF939E8A8E1CC01FF0640E206EE4
:0C063000A6D7640E286E6FDDFBD7030018
:020000040030CA
:0E0000003ACE390E008781000FC00FE00F408E
:00000001FF
;PIC18F2550
;CRC=EB9C  CREATED="12-мар-11 21:05"
