:10000000BBEF0DF06896000C046ED8CF05F0E0CF82
:1000100006F00001E9CF0CF0EACF07F0E1CF08F0DD
:10002000E2CF09F0D9CF0AF0DACF0BF0F3CF12F01C
:10003000F4CF13F0FACF14F0F5CF15F0F6CF16F099
:10004000F7CF17F000C00EF001C00FF002C010F0A3
:1000500003C011F0F2AA30EF00F0F2B4EAEF06F0BC
:10006000A0AA36EF00F0A1BA48EF06F00EC000F0EB
:100070000FC001F010C002F011C003F00CC0E9FF86
:1000800007C0EAFF078E08C0E1FF09C0E2FF0AC00F
:10009000D9FF0BC0DAFF12C0F3FF13C0F4FF14C086
:1000A000FAFF15C0F5FF16C0F6FF17C0F7FF0450A2
:1000B00006C0E0FF05C0D8FF1000F76ACA0FF66E51
:1000C000000EF7220900F5501200280C0106F76A0D
:1000D000DE0FF66E000EF7220900F5501200000246
:1000E000FFFFFFFFFFFFFFFFFFFFFFFFFFFFF76ABD
:1000F000FE0FF66E000EF7220900F55012004000C8
:1001000040000000000000000000000000000000AF
:100110000000000000000000000000000000F76A7E
:100120002E0FF66E010EF7220900F550120009029B
:10013000200001010080320904000002FFFFFF00DF
:100140000705810340000107050103400001F76A2C
:100150005E0FF66E010EF7220900F5501200010045
:10016000F76A700FF66E010EF7220900F5501200C3
:100170001201000200000040D80402D00001010278
:100180000001F76A920FF66E010EF7220900F55092
:100190001200040309040803530048004D001E0325
:1001A00052006100640069006F0042006F0061004E
:1001B000740020004300740072006C006D9269941A
:1001C00068A402D06894FCD754EF06F0400E0401F6
:1001D000016F040E036F100E026F880E006F046B28
:1001E000040E076F500E066F0001000C70A002D0C5
:1001F000EDDF7090689A5DEF06F06A6A689263EFCF
:1002000006F0AB91AABFAB81AA9FAA51100803E2E6
:10021000000E016E17D0ABA10BD0036AAA5157DFB5
:10022000FF0802E1000E01D0010E016E0BD00AD0D2
:10023000036AAA514CDFFF0802E1000E01D0010E53
:10024000016E00D0000CAA51AC03F3CF01F0F4CF43
:1002500000F0AD03F3500026AB51AC03F350002087
:10026000026E000C036AA951700FE96E0F0E032095
:10027000EA6EEF6AA9C0AAF0C4DF015222E0AB6BBC
:10028000A9C0AAF0AD6B080EAC6FDDDF01C0E9FFBD
:10029000040E0224EA6EEF6AAB6BA9C0AAF0AD6B44
:1002A000080EAC6FD0DF02C0ABF001C0AAF0040EA4
:1002B000AA27000EAB23AAC0E9FF040EAB25EA6E05
:1002C000EF6A000C010EA86FA8510F0805E3A8C043
:1002D000A9F0C8DFA82BF8D7000C9E6B9E530AE14B
:1002E000036A9E51290FE96E000E0320EA6EEF6A41
:1002F0009E2BF4D71D6A010E1E6E1C6A000C6A6AE2
:10030000686A9F0E6B6E3D0E696E6E6ADBDFE5DF1D
:10031000160E706E68A602D075DEFCD76D9856DF9B
:10032000030E246E69EF06F0698468986D826FEFA2
:1003300006F0689C75EF06F0A3C025F0000CFF0ED8
:10034000256E000CA16B285226E0A1513F0823E343
:100350001F5005E0020A08E0010A0BE00FD0036A13
:100360002750DDDEA26F0AD0036A27500ADFA26F92
:1003700005D0036A2750F4DEA26F00D0272A280692
:10038000A151A12B500FE96E040EEA6ED8B0EA2AF3
:10039000A2C0EFFFD8D7285204E1A151400801E0E4
:1003A0001C6AA1C0A3F0C8DF000C276A1F6A040101
:1003B0001351010A000105E0030A08E0010A09E0FF
:1003C0001AD0120E286E030E1F6E17D0200E286E44
:1003D00014D0020E1F6E036A04011251200FE96E41
:1003E000000E0320EA6EEFCF27F0036A27500001CA
:1003F000C8DE286E02D0A3DF0CD00401175305E13C
:100400002850165D02E216C428F0010E1C6E000191
:1004100099DF2DEF03F0A05304E1040E246E52DFA8
:10042000C9D0050E246E040EA36F900EA26F010EAC
:10043000A16FA1510F08D8A0BDD0A1C0A9F012DFB3
:10044000A46B036AA15143DEFF0859E0040EA46FB8
:10045000D890A135036A4BDE0900F5CF03F0A56FF4
:1004600003C0A6F0AB6BA1C0AAF0AD6B080EAC6FD9
:10047000EADE01C0A8F0010E0124016E000E022088
:10048000036E01C0E9FF040E0324EA6EA5C0EFFF6E
:10049000AB6BA1C0AAF0AD6B080EAC6FD4DE01C08F
:1004A000A8F0020E0124016E000E0220036E01C0AE
:1004B000E9FF040E0324EA6EA3C0ECFFED52A2C0D4
:1004C000EFFFD890A135036A12DE0900F5CF03F0E3
:1004D000A2270350A323880EA76FA6B1A781A6B3B6
:1004E000A783AB6BA1C0AAF0AD6B080EAC6FABDEFF
:1004F00001C0E9FF040E0224EA6EA7C0EFFF036A01
:10050000A151E5DDFF0840E0A483AB6BA1C0AAF0D8
:10051000AD6B080EAC6F97DE02C0A9F001C0A8F069
:10052000040EA827000EA923020EA825016E000EB6
:10053000A921036E01C0E9FF040E0324EA6EA3C0E3
:10054000ECFFED52A2C0EFFFD890A135036ACFDDDA
:100550000900F5CF03F0A2270350A323AB6BA1C082
:10056000AAF0AD6B080EAC6F6EDE02C0A9F001C040
:10057000A8F0040EA827000EA923A8C0E9FF040EC6
:10058000A925EA6E400EEF6EA451060802E10E0E98
:10059000A46F036AA1519BDD0108D8A4A489036A52
:1005A000A151700FE96E0F0E0320EA6EA4C0EFFF99
:1005B000A12B3FD727EF03F004011151000A0001DE
:1005C0000DE0010A14E0020A1EE0060A27E0030A11
:1005D0002CE00E0A2CE0010A30E03DD01EC050F4A1
:1005E0000401516B020E0001A36FA6DE36D0040198
:1005F000122D06D0010E1E160001A36B9DDE02D047
:1006000000019DDE2AD00401122D05D01E820001BA
:10061000A36B92DE02D0000192DE1FD0020E1C6E90
:1006200012C426F0A36B88DE18D0BFD616D01DC02A
:1006300050F4010EA36F80DE10D0040112510108A6
:1006400008E312C41DF012C4A0F00001E4D6A36BAD
:1006500073DE000102D073DE00D048EF04F01DC04D
:10066000A0F004011151000A000105E00A0A0BE0A4
:10067000010A26E037D00401506B516B020E0001D5
:10068000A36F5ADE31D0A05319E0010EA05D036ABA
:100690005EDD016E0401145DD8A002D000010ED011
:1006A000036A1451290FE96E000E0320EA6EEFCFA2
:1006B00050F4010E0001A36F3FDE01D040DE14D0E4
:1006C000A0530EE0036A04011451290FE96E000ED5
:1006D0000320EA6E12C4EFFF0001A36B2DDE01D0F0
:1006E0002EDE02D02CDE00D048EF04F0A191A0BF96
:1006F000A181A09FA1A117D0AB6BA0C0AAF0AD6B48
:10070000080EAC6FA0DD02C0A3F001C0A2F0040E81
:10071000A227000EA323A2C0E9FF040EA325EA6EC0
:10072000880EEF6E0DD0AB6BA0C0AAF0AD6B080EBB
:10073000AC6F89DD01C0E9FF040E0224EA6EEF6AA6
:1007400016EF04F0A191A0BFA181A09FA1A117D095
:10075000AB6BA0C0AAF0AD6B080EAC6F74DD02C02D
:10076000A3F001C0A2F0040EA227000EA323A2C092
:10077000E9FF040EA325EA6E840EEF6E0ED0AB6B7C
:10078000A0C0AAF0AD6B080EAC6F5DDD01C0E9FF43
:10079000040E0224EA6E840EEF6E1CEF04F0A191A9
:1007A000A0BFA181A09FA1A117D0AB6BA0C0AAF050
:1007B000AD6B080EAC6F47DD02C0A4F001C0A3F022
:1007C000040EA327000EA423A3C0E9FF040EA42552
:1007D000EA6EEFCFA2F00ED0AB6BA0C0AAF0AD6B6B
:1007E000080EAC6F30DD01C0E9FF040E0224EA6E92
:1007F000EFCFA2F0A2AF02D0A2B502D0000E01D07E
:10080000010E016E26EF04F014C4AAF0FADC0152C6
:1008100029E004011151010A000105E0020A09E082
:10082000030A0DE01DD014C4A0F060D7A36B84DDD3
:1008300019D014C4A0F086D7A36B7EDD13D00401B9
:10084000506B516B14C4A0F00001A9D7015204E011
:10085000010E0401506F0001020EA36F6DDD02D086
:100860006EDD00D048EF04F01C6A040110517F0BCC
:10087000000A000105E0010A05E0030A05E006D0D0
:100880009BD606D0ECD604D0BFD702D058DD00D01E
:100890009DEF05F0AB6BA0C0AAF0AD6B080EAC6F7E
:1008A000D2DC01C0E9FF040E0224EA6EEFCFA2F011
:1008B000A151020806E1A2AD02D0A16B02D0010E47
:1008C000A16FA151030819E1840EA26FAB6BA0C008
:1008D000AAF0AD6B080EAC6FB6DC02C0A6F001C08A
:1008E000A5F0040EA527000EA623A5C0E9FF040E5F
:1008F000A625EA6E840EEF6E07D0A12D03D0C80E98
:10090000A26F02D0880EA26FD890A035036A77EC50
:1009100000F00900F5CF03F0A36F03C0A4F0AB6BA8
:10092000A0C0AAF0AD6B080EAC6F8DDC01C0A5F0C5
:10093000010E0124016E000E0220036E01C0E9FFCA
:10094000040E0324EA6EA3C0EFFFA4B1A281A4B3F6
:10095000A283AB6BA0C0AAF0AD6B080EAC6F73DCCA
:1009600001C0E9FF040E0224EA6EA2C0EFFF000CF2
:10097000036AA551700FE96E0F0E0320EA6EEF5265
:1009800018E0AB6BA5C0AAF0AD6B080EAC6F5BDCDA
:1009900002C0A7F001C0A6F0040EA627000EA723F0
:1009A000A6C0E9FF040EA725EA6EEFCFA6F0A6AF1A
:1009B00002D0000E01D0010E016EE2EF04F0A0C0E3
:1009C000A5F0D6D70152D8B47AD0AB6BA0C0AAF0AC
:1009D000AD6B080EAC6F37DC02C0A6F001C0A5F00D
:1009E000040EA527000EA623010EA525016E000EFC
:1009F000A621036E01C0E9FF040E0324EA6EA1C024
:100A0000EFFFA35102081DE1AB6BA0C0AAF0AD6BD4
:100A1000080EAC6F18DC02C0A6F001C0A5F0040EF1
:100A2000A527000EA623A5C0E9FF040EA625EA6EA1
:100A3000EFCFA4F0A4AD02D0A36B02D0010EA36F40
:100A400018D0A351040815E1AB6BA0C0AAF0AD6BA0
:100A5000080EAC6F23EC01F001C0E9FF040E022484
:100A6000EA6EEFCFA4F0A4AD03D0010EA36F01D0C6
:100A7000A36BA32D03D0C80EA46F02D0880EA46F61
:100A8000A2B1A481A2B3A483AB6BA0C0AAF0AD6B4A
:100A9000080EAC6F23EC01F002C0A6F001C0A5F077
:100AA000040EA527000EA623A5C0E9FF040EA62567
:100AB000EA6EA4C0EFFF010E016E03D000D0000E5D
:100AC000016E000CA05300E1000CA1C06EFFA15309
:100AD00003E0040E246E02D0020E246E75EF05F0C2
:100AE0001D6A1C6A26C0A1F0F0D781EF05F0A05363
:100AF00008E11C2C02D026DC04D01C50020801E1C5
:100B0000EFD7000C23309E6F9E339E331F0E9E172F
:100B1000235242E1040100513C0B00019F6F430E40
:100B20000401001700019F5134081EE10401045123
:100B3000800B01E0046B000197D66D98253C05D031
:100B4000A06B030EA16FA6DE0ED0A06B020EA16FEC
:100B5000A1DE2550FE0807E0A06BA26B25C0A1F026
:100B6000040EA36F2CDF17D09F51040814E1A06B73
:100B7000A9DFA06B020EA16F8DDE2550FE080AE0F2
:100B8000253C01D007D0A06BA26B25C0A1F0010EBF
:100B9000A36F15DF00D07AD02350040814E1430E70
:100BA00004010417FF0E256E0001A06BA0DF253C99
:100BB00001D008D0A06BA26B25C0A1F0020EA36FDC
:100BC000FEDE00D063D023B42AD0AB6B9EC0AAF067
:100BD000AD6B080EAC6F23EC01F001C0A0F001C0BA
:100BE00001F0040E0224036E01C0A0F0A16FAB6BF4
:100BF0009EC0AAF0AD6B080EAC6F23EC01F001C0F3
:100C0000E9FF040E0224EA6EEF50430BA1C0EAFF95
:100C1000A0C0E9FFEF6E9EC0A0F054DF37D0AB6BF1
:100C20009EC0AAF0AD6B080EAC6F23EC01F002C0C1
:100C3000A1F001C0A0F0040EA027000EA123A0C0C7
:100C400001F0040EA125036EA0C0A0F0A16FAB6B54
:100C50009EC0AAF0AD6B080EAC6F23EC01F002C091
:100C6000A3F001C0A2F0040EA227000EA323A2C08D
:100C7000E9FF040EA325EA6EEF50430BA1C0EAFF83
:100C8000A0C0E9FFEF6E9EC0A0F031DF7FEF06F05D
:100C9000A19A245201E139D0685237E068A404D007
:100CA00069A402D0DEEF00F06DA201D02ED068AAB8
:100CB00004D069AA02D0F6EF00F068A204D069A2BD
:100CC00002D0FDEF00F068A004D069A002D07FEF51
:100CD00001F068A804D069A802D094EF01F068ACD4
:100CE00004D069AC02D099EF01F09D6B68A608D0E2
:100CF00069A606D06CCF23F002EC00F003D701D038
:100D000004D09D519D2B0308F1E236EF00F06BB14A
:100D100001D04ED06F51715D19E303E170516E5DEA
:100D200015E26FC073F06EC072F06E51705D746F3B
:100D30006F517159756FD00ED8807055766F070E50
:100D40007155776F786B010E796F14D071C073F0A5
:100D500070C072F070516E5D746F71516F59756F24
:100D6000D00ED8806E55766F070E6F55776F010ED7
:100D7000786F796B949E8B8E949C8B8C939E8A8ECD
:100D8000939C8A8C94928B8294948B84000ED8804E
:100D900072559D6F000E73559E6F010ED8A0E80628
:100DA000000ED8A0E8069EC0D7FF9DC0D6FF7A6B84
:100DB000EEEF06F09D5307E1949E8B9E939E8A9ED4
:100DC00094928B9206D0949C8B9C939C8A9C949436
:100DD0008B94000C7A51020802E199D73BD07A53E8
:100DE0000FE178C09DF0E6DF7451751103E0010E4C
:100DF0007A6F05D0020E7A6F79C09DF0DBDF05D0E7
:100E000079C09DF0D7DF020E7A6F7A2D12D0000ED6
:100E1000D88074559D6F000E75559E6F010ED8A039
:100E2000E806000ED8A0E8069EC0D7FF9DC0D6FFFA
:100E300011D0000ED88076559D6F000E77559E6FAD
:100E4000010ED8A0E806000ED8A0E8069EC0D7FF85
:100E50009DC0D6FFF29436EF00F0256425642C2067
:100E600043313D256425252C2043323D256425252D
:100E70000A0049313D252E32666D732C2049323DE2
:100E8000252E32666D730A006D6A696A080E6F6EF0
:100E900094503009946E246A196AF2BE198EF29E3B
:100EA0006DEC01F019BEF28E57EF07F0EDD77CEF35
:100EB00007F0196AF2BE198EF29E6DEC01F019BEB0
:100EC000F28E6D6A140E6F6E696A6D86010E246E65
:100ED0006DEF07F06DB601D0ECD7242C0BD06DBAB6
:100EE00009D0686A696AA08AC00EF212110E696E92
:100EF000020E246E000CDAD7EDDF24500208FCE16C
:100F0000CFEF0DF0EA6A910EE96EEF500EE0050E9C
:100F1000016E006A002EFED7012EFBD72E0E006E4A
:100F2000002EFED700D0EF2EF2D7000C99B102D0E0
:100F3000899801D08988929899B302D0899A01D072
:100F4000898A929A99B502D08A9601D08A86939618
:100F500099B702D08A9801D08A88939800008A8431
:100F60009394020E006E002EFED700008A94939494
:100F7000000C9A6B9288000E80B8010E9A13928A28
:100F8000000E80BA010E006ED890003600509A1301
:100F90009386000E81B6010E006E00360036FC0E00
:100FA000001600509A139388000E81B8010E006E4F
:100FB000003600360036F80E001600509A139AC01C
:100FC00001F0000C9288928A938693888A82939289
:100FD00000008A8493940000CCDF01C099F08A94C9
:100FE000939400008A84939400D000D0C2DF01C0A3
:100FF00098F08A9493949298929A939693989939A8
:10100000006EF00E001600509811016E0EEF08F001
:101010009394939093928A909390D4D701C098F030
:1010200001BEFBD7965302E18A9001D08A8093904B
:1010300000008A92939200008A9493949739986F53
:101040000F0E981798C099F071DF97510F0B986F9A
:10105000996F6CDF000C9298929A93969398939460
:10106000939093928A9093908A9293928A94939475
:101070000F0E916F47DF010E7B6F7B5103080AE370
:10108000030E996F53DF996B51DF050E916F3ADFB5
:101090007B2BF3D7020E996F49DF996B47DF050E63
:1010A000916F30DF7B6B7B5103080AE3036A7B514E
:1010B0005DEC00F07C6F966B976FAADF7B2BF3D70C
:1010C0001A6A1B6AD1EF0DF0932D01D003D0400EA8
:1010D000946F01D0946B010E925D94279451800916
:1010E000956F966B976F94DF010E925D1A6E010EED
:1010F000935D1B6E000C9051070A09E00B0A0CE08F
:10110000010A14E0070A1BE0020A2CE030D0010EAD
:10111000926F936FD9DF35D0966B010E976F78DFA2
:10112000020E916FEFDE1A6A1B6A2BD0010E1B2490
:10113000916F010E926F91C093F0C6DF22D01A50CA
:101140001A2A130806E3010E966F200E976F60DFD0
:10115000F6D7020E1B24916F010E926F91C093F08F
:10116000B3DF0FD0966B100E976F52DF0AD01A5074
:10117000130806E3010E966F90C097F049DF1A2A14
:1011800000D0000C1D50016E000C8451016A835D7B
:1011900003E283C000F00CD0006A080E856F83372D
:1011A00000368451005CD8B0006E0136852FF7D729
:1011B000000C200E7EA9300E7F6F7DC000F07DAF49
:1011C00007D0001E002A00C07DF02D0E7F6F7E8F9D
:1011D00001507DC083F0640E846FD7DF00C07DF0C6
:1011E000300E0124806F7DC083F00A0E846FCDDF46
:1011F000300E0024826F300E0124816F7FC000F01A
:101200007EA702D07EAF7E957EB90BD07EAF22D076
:101210007EB520D000C080F07EB31CD000C081F02D
:1012200019D0300E805D16E100C080F0200E7F6F77
:101230007EA704D07E957E837EAF7E93300E815D47
:1012400009E100C081F0200E806F7EA7F7D77E9362
:101250007EAF7E917EA503D07FC090F04CDF7EA351
:1012600003D080C090F047DF7EA103D081C090F012
:1012700042DF82C090F03FDF000C0900F6CF84F01F
:10128000F7CF85F0F5CF90F036DF84C0F6FF85C04C
:10129000F7FF832FF2D7000C8E0E006E80C001F096
:1012A0007FC002F0036A015209E102C001F0026A44
:1012B000080E005E015202E1006A08D0D89001BE1B
:1012C00004D0023601360006F9D7019E000C835186
:1012D000D8B4A5D08F6F8751D8B4A1D08F5F05E364
:1012E0007F0E8F27D8B09BD006D0810E8F5FD8A0FD
:1012F00096D0D8B494D08FC000F0016A026A036A15
:101300008E6B84C08DF08D8F85C08CF086C08BF085
:10131000190E8F6F8A518B5F0DE2010E8C5F0AE20E
:101320008D5F08E28E5F06E28E2B8D2B8C2B8A510F
:101330008B2728D089518C5F12E2010E8D5F0FE25E
:101340008E5F0DE28E2B8D2B89518C278A518B2736
:1013500019E38C2B17E18D2B15E18E2B13D08851BF
:1013600080098D5F0EE2010E8E5F0BE28E2B88519D
:1013700080098D2789518C27E9E38D2BE7E18E2B9E
:10138000E5D703808F2F01D00BD0D8908B378C37C7
:101390008D378E37D8900336023601369037BAD75C
:1013A00090A106D0D890013202320332903302D09D
:1013B000000635E090BF1ED0D8908B378C378D3724
:1013C0008E378A518B5F07E2010E8C5F04E28D5FDE
:1013D00002E28E5F1AE389518C5F05E2010E8D5F98
:1013E00002E28E5F12E3885180098D5F03E2010EF5
:1013F0008E5F0BE3032A09E1022A07E1012A05E1D6
:10140000002A0DE001320232033284C08FF088518D
:101410008F1B8FAF02D0018E06D0019E04D0006AD0
:10142000016A026A036A000C9051D8B471D0006E50
:101430009451D8B46DD0002604E3810E002668E2F2
:1014400004D07F0E005E64E363E091C098F0955194
:10145000981B918F958F93519703F4CF9AF09251E7
:101460009603F4CF03F0F3CF99F09703F3509A2744
:10147000F4509923000E032293519603F3509A27B8
:10148000F4509923000E026A03220222915197031D
:10149000F3509927F4500322000E02229151960333
:1014A000F3500326F4500222000E016A01229351E8
:1014B0009503F3509927F4500322000E02220122D3
:1014C00092519503F3500326F4500222000E01229C
:1014D00091519503F3500226F4500122002A01BED7
:1014E00005D099370336023601360006000E99AF53
:1014F0000AD0032A02220122015005E1025003E131
:10150000035001E1002A98BF018E98AF019E04D0DC
:10151000006A016A026A036A09EF0BF09051B6088B
:10152000906F036A91C094F0918FD8909133923369
:1015300093330332023201320032902FF6D794AF48
:101540000BD0001E011E021E031E002AD8B4012A61
:10155000D8B4022AD8B4032A1CEF0BF0D8B203D0B7
:10156000EA6A980EE96E006A016A026A036A986B79
:10157000996B9A6B9B6B97519611951194112CE076
:10158000200E9C6FD89090379137923793379837C9
:1015900099379A379B3797519B5D08E196519A5D31
:1015A00005E19551995D02E19451985D0FE39451E5
:1015B000985F9551D8A0953D995F9651D8A0963DDA
:1015C0009A5F9751D8A0973D9B5FD880003601362F
:1015D000023603369C2FD6D798C0EFFF99C0ECFF98
:1015E0009AC0ECFF9BC0ECFF000CE950886F87515C
:1015F0008A6F19E086C093F085C092F084C091F0A4
:1016000083C090F0976B966B200E956F820E946F4F
:101610000BD703C086F002C085F001C084F000C083
:1016200083F08A2FE7D786C093F085C092F084C0FC
:1016300091F083C090F072D703C086F002C085F0AD
:1016400001C084F000C083F086AF0DD08807888B7E
:10165000831F841F851F861F832BD8B4842BD8B487
:10166000852BD8B4862B3B0E8F6F9A0E8E6FCA0EC9
:101670008D6F8C6B0A0E8A6F8751D8B4882BD882F5
:10168000EA6A830EE96E86C093F085C092F084C04A
:1016900091F083C090F08FC097F08EC096F08DC00F
:1016A00095F08CC094F05ADF015000520FE1872969
:1016B0008A5D0CE088510CE00F0B8A5D01E037E297
:1016C00088BF35D088BD04D0200E2DD0200E8817BD
:1016D00088AB0CD0889B8751D8A488070050886FAE
:1016E0002D0E906F08DD8851006E886B87518A5DE2
:1016F0000AE10050886F2E0E906FFDDC8851006E5D
:10170000200E8817000E300E88AB0DD0889B8751B5
:10171000D8A488070050886F2D0E906FECDC88519C
:10172000006E886B300E002600C090F0E4DCD8928A
:101730008FC093F08EC092F08DC091F08CC090F06D
:10174000976B966B956B0A0E946F08DF03C08FF052
:1017500002C08EF001C08DF000C08CF08A2F8FD7B0
:10176000000C010E926F936FAFDC0CDD01C07BF0BB
:10177000000E6BB1010E7C6F01C07DF01F0E7E6FFD
:1017800018DD7CC07DF01F0E7E6F13DD5E0EF66EE1
:101790000E0EF76E050E836F70DD6CC07DF01F0EB0
:1017A0007E6F07DD250E906FA6DC670EF66E0E0EBF
:1017B000F76E050E836F61DD6DC07DF01F0E7E6FCD
:1017C000F8DC250E906F97DC0A0E906F94DC6FC0EA
:1017D00080F06EC07FF060DD00C07BF001C07CF067
:1017E00002C07DF003C07EF003C086F002C085F029
:1017F00001C084F000C083F08A6B896B480E886F4B
:10180000850E876F64DD00C07BF001C07CF002C0F4
:101810007DF003C07EF071C080F070C07FF03CDDD1
:1018200000C07FF001C080F002C081F003C082F0F0
:1018300003C086F002C085F001C084F000C083F0D0
:101840008A6B896B480E886F850E876F40DD00C0FC
:101850007FF001C080F002C081F003C082F0490E29
:10186000906F49DC310E906F46DC3D0E906F43DC8B
:10187000890EE96E7EC086F07DC085F07CC084F064
:101880007BC083F0020E876FB0DE790EF66E0E0E0F
:10189000F76E070E836FF1DC890EE96E82C086F069
:1018A00081C085F080C084F07FC083F0020E876F16
:1018B0009CDE6D0E906F1FDC730E906F1CDC0A0EA9
:1018C000906F19DC000C016A026A006A036A825197
:1018D00002E1815118E0100E836FD8907F37803776
:1018E000003603368251035C02E18151005C07E35C
:1018F0008151005ED8A003068251035ED880013674
:101900000236832FEAD7000C7BC06CF07CC06DF0F0
:10191000036A7BC07DF003C07EF0196AF2BE198EA7
:10192000F29EAB6B500EAA6F03C0ADF07BC0ACF063
:1019300023EC01F019BEF28E02C07EF001C07DF0F2
:1019400002C080F001C07FF0826B640E816FBBDF4C
:101950000150460F6E6F000E02206F6F036A7CC04D
:101960007DF003C07EF0196AF2BE198EF29EAB6B59
:10197000640EAA6F03C0ADF07CC0ACF023EC01F0A4
:1019800019BEF28E02C07EF001C07DF002C080F070
:1019900001C07FF0826B640E816F95DF0150640F90
:1019A000706F000E0220716F000C000E6BB1010E03
:1019B0007B5D08E06B917BB16B816BA102D0F28AF9
:1019C00001D0F29A000C036A7B51700FE96E0F0E82
:1019D0000320EA6EEF5219E0196AF2BE198EF29EE8
:1019E000AB6B7BC0AAF0AD6B080EAC6F23EC01F0C3
:1019F00019BEF28E02C07DF001C0E9FF040E022480
:101A0000EA6EEFCF7CF07CAF02D0000E01D0010E69
:101A1000016EF0EF0DF0196AF2BE198EF29EAB6BFB
:101A200080C0AAF0AD6B080EAC6F23EC01F019BEBC
:101A3000F28E01C08AF0020E0124016E000E022017
:101A4000036E01C0E9FF040E0324EA6EECCF03F03D
:101A5000ED52EFCF85F003C086F0196AF2BE198E01
:101A6000F29EAB6B80C0AAF0AD6B080EAC6F23EC9E
:101A700001F019BEF28E01C08AF0010E0124016E40
:101A8000000E0220036E01C0E9FF040E0324EA6E7B
:101A9000EF50036A886F03C089F0196AF2BE198E8D
:101AA000F29EAB6B80C0AAF0AD6B080EAC6F23EC5E
:101AB00001F019BEF28E01C0E9FF040E0224EA6EA5
:101AC000EFCF87F087B1898187B389838951845D9E
:101AD00008E303E18351885D04E289C084F088C093
:101AE00083F082C0EAFF81C0E9FF86C0E2FF85C0C3
:101AF000E1FF84C002F083C001F0015202E0022A3B
:101B000002D0025206E0E6CFEEFF012EFCD7022EF5
:101B1000FAD783C001F084C002F09AEF0DF07BC0C9
:101B200080F07DC082F07CC081F07FC084F07EC0F8
:101B300083F071D702C07FF001C07EF0196AF2BE57
:101B4000198EF29E7BC0A0F0020EA16F4AEC04F049
:101B500019BEF28E7EC001F07FC002F0FBEF0DF0E7
:101B60002AC07BF022DF2BC07BF02CC07CF0CCDEC7
:101B7000F8DDFEEF0DF0F86AD09E078EEA6AE96A9A
:101B8000246A286AC150C00B0F09C16E070EB46EDB
:101B9000206A040E216E0C0E226E7BEF07F02BEFF5
:101BA00008F00C0E906F7BEC08F0010E916F82EC48
:101BB00007F0D7DD000E936E946E7B6B320E7C6F58
:101BC000A3DE860ED56EC00EF2127B6BEEDE6AECE3
:101BD00007F0C2EC08F0015211E0010E7B6FF3D662
:101BE00001520CE0010E7B6F7D6B2A0E7C6F7F6BC8
:101BF000400E7E6F94D701C06AF0B2D7010E916F8C
:081C000082EC07F0E4D70300B9
:020000040030CA
:0E00000022CE390E000781000FC00FE00F4026
:00000001FF
;PIC18F2550
;CRC=0AC7  CREATED="24-мар-11 00:28"
