:1000000072EF0BF06896000C046ED8CF05F0E0CFCD
:1000100006F00001E9CF0CF0EACF07F0E1CF08F0DD
:10002000E2CF09F0D9CF0AF0DACF0BF0F3CF12F01C
:10003000F4CF13F0FACF14F0F5CF15F0F6CF16F099
:10004000F7CF17F000C00EF001C00FF002C010F0A3
:1000500003C011F0F2AA30EF00F0F2B400EF07F0A5
:10006000A0AA36EF00F0A1BA48EF06F00EC000F0EB
:100070000FC001F010C002F011C003F00CC0E9FF86
:1000800007C0EAFF078E08C0E1FF09C0E2FF0AC00F
:10009000D9FF0BC0DAFF12C0F3FF13C0F4FF14C086
:1000A000FAFF15C0F5FF16C0F6FF17C0F7FF0450A2
:1000B00006C0E0FF05C0D8FF1000F76ACA0FF66E51
:1000C000000EF7220900F5501200280C0106F76A0D
:1000D000DE0FF66E000EF7220900F5501200000246
:1000E000FFFFFFFFFFFFFFFFFFFFFFFFFFFFF76ABD
:1000F000FE0FF66E000EF7220900F55012004000C8
:1001000040000000000000000000000000000000AF
:100110000000000000000000000000000000F76A7E
:100120002E0FF66E010EF7220900F550120009029B
:10013000200001010080320904000002FFFFFF00DF
:100140000705810340000107050103400001F76A2C
:100150005E0FF66E010EF7220900F5501200010045
:10016000F76A700FF66E010EF7220900F5501200C3
:100170001201000200000040D80402D00001010278
:100180000001F76A920FF66E010EF7220900F55092
:100190001200040309040803530048004D001E0325
:1001A00052006100640069006F0042006F0061004E
:1001B000740020004300740072006C006D9269941A
:1001C00068A402D06894FCD754EF06F0400E0401F6
:1001D000016F040E036F100E026F880E006F046B28
:1001E000040E076F500E066F0001000C70A002D0C5
:1001F000EDDF7090689A5DEF06F06A6A689263EFCF
:1002000006F09F919EBF9F819E9F9E51100803E222
:10021000000E016E17D09FA10BD0036A9E5157DFCD
:10022000FF0802E1000E01D0010E016E0BD00AD0D2
:10023000036A9E514CDFFF0802E1000E01D0010E5F
:10024000016E00D0000C9E51A003F3CF01F0F4CF5B
:1002500000F0A103F35000269F51A003F3500020AB
:10026000026E000C036A9D51700FE96E0F0E0320A1
:10027000EA6EEF6A9DC09EF0C4DF015222E09F6BE0
:100280009DC09EF0A16B080EA06FDDDF01C0E9FFED
:10029000040E0224EA6EEF6A9F6B9DC09EF0A16B74
:1002A000080EA06FD0DF02C09FF001C09EF0040EC8
:1002B0009E27000E9F239EC0E9FF040E9F25EA6E35
:1002C000EF6A000C010E9C6F9C510F0805E39CC067
:1002D0009DF0C8DF9C2BF8D7000C926B92530AE17B
:1002E000036A9251290FE96E000E0320EA6EEF6A4D
:1002F000922BF4D71D6A010E1E6E1C6A000C6A6AEE
:10030000686A9F0E6B6E3D0E696E6E6ADBDFE5DF1D
:10031000160E706E68A602D075DEFCD76D9856DF9B
:10032000030E246E69EF06F0698468986D826FEFA2
:1003300006F0689C75EF06F097C025F0000CFF0EE4
:10034000256E000C956B285226E095513F0823E35B
:100350001F5005E0020A08E0010A0BE00FD0036A13
:100360002750DDDE966F0AD0036A27500ADF966FAA
:1003700005D0036A2750F4DE966F00D0272A28069E
:100380009551952B500FE96E040EEA6ED8B0EA2A0B
:1003900096C0EFFFD8D7285204E19551400801E0FC
:1003A0001C6A95C097F0C8DF000C276A1F6A040119
:1003B0001351010A000105E0030A08E0010A09E0FF
:1003C0001AD0120E286E030E1F6E17D0200E286E44
:1003D00014D0020E1F6E036A04011251200FE96E41
:1003E000000E0320EA6EEFCF27F0036A27500001CA
:1003F000C8DE286E02D0A3DF0CD00401175305E13C
:100400002850165D02E216C428F0010E1C6E000191
:1004100099DF2DEF03F0945304E1040E246E52DFB4
:10042000C9D0050E246E040E976F900E966F010EC4
:10043000956F95510F08D8A0BDD095C09DF012DFE3
:10044000986B036A955143DEFF0859E0040E986FDC
:10045000D8909535036A4BDE0900F5CF03F0996F0C
:1004600003C09AF09F6B95C09EF0A16B080EA06F21
:10047000EADE01C09CF0010E0124016E000E022094
:10048000036E01C0E9FF040E0324EA6E99C0EFFF7A
:100490009F6B95C09EF0A16B080EA06FD4DE01C0CB
:1004A0009CF0020E0124016E000E0220036E01C0BA
:1004B000E9FF040E0324EA6E97C0ECFFED5296C0EC
:1004C000EFFFD8909535036A12DE0900F5CF03F0EF
:1004D000962703509723880E9B6F9AB19B819AB3FE
:1004E0009B839F6B95C09EF0A16B080EA06FABDE47
:1004F00001C0E9FF040E0224EA6E9BC0EFFF036A0D
:100500009551E5DDFF0840E098839F6B95C09EF014
:10051000A16B080EA06F97DE02C09DF001C09CF099
:10052000040E9C27000E9D23020E9C25016E000EDA
:100530009D21036E01C0E9FF040E0324EA6E97C0FB
:10054000ECFFED5296C0EFFFD8909535036ACFDDF2
:100550000900F5CF03F09627035097239F6B95C0B2
:100560009EF0A16B080EA06F6EDE02C09DF001C070
:100570009CF0040E9C27000E9D239CC0E9FF040EF6
:100580009D25EA6E400EEF6E9851060802E10E0EB0
:10059000986F036A95519BDD0108D8A49889036A76
:1005A0009551700FE96E0F0E0320EA6E98C0EFFFB1
:1005B000952B3FD727EF03F004011151000A0001EA
:1005C0000DE0010A14E0020A1EE0060A27E0030A11
:1005D0002CE00E0A2CE0010A30E03DD01EC050F4A1
:1005E0000401516B020E0001976FA6DE36D00401A4
:1005F000122D06D0010E1E160001976B9DDE02D053
:1006000000019DDE2AD00401122D05D01E820001BA
:10061000976B92DE02D0000192DE1FD0020E1C6E9C
:1006200012C426F0976B88DE18D0BFD616D01DC036
:1006300050F4010E976F80DE10D0040112510108B2
:1006400008E312C41DF012C494F00001E4D6976BC5
:1006500073DE000102D073DE00D048EF04F01DC04D
:1006600094F004011151000A000105E00A0A0BE0B0
:10067000010A26E037D00401506B516B020E0001D5
:10068000976F5ADE31D0945319E0010E945D036ADE
:100690005EDD016E0401145DD8A002D000010ED011
:1006A000036A1451290FE96E000E0320EA6EEFCFA2
:1006B00050F4010E0001976F3FDE01D040DE14D0F0
:1006C00094530EE0036A04011451290FE96E000EE1
:1006D0000320EA6E12C4EFFF0001976B2DDE01D0FC
:1006E0002EDE02D02CDE00D048EF04F0959194BFAE
:1006F0009581949F95A117D09F6B94C09EF0A16B9C
:10070000080EA06FA0DD02C097F001C096F0040EA5
:100710009627000E972396C0E9FF040E9725EA6EF0
:10072000880EEF6E0DD09F6B94C09EF0A16B080EEB
:10073000A06F89DD01C0E9FF040E0224EA6EEF6AB2
:1007400016EF04F0959194BF9581949F95A117D0D1
:100750009F6B94C09EF0A16B080EA06F74DD02C069
:1007600097F001C096F0040E9627000E972396C0CE
:10077000E9FF040E9725EA6E840EEF6E0ED09F6B94
:1007800094C09EF0A16B080EA06F5DDD01C0E9FF73
:10079000040E0224EA6E840EEF6E1CEF04F09591B5
:1007A00094BF9581949F95A117D09F6B94C09EF0A4
:1007B000A16B080EA06F47DD02C098F001C097F052
:1007C000040E9727000E982397C0E9FF040E982582
:1007D000EA6EEFCF96F00ED09F6B94C09EF0A16BA7
:1007E000080EA06F30DD01C0E9FF040E0224EA6E9E
:1007F000EFCF96F096AF02D096B502D0000E01D0A2
:10080000010E016E26EF04F014C49EF0FADC0152D2
:1008100029E004011151010A000105E0020A09E082
:10082000030A0DE01DD014C494F060D7976B84DDEB
:1008300019D014C494F086D7976B7EDD13D00401D1
:10084000506B516B14C494F00001A9D7015204E01D
:10085000010E0401506F0001020E976F6DDD02D092
:100860006EDD00D048EF04F01C6A040110517F0BCC
:10087000000A000105E0010A05E0030A05E006D0D0
:100880009BD606D0ECD604D0BFD702D058DD00D01E
:100890009DEF05F09F6B94C09EF0A16B080EA06FBA
:1008A000D2DC01C0E9FF040E0224EA6EEFCF96F01D
:1008B0009551020806E196AD02D0956B02D0010E6B
:1008C000956F9551030819E1840E966F9F6B94C044
:1008D0009EF0A16B080EA06FB6DC02C09AF001C0BA
:1008E00099F0040E9927000E9A2399C0E9FF040E8F
:1008F0009A25EA6E840EEF6E07D0952D03D0C80EB0
:10090000966F02D0880E966FD8909435036A77EC74
:1009100000F00900F5CF03F0976F03C098F09F6BCC
:1009200094C09EF0A16B080EA06F8DDC01C099F001
:10093000010E0124016E000E0220036E01C0E9FFCA
:10094000040E0324EA6E97C0EFFF98B1968198B326
:1009500096839F6B94C09EF0A16B080EA06F73DC12
:1009600001C0E9FF040E0224EA6E96C0EFFF000CFE
:10097000036A9951700FE96E0F0E0320EA6EEF5271
:1009800018E09F6B99C09EF0A16B080EA06F5BDC16
:1009900002C09BF001C09AF0040E9A27000E9B2320
:1009A0009AC0E9FF040E9B25EA6EEFCF9AF09AAF4A
:1009B00002D0000E01D0010E016EE2EF04F094C0EF
:1009C00099F0D6D70152D8B47AD09F6B94C09EF0DC
:1009D000A16B080EA06F37DC02C09AF001C099F03D
:1009E000040E9927000E9A23010E9925016E000E20
:1009F0009A21036E01C0E9FF040E0324EA6E95C03C
:100A0000EFFF975102081DE19F6B94C09EF0A16B10
:100A1000080EA06F18DC02C09AF001C099F0040E15
:100A20009927000E9A2399C0E9FF040E9A25EA6ED1
:100A3000EFCF98F098AD02D0976B02D0010E976F70
:100A400018D09751040815E19F6B94C09EF0A16BDC
:100A5000080EA06F23EC01F001C0E9FF040E022490
:100A6000EA6EEFCF98F098AD03D0010E976F01D0EA
:100A7000976B972D03D0C80E986F02D0880E986F91
:100A800096B1988196B398839F6B94C09EF0A16BAA
:100A9000080EA06F23EC01F002C09AF001C099F09B
:100AA000040E9927000E9A2399C0E9FF040E9A2597
:100AB000EA6E98C0EFFF010E016E03D000D0000E69
:100AC000016E000C945300E1000C95C06EFF95532D
:100AD00003E0040E246E02D0020E246E75EF05F0C2
:100AE0001D6A1C6A26C095F0F0D781EF05F094537B
:100AF00008E11C2C02D026DC04D01C50020801E1C5
:100B0000EFD7000C2330926F923392331F0E92175F
:100B1000235242E1040100513C0B0001936F430E4C
:100B2000040100170001935134081EE1040104512F
:100B3000800B01E0046B000197D66D98253C05D031
:100B4000946B030E956FA6DE0ED0946B020E956F1C
:100B5000A1DE2550FE0807E0946B966B25C095F04A
:100B6000040E976F2CDF17D09351040814E1946B97
:100B7000A9DF946B020E956F8DDE2550FE080AE00A
:100B8000253C01D007D0946B966B25C095F0010EE3
:100B9000976F15DF00D07AD02350040814E1430E7C
:100BA00004010417FF0E256E0001946BA0DF253CA5
:100BB00001D008D0946B966B25C095F0020E976F0C
:100BC000FEDE00D063D023B42AD09F6B92C09EF08B
:100BD000A16B080EA06F23EC01F001C094F001C0DE
:100BE00001F0040E0224036E01C094F0956F9F6B18
:100BF00092C09EF0A16B080EA06F23EC01F001C023
:100C0000E9FF040E0224EA6EEF50430B95C0EAFFA1
:100C100094C0E9FFEF6E92C094F054DF37D09F6B21
:100C200092C09EF0A16B080EA06F23EC01F002C0F1
:100C300095F001C094F0040E9427000E952394C003
:100C400001F0040E9525036E94C094F0956F9F6B90
:100C500092C09EF0A16B080EA06F23EC01F002C0C1
:100C600097F001C096F0040E9627000E972396C0C9
:100C7000E9FF040E9725EA6EEF50430B95C0EAFF9B
:100C800094C0E9FFEF6E92C094F031DF7FEF06F081
:100C9000A19A245201E139D0685237E068A404D007
:100CA00069A402D0DEEF00F06DA201D02ED068AAB8
:100CB00004D069AA02D0F6EF00F068A204D069A2BD
:100CC00002D0FDEF00F068A004D069A002D07FEF51
:100CD00001F068A804D069A802D094EF01F068ACD4
:100CE00004D069AC02D099EF01F0916B68A608D0EE
:100CF00069A606D06CCF23F002EC00F003D701D038
:100D000004D09151912B0308F1E236EF00F0945199
:100D1000016A935D03E293C000F00CD0006A080EF4
:100D2000956F933700369451005CD8B0006E013651
:100D3000952FF7D7000C6BB101D060D070516E5D6C
:100D400015E171516F5D12E16FC074F06EC073F008
:100D5000766B756B400ED8806E55776F1F0E6F5592
:100D6000786F796B7A6B030E7B6F34D06F51715D46
:100D70001BE303E170516E5D17E26FC074F06EC04B
:100D800073F06E51705D756F6F517159766F400ED3
:100D9000D8807055776F1F0E7155786F796B010E83
:100DA0007A6F020E7B6F16D071C074F070C073F052
:100DB00070516E5D756F71516F59766F400ED880AE
:100DC0006E55776F1F0E6F55786F796B020E7A6FC5
:100DD000010E7B6F8B8E8B8C939E8A8E939C8A8C5C
:100DE0008B828B84731D916F741D926F912BD8B47D
:100DF000922B92C0D7FF91C0D6FF726B5AEF07F0CB
:100E0000010E7225926F936F030E946F80DF00C006
:100E100072F0D8907235036A730FE96E000E0320EA
:100E2000EA6EEF5203E1EC5201E1722BD890723579
:100E3000036A730FE96E000E0320EA6EECCF03F035
:100E4000ED52EF50FF0A010F916F000E0354D76E61
:100E500091C0D6FF036A7251790FE96E000E03202C
:100E6000EA6EEFA00CD0916B915305E18B9E939E9F
:100E70008A9E8B9204D08B9C939C8A9C8B94036A51
:100E80007251790FE96E000E0320EA6EEFA20DD0C9
:100E9000010E916F915305E18B9E939E8A9E8B92DA
:100EA00004D08B9C939C8A9C8B94725307E16BA318
:100EB00003D041D76B9302D08B828B84F29436EFB0
:100EC00000F06D6A696A080E6F6E94503009946E76
:100ED000246A196AF2BE198EF29E6DEC01F019BEF9
:100EE000F28E74EF07F0EDD799EF07F0196AF2BEB2
:100EF000198EF29E6DEC01F019BEF28E6D6A140E21
:100F00006F6E696A6D86010E246E8AEF07F06DB60A
:100F100001D0ECD7242C0BD06DBA09D0686A696A6D
:100F2000A08AC00EF212110E696E020E246E000C21
:100F3000DAD7EDDF24500208FCE185EF0BF0EA6A16
:100F4000860EE96EEF500EE0050E016E006A002E6F
:100F5000FED7012EFBD72E0E006E002EFED700D03E
:100F6000EF2EF2D7000C8EB102D0899801D089887B
:100F700092988EB302D0899A01D0898A929A8EB5BE
:100F800002D08A9601D08A8693968EB702D08A982C
:100F900001D08A88939800008A849394020E006E90
:100FA000002EFED700008A949394000C8F6B9288D9
:100FB000000E80B8010E8F13928A000E80BA010EC7
:100FC000006ED890003600508F139386000E81B6C5
:100FD000010E006E00360036FC0E001600508F1316
:100FE0009388000E81B8010E006E00360036003680
:100FF000F80E001600508F138FC001F0000C92887D
:10100000928A938693888A82939200008A8493942A
:101010000000CCDF01C08EF08A94939400008A8493
:10102000939400D000D0C2DF01C08DF08A949394D5
:101030009298929A939693988E39006EF00E0016BD
:1010400000508D11016E2BEF08F0939493909392C2
:101050008A909390D4D701C08DF001BEFBD78B53FB
:1010600002E18A9001D08A80939000008A92939244
:1010700000008A9493948C398D6F0F0E8D178DC05C
:101080008EF071DF8C510F0B8D6F8E6F6CDF000C4B
:101090009298929A939693989394939093928A901D
:1010A00093908A9293928A9493940F0E866F47DF5F
:1010B000010E7C6F7C5103080AE3030E8E6F53DF31
:1010C0008E6B51DF050E866F3ADF7C2BF3D7020E55
:1010D0008E6F49DF8E6B47DF050E866F30DF7C6BCE
:1010E0007C5103080AE3036A7C515DEC00F07D6FDC
:1010F0008B6B8C6FAADF7C2BF3D71A6A1B6A86EF87
:101100000BF0882D01D003D0400E896F01D0896B80
:10111000010E875D8927895180098A6F8B6B8C6FDF
:1011200094DF010E875D1A6E010E885D1B6E000C48
:101130008551070A09E00B0A0CE0010A14E0070ACE
:101140001BE0020A2CE030D0010E876F886FD9DFD8
:1011500035D08B6B010E8C6F78DF020E866FEFDE61
:101160001A6A1B6A2BD0010E1B24866F010E876F33
:1011700086C088F0C6DF22D01A501A2A130806E368
:10118000010E8B6F200E8C6F60DFF6D7020E1B24D2
:10119000866F010E876F86C088F0B3DF0FD08B6B30
:1011A000100E8C6F52DF0AD01A50130806E3010E9E
:1011B0008B6F85C08CF049DF1A2A00D0000CEACF73
:1011C00084F0E9CF83F07DAF08D0838F83A9832B90
:1011D0007C1F7D1F7C2BD8B47D2B7D39F0097F6F60
:1011E0007F27E20F806F320F826F7D510F0B8027B8
:1011F00080278227E90F816F812781277C390F0B98
:101200008127822781378237821F82377C510F0BDB
:1012100082277F37070E7E6F0A0E81078227FDE344
:1012200080078127FDE37F078027FDE37E077F2777
:10123000FDE3EA6A7E0EE96E070E8315839DE906DB
:10124000831507E183B9E92A83B903D0200E006E24
:101250001CD0E926820EE95CD8B4838DEF50006E75
:1012600008E183BD06D083B91BD083B702D0200E1E
:101270000BD083AF06D02D0E006EED50839D839F63
:1012800004D083878399300E0026EACF7DF0E9CF22
:101290007CF000C085F04CDF7DC0EAFF7CC0E9FF38
:1012A000EE5083ADD7D7000C200E7DA9300E7E6F97
:1012B0007CC000F07CAF07D0001E002A00C07CF08C
:1012C0002D0E7E6F7D8F0150196AF2BE198EF29E2F
:1012D0007CC093F0640E946F1ADD19BEF28E00C0CC
:1012E0007CF0300E01247F6F196AF2BE198EF29ED7
:1012F0007CC093F00A0E946F0ADD19BEF28E300E98
:101300000024816F300E0124806F7EC000F07DA725
:1013100002D07DAF7D957DB90BD07DAF22D07DB55C
:1013200020D000C07FF07DB31CD000C080F019D069
:10133000300E7F5D16E100C07FF0200E7E6F7DA72E
:1013400004D07D957D837DAF7D93300E805D09E176
:1013500000C080F0200E7F6F7DA7F7D77D937DAF13
:101360007D917DA503D07EC085F0E2DE7DA303D014
:101370007FC085F0DDDE7DA103D080C085F0D8DEA2
:1013800081C085F0D5DE000C010E876F886FB9DE55
:10139000100EE96E74C07DF073C07CF010DF2C0E6F
:1013A000856FC6DE200E856FC3DE100EE96E76C037
:1013B0007DF075C07CF003DF2C0E856FB9DE200E4A
:1013C000856FB6DE100EE96E78C07DF077C07CF0D8
:1013D000F6DE2C0E856FACDE200E856FA9DE7AC09E
:1013E0007CF01F0E7D6F60DF2C0E856FA1DE200E5E
:1013F000856F9EDE7BC07CF01F0E7D6F55DF0A0E71
:10140000856F96DE000C016A026A006A036A8351E6
:1014100002E1825118E0100E846FD8908037813736
:10142000003603368351035C02E18251005C07E31E
:101430008251005ED8A003068351035ED880013636
:101440000236842FEAD7000C7CC06CF07DC06DF0B2
:10145000036A7CC07EF003C07FF0196AF2BE198E69
:10146000F29E9F6B500E9E6F03C0A1F07CC0A0F057
:1014700023EC01F019BEF28E02C07FF001C07EF0B5
:1014800002C081F001C080F0836B640E826FBBDF0D
:1014900002C003F00150460F016E000E032201341A
:1014A0006E6F03346F6F6E376F37FC0E6E17036A03
:1014B0007DC07EF003C07FF0196AF2BE198EF29EE5
:1014C0009F6B640E9E6F03C0A1F07DC0A0F023EC63
:1014D00001F019BEF28E02C07FF001C07EF002C0A2
:1014E00081F001C080F0836B640E826F8CDF02C0DC
:1014F00003F00150640F016E000E03220134706F7F
:101500000334716F70377137FC0E70176B83000CEA
:10151000000E6BB1010E7C5D08E06B917CB16B81BC
:101520006BA102D0F28A01D0F29A000C1D50016E1C
:101530009DEF0BF0036A7C51700FE96E0F0E0320D4
:10154000EA6EEF5219E0196AF2BE198EF29E9F6B95
:101550007CC09EF0A16B080EA06F23EC01F019BEB9
:10156000F28E02C07EF001C0E9FF040E0224EA6E92
:10157000EFCF7DF07DAF02D0000E01D0010E016EE5
:10158000A2EF0BF0196AF2BE198EF29E9F6B81C01A
:101590009EF0A16B080EA06F23EC01F019BEF28E35
:1015A00001C08BF0020E0124016E000E0220036EBA
:1015B00001C0E9FF040E0324EA6EECCF03F0ED5204
:1015C000EFCF86F003C087F0196AF2BE198EF29E43
:1015D0009F6B81C09EF0A16B080EA06F23EC01F001
:1015E00019BEF28E01C08BF0010E0124016E000EB7
:1015F0000220036E01C0E9FF040E0324EA6EEF50DF
:10160000036A896F03C08AF0196AF2BE198EF29ECE
:101610009F6B81C09EF0A16B080EA06F23EC01F0C0
:1016200019BEF28E01C0E9FF040E0224EA6EEFCF6C
:1016300088F088B18A8188B38A838A51855D08E3FE
:1016400003E18451895D04E28AC085F089C084F099
:1016500083C0EAFF82C0E9FF87C0E2FF86C0E1FFE6
:1016600085C002F084C001F0015202E0022A02D0DB
:10167000025206E0E6CFEEFF012EFCD7022EFAD78B
:1016800084C001F085C002F051EF0BF07CC081F006
:101690007EC083F07DC082F080C085F07FC084F082
:1016A00071D702C080F001C07FF0196AF2BE198EB6
:1016B000F29E7CC094F0020E956F4AEC04F019BEC5
:1016C000F28E7FC001F080C002F0ADEF0BF02AC0B7
:1016D0007CF01EDF2BC07CF02CC07DF0B5DE54DE2C
:1016E000B0EF0BF0F86AD09E078EEA6AE96A246AC6
:1016F000286AC150C00B0F09C16E070EB46E206A74
:10170000040E216E0C0E226E13D4C2D40C0E856F03
:101710000FDD010E866F13DC37DE000E936E946EC4
:101720007C6B320E7D6F90DE840ED56EC00EF21291
:101730007C6BEEDE87EC07F0F9D6015211E0010E6A
:101740007C6FF8D601520CE0010E7C6F7E6B2A0E86
:101750007D6F806B400E7F6F99D701C06AF0B7D75D
:0E17600013DE010E866F9FEC07F0E4D7030046
:020000040030CA
:0E00000022CE390E000781000FC00FE00F4026
:00000001FF
;PIC18F2550
;CRC=A5AD  CREATED="26-мар-11 21:24"
