:100000004EEF0EF06896000C046ED8CF05F0E0CFEE
:1000100006F00001E9CF0CF0EACF07F0E1CF08F0DD
:10002000E2CF09F0D9CF0AF0DACF0BF0F3CF12F01C
:10003000F4CF13F0FACF14F0F5CF15F0F6CF16F099
:10004000F7CF17F000C00EF001C00FF002C010F0A3
:1000500003C011F0F2AA30EF00F0F2B430EF07F075
:10006000A0AA36EF00F0A1BA48EF06F00EC000F0EB
:100070000FC001F010C002F011C003F00CC0E9FF86
:1000800007C0EAFF078E08C0E1FF09C0E2FF0AC00F
:10009000D9FF0BC0DAFF12C0F3FF13C0F4FF14C086
:1000A000FAFF15C0F5FF16C0F6FF17C0F7FF0450A2
:1000B00006C0E0FF05C0D8FF1000F76ACA0FF66E51
:1000C000000EF7220900F5501200280C0106F76A0D
:1000D000DE0FF66E000EF7220900F5501200000246
:1000E000FFFFFFFFFFFFFFFFFFFFFFFFFFFFF76ABD
:1000F000FE0FF66E000EF7220900F55012004000C8
:1001000040000000000000000000000000000000AF
:100110000000000000000000000000000000F76A7E
:100120002E0FF66E010EF7220900F550120009029B
:10013000200001010080320904000002FFFFFF00DF
:100140000705810340000107050103400001F76A2C
:100150005E0FF66E010EF7220900F5501200010045
:10016000F76A700FF66E010EF7220900F5501200C3
:100170001201000200000040D80402D00001010278
:100180000001F76A920FF66E010EF7220900F55092
:100190001200040309040803530048004D001E0325
:1001A00052006100640069006F0042006F0061004E
:1001B000740020004300740072006C006D9269941A
:1001C00068A402D06894FCD754EF06F0400E0401F6
:1001D000016F040E036F100E026F880E006F046B28
:1001E000040E076F500E066F0001000C70A002D0C5
:1001F000EDDF7090689A5DEF06F06A6A689263EFCF
:1002000006F0AA91A9BFAA81A99FA951100803E2EB
:10021000000E016E17D0AAA10BD0036AA95157DFB7
:10022000FF0802E1000E01D0010E016E0BD00AD0D2
:10023000036AA9514CDFFF0802E1000E01D0010E54
:10024000016E00D0000CA951AB03F3CF01F0F4CF45
:1002500000F0AC03F3500026AA51AB03F35000208A
:10026000026E000C036AA851700FE96E0F0E032096
:10027000EA6EEF6AA8C0A9F0C4DF015222E0AA6BBF
:10028000A8C0A9F0AC6B080EAB6FDDDF01C0E9FFC1
:10029000040E0224EA6EEF6AAA6BA8C0A9F0AC6B48
:1002A000080EAB6FD0DF02C0AAF001C0A9F0040EA7
:1002B000A927000EAA23A9C0E9FF040EAA25EA6E09
:1002C000EF6A000C010EA76FA7510F0805E3A7C046
:1002D000A8F0C8DFA72BF8D7000C9D6B9D530AE14F
:1002E000036A9D51290FE96E000E0320EA6EEF6A42
:1002F0009D2BF4D71D6A010E1E6E1C6A000C6A6AE3
:10030000686A9F0E6B6E3D0E696E6E6ADBDFE5DF1D
:10031000160E706E68A602D075DEFCD76D9856DF9B
:10032000030E246E69EF06F0698468986D826FEFA2
:1003300006F0689C75EF06F0A2C025F0000CFF0ED9
:10034000256E000CA06B285226E0A0513F0823E345
:100350001F5005E0020A08E0010A0BE00FD0036A13
:100360002750DDDEA16F0AD0036A27500ADFA16F94
:1003700005D0036A2750F4DEA16F00D0272A280693
:10038000A051A02B500FE96E040EEA6ED8B0EA2AF5
:10039000A1C0EFFFD8D7285204E1A051400801E0E6
:1003A0001C6AA0C0A2F0C8DF000C276A1F6A040103
:1003B0001351010A000105E0030A08E0010A09E0FF
:1003C0001AD0120E286E030E1F6E17D0200E286E44
:1003D00014D0020E1F6E036A04011251200FE96E41
:1003E000000E0320EA6EEFCF27F0036A27500001CA
:1003F000C8DE286E02D0A3DF0CD00401175305E13C
:100400002850165D02E216C428F0010E1C6E000191
:1004100099DF2DEF03F09F5304E1040E246E52DFA9
:10042000C9D0050E246E040EA26F900EA16F010EAE
:10043000A06FA0510F08D8A0BDD0A0C0A8F012DFB7
:10044000A36B036AA05143DEFF0859E0040EA36FBB
:10045000D890A035036A4BDE0900F5CF03F0A46FF6
:1004600003C0A5F0AA6BA0C0A9F0AC6B080EAB6FDF
:10047000EADE01C0A7F0010E0124016E000E022089
:10048000036E01C0E9FF040E0324EA6EA4C0EFFF6F
:10049000AA6BA0C0A9F0AC6B080EAB6FD4DE01C094
:1004A000A7F0020E0124016E000E0220036E01C0AF
:1004B000E9FF040E0324EA6EA2C0ECFFED52A1C0D6
:1004C000EFFFD890A035036A12DE0900F5CF03F0E4
:1004D000A1270350A223880EA66FA5B1A681A5B3BC
:1004E000A683AA6BA0C0A9F0AC6B080EAB6FABDE05
:1004F00001C0E9FF040E0224EA6EA6C0EFFF036A02
:10050000A051E5DDFF0840E0A383AA6BA0C0A9F0DD
:10051000AC6B080EAB6F97DE02C0A8F001C0A7F06D
:10052000040EA727000EA823020EA725016E000EB9
:10053000A821036E01C0E9FF040E0324EA6EA2C0E5
:10054000ECFFED52A1C0EFFFD890A035036ACFDDDC
:100550000900F5CF03F0A1270350A223AA6BA0C086
:10056000A9F0AC6B080EAB6F6EDE02C0A8F001C044
:10057000A7F0040EA727000EA823A7C0E9FF040ECA
:10058000A825EA6E400EEF6EA351060802E10E0E9A
:10059000A36F036AA0519BDD0108D8A4A389036A55
:1005A000A051700FE96E0F0E0320EA6EA3C0EFFF9B
:1005B000A02B3FD727EF03F004011151000A0001DF
:1005C0000DE0010A14E0020A1EE0060A27E0030A11
:1005D0002CE00E0A2CE0010A30E03DD01EC050F4A1
:1005E0000401516B020E0001A26FA6DE36D0040199
:1005F000122D06D0010E1E160001A26B9DDE02D048
:1006000000019DDE2AD00401122D05D01E820001BA
:10061000A26B92DE02D0000192DE1FD0020E1C6E91
:1006200012C426F0A26B88DE18D0BFD616D01DC02B
:1006300050F4010EA26F80DE10D0040112510108A7
:1006400008E312C41DF012C49FF00001E4D6A26BAF
:1006500073DE000102D073DE00D048EF04F01DC04D
:100660009FF004011151000A000105E00A0A0BE0A5
:10067000010A26E037D00401506B516B020E0001D5
:10068000A26F5ADE31D09F5319E0010E9F5D036ABD
:100690005EDD016E0401145DD8A002D000010ED011
:1006A000036A1451290FE96E000E0320EA6EEFCFA2
:1006B00050F4010E0001A26F3FDE01D040DE14D0E5
:1006C0009F530EE0036A04011451290FE96E000ED6
:1006D0000320EA6E12C4EFFF0001A26B2DDE01D0F1
:1006E0002EDE02D02CDE00D048EF04F0A0919FBF98
:1006F000A0819F9FA0A117D0AA6B9FC0A9F0AC6B4F
:10070000080EAB6FA0DD02C0A2F001C0A1F0040E84
:10071000A127000EA223A1C0E9FF040EA225EA6EC4
:10072000880EEF6E0DD0AA6B9FC0A9F0AC6B080EBF
:10073000AB6F89DD01C0E9FF040E0224EA6EEF6AA7
:1007400016EF04F0A0919FBFA0819F9FA0A117D09A
:10075000AA6B9FC0A9F0AC6B080EAB6F74DD02C032
:10076000A2F001C0A1F0040EA127000EA223A1C097
:10077000E9FF040EA225EA6E840EEF6E0ED0AA6B7E
:100780009FC0A9F0AC6B080EAB6F5DDD01C0E9FF47
:10079000040E0224EA6E840EEF6E1CEF04F0A091AA
:1007A0009FBFA0819F9FA0A117D0AA6B9FC0A9F057
:1007B000AC6B080EAB6F47DD02C0A3F001C0A2F026
:1007C000040EA227000EA323A2C0E9FF040EA32556
:1007D000EA6EEFCFA1F00ED0AA6B9FC0A9F0AC6B70
:1007E000080EAB6F30DD01C0E9FF040E0224EA6E93
:1007F000EFCFA1F0A1AF02D0A1B502D0000E01D081
:10080000010E016E26EF04F014C4A9F0FADC0152C7
:1008100029E004011151010A000105E0020A09E082
:10082000030A0DE01DD014C49FF060D7A26B84DDD5
:1008300019D014C49FF086D7A26B7EDD13D00401BB
:10084000506B516B14C49FF00001A9D7015204E012
:10085000010E0401506F0001020EA26F6DDD02D087
:100860006EDD00D048EF04F01C6A040110517F0BCC
:10087000000A000105E0010A05E0030A05E006D0D0
:100880009BD606D0ECD604D0BFD702D058DD00D01E
:100890009DEF05F0AA6B9FC0A9F0AC6B080EAB6F83
:1008A000D2DC01C0E9FF040E0224EA6EEFCFA1F012
:1008B000A051020806E1A1AD02D0A06B02D0010E4A
:1008C000A06FA051030819E1840EA16FAA6B9FC00D
:1008D000A9F0AC6B080EAB6FB6DC02C0A5F001C08E
:1008E000A4F0040EA427000EA523A4C0E9FF040E63
:1008F000A525EA6E840EEF6E07D0A02D03D0C80E9A
:10090000A16F02D0880EA16FD8909F35036A77EC53
:1009100000F00900F5CF03F0A26F03C0A3F0AA6BAB
:100920009FC0A9F0AC6B080EAB6F8DDC01C0A4F0CA
:10093000010E0124016E000E0220036E01C0E9FFCA
:10094000040E0324EA6EA2C0EFFFA3B1A181A3B3FA
:10095000A183AA6B9FC0A9F0AC6B080EAB6F73DCD0
:1009600001C0E9FF040E0224EA6EA1C0EFFF000CF3
:10097000036AA451700FE96E0F0E0320EA6EEF5266
:1009800018E0AA6BA4C0A9F0AC6B080EAB6F5BDCDF
:1009900002C0A6F001C0A5F0040EA527000EA623F4
:1009A000A5C0E9FF040EA625EA6EEFCFA5F0A5AF1E
:1009B00002D0000E01D0010E016EE2EF04F09FC0E4
:1009C000A4F0D6D70152D8B47AD0AA6B9FC0A9F0B0
:1009D000AC6B080EAB6F37DC02C0A5F001C0A4F011
:1009E000040EA427000EA523010EA425016E000EFF
:1009F000A521036E01C0E9FF040E0324EA6EA0C026
:100A0000EFFFA25102081DE1AA6B9FC0A9F0AC6BD9
:100A1000080EAB6F18DC02C0A5F001C0A4F0040EF4
:100A2000A427000EA523A4C0E9FF040EA525EA6EA5
:100A3000EFCFA3F0A3AD02D0A26B02D0010EA26F44
:100A400018D0A251040815E1AA6B9FC0A9F0AC6BA5
:100A5000080EAB6F23EC01F001C0E9FF040E022485
:100A6000EA6EEFCFA3F0A3AD03D0010EA26F01D0C9
:100A7000A26BA22D03D0C80EA36F02D0880EA36F65
:100A8000A1B1A381A1B3A383AA6B9FC0A9F0AC6B52
:100A9000080EAB6F23EC01F002C0A5F001C0A4F07A
:100AA000040EA427000EA523A4C0E9FF040EA5256B
:100AB000EA6EA3C0EFFF010E016E03D000D0000E5E
:100AC000016E000C9F5300E1000CA0C06EFFA0530C
:100AD00003E0040E246E02D0020E246E75EF05F0C2
:100AE0001D6A1C6A26C0A0F0F0D781EF05F09F5365
:100AF00008E11C2C02D026DC04D01C50020801E1C5
:100B0000EFD7000C23309D6F9D339D331F0E9D1733
:100B1000235242E1040100513C0B00019E6F430E41
:100B20000401001700019E5134081EE10401045124
:100B3000800B01E0046B000197D66D98253C05D031
:100B40009F6B030EA06FA6DE0ED09F6B020EA06FF0
:100B5000A1DE2550FE0807E09F6BA16B25C0A0F029
:100B6000040EA26F2CDF17D09E51040814E19F6B76
:100B7000A9DF9F6B020EA06F8DDE2550FE080AE0F4
:100B8000253C01D007D09F6BA16B25C0A0F0010EC2
:100B9000A26F15DF00D07AD02350040814E1430E71
:100BA00004010417FF0E256E00019F6BA0DF253C9A
:100BB00001D008D09F6BA16B25C0A0F0020EA26FE0
:100BC000FEDE00D063D023B42AD0AA6B9DC0A9F06A
:100BD000AC6B080EAB6F23EC01F001C09FF001C0BD
:100BE00001F0040E0224036E01C09FF0A06FAA6BF7
:100BF0009DC0A9F0AC6B080EAB6F23EC01F001C0F7
:100C0000E9FF040E0224EA6EEF50430BA0C0EAFF96
:100C10009FC0E9FFEF6E9DC09FF054DF37D0AA6BF5
:100C20009DC0A9F0AC6B080EAB6F23EC01F002C0C5
:100C3000A0F001C09FF0040E9F27000EA0239FC0CC
:100C400001F0040EA025036E9FC09FF0A06FAA6B59
:100C50009DC0A9F0AC6B080EAB6F23EC01F002C095
:100C6000A2F001C0A1F0040EA127000EA223A1C092
:100C7000E9FF040EA225EA6EEF50430BA0C0EAFF85
:100C80009FC0E9FFEF6E9DC09FF031DF7FEF06F060
:100C9000A19A245201E139D0685237E068A404D007
:100CA00069A402D0DEEF00F06DA201D02ED068AAB8
:100CB00004D069AA02D0F6EF00F068A204D069A2BD
:100CC00002D0FDEF00F068A004D069A002D07FEF51
:100CD00001F068A804D069A802D094EF01F068ACD4
:100CE00004D069AC02D099EF01F09C6B68A608D0E3
:100CF00069A606D06CCF23F002EC00F003D701D038
:100D000004D09C519C2B0308F1E236EF00F06BA15C
:100D100039D09F6B010EA06F9F530CE1A05305E1EA
:100D2000939E8A9E949E8B9E04D0939E8A8E949EC0
:100D30008B8E0BD0A05305E1939C8A9C949C8B9C3A
:100D400004D0939C8A8C949C8B8C010E9F6FA06F17
:100D50009F530CE1A05305E1939E8A9E949E8B9E27
:100D600004D0939E8A8E949E8B8E0BD0A05305E167
:100D7000939C8A9C949C8B9C04D0939C8A8C949C7E
:100D80008B8C37D09F6BA06B9F530CE1A05305E178
:100D9000939E8A9E949E8B9E04D0939E8A8E949E50
:100DA0008B8E0BD0A05305E1939C8A9C949C8B9CCA
:100DB00004D0939C8A8C949C8B8C010E9F6FA06BAB
:100DC0009F530CE1A05305E1939E8A9E949E8B9EB7
:100DD00004D0939E8A8E949E8B8E0BD0A05305E1F7
:100DE000939C8A9C949C8B9C04D0939C8A8C949C0E
:100DF0008B8C6FC0AAF06EC0A9F0AC6B0A0EAB6F03
:100E000023EC01F00230736F0130726F7333723371
:100E100073337233733372337333723373337233A6
:100E2000030E731771C0AAF070C0A9F0AC6B0A0E64
:100E3000AB6F23EC01F00230756F0130746F7533C6
:100E40007433753374337533743375337433753366
:100E50007433030E7517010E776F860E766F000CD4
:100E600073C09DF072C09CF09E6B9D5303E19C513A
:100E700001080BE2010E9C5D006E000E9D59036E91
:100E800000C001F0026E24D023D09C519D111CE0C3
:100E90009EC09FF0A06B9F530CE1A05305E1939E71
:100EA0008A9E949E8B9E04D0939E8A8E949E8B8E57
:100EB0000BD0A05305E1939C8A9C949C8B9C04D0FE
:100EC000939C8A8C949C8B8C000E016E026E00D0D9
:100ED00002C073F001C072F075C09DF074C09CF048
:100EE000010E9E6F9D5303E19C5101080BE2010E20
:100EF0009C5D006E000E9D59036E00C001F0026EF5
:100F000024D023D09C519D111CE09EC09FF0A06B6B
:100F10009F530CE1A05305E1939E8A9E949E8B9E65
:100F200004D0939E8A8E949E8B8E0BD0A05305E1A5
:100F3000939C8A9C949C8B9C04D0939C8A8C949CBC
:100F40008B8C000E016E026E00D002C075F001C0E5
:100F500074F0765302E1775305E07651D8B4770701
:100F6000760701D0D4DEF29436EF00F025642564D4
:100F70002C2043313D256425252C2043323D25641A
:100F800025250A0049313D252E32666D732C2049F6
:100F9000323D252E32666D730A006D6A696A080E4D
:100FA0006F6E94503009946E246A196AF2BE198EDD
:100FB000F29E6DEC01F019BEF28EE0EF07F0EDD776
:100FC00005EF08F0196AF2BE198EF29E6DEC01F081
:100FD00019BEF28E6D6A140E6F6E696A6D86010E0F
:100FE000246EF6EF07F06DB601D0ECD7242C0BD0B1
:100FF0006DBA09D0686A696AA08AC00EF212110E31
:10100000696E020E246E000CDAD7EDDF2450020860
:10101000FCE164EF0EF0EA6A900EE96EEF500EE02C
:10102000050E016E006A002EFED7012EFBD72E0E94
:10103000006E002EFED700D0EF2EF2D7000C98B134
:1010400002D0899801D08988929898B302D0899A61
:1010500001D0898A929A98B502D08A9601D08A8660
:10106000939698B702D08A9801D08A889398000006
:101070008A849394020E006E002EFED700008A949C
:101080009394000C996B9288000E80B8010E99130E
:10109000928A000E80BA010E006ED8900036005081
:1010A00099139386000E81B6010E006E003600364D
:1010B000FC0E0016005099139388000E81B8010EA3
:1010C000006E003600360036F80E001600509913F8
:1010D00099C001F0000C9288928A938693888A8244
:1010E000939200008A8493940000CCDF01C098F0B2
:1010F0008A94939400008A84939400D000D0C2DF35
:1011000001C097F08A9493949298929A93969398A8
:101110009839006EF00E001600509711016E97EF8F
:1011200008F09394939093928A909390D4D701C0AF
:1011300097F001BEFBD7955302E18A9001D08A80D7
:10114000939000008A92939200008A949394963927
:10115000976F0F0E971797C098F071DF96510F0B8E
:10116000976F986F6CDF000C9298929A9396939871
:101170009394939093928A9093908A9293928A9464
:1011800093940F0E906F47DF010E7A6F7A51030828
:101190000AE3030E986F53DF986B51DF050E906FD3
:1011A0003ADF7A2BF3D7020E986F49DF986B47DF4F
:1011B000050E906F30DF7A6B7A5103080AE3036AF9
:1011C0007A515DEC00F07B6F956B966FAADF7A2BFE
:1011D000F3D71A6A1B6A66EF0EF0922D01D003D086
:1011E000400E936F01D0936B010E915D9327935145
:1011F0008009946F956B966F94DF010E915D1A6E66
:10120000010E925D1B6E000C8F51070A09E00B0A5C
:101210000CE0010A14E0070A1BE0020A2CE030D0BF
:10122000010E916F926FD9DF35D0956B010E966FDD
:1012300078DF020E906FEFDE1A6A1B6A2BD0010E68
:101240001B24906F010E916F90C092F0C6DF22D0E8
:101250001A501A2A130806E3010E956F200E966F96
:1012600060DFF6D7020E1B24906F010E916F90C0C5
:1012700092F0B3DF0FD0956B100E966F52DF0AD04D
:101280001A50130806E3010E956F8FC096F049DFE0
:101290001A2A00D0000C1D50016E000C8351016A07
:1012A000825D03E282C000F00CD0006A080E846FF9
:1012B000823700368351005CD8B0006E0136842F2F
:1012C000F7D7000C200E7DA9300E7E6F7CC000F099
:1012D0007CAF07D0001E002A00C07CF02D0E7E6F70
:1012E0007D8F01507CC082F0640E836FD7DF00C019
:1012F0007CF0300E01247F6F7CC082F00A0E836F79
:10130000CDDF300E0024816F300E0124806F7EC04F
:1013100000F07DA702D07DAF7D957DB90BD07DAF6C
:1013200022D07DB520D000C07FF07DB31CD000C09E
:1013300080F019D0300E7F5D16E100C07FF0200EE6
:101340007E6F7DA704D07D957D837DAF7D93300E2C
:10135000805D09E100C080F0200E7F6F7DA7F7D788
:101360007D937DAF7D917DA503D07EC08FF04CDF56
:101370007DA303D07FC08FF047DF7DA103D080C065
:101380008FF042DF81C08FF03FDF000C0900F6CF05
:1013900083F0F7CF84F0F5CF8FF036DF83C0F6FF10
:1013A00084C0F7FF822FF2D7000C8E0E006E7FC034
:1013B00001F07EC002F0036A015209E102C001F0AF
:1013C000026A080E005E015202E1006A08D0D8905D
:1013D00001BE04D0023601360006F9D7019E000C8A
:1013E0008251D8B4A5D08E6F8651D8B4A1D08E5F6B
:1013F00005E37F0E8E27D8B09BD006D0810E8E5F7E
:10140000D8A096D0D8B494D08EC000F0016A026AF9
:10141000036A8D6B83C08CF08C8F84C08BF085C089
:101420008AF0190E8E6F89518A5F0DE2010E8B5F73
:101430000AE28C5F08E28D5F06E28D2B8C2B8B2BF2
:1014400089518A2728D088518B5F12E2010E8C5F68
:101450000FE28D5F0DE28D2B8C2B88518B278951EC
:101460008A2719E38B2B17E18C2B15E18D2B13D0D9
:10147000875180098C5F0EE2010E8D5F0BE28D2B90
:10148000875180098C2788518B27E9E38C2BE7E172
:101490008D2BE5D703808E2F01D00BD0D8908A37C3
:1014A0008B378C378D37D8900336023601368F371D
:1014B000BAD78FA106D0D8900132023203328F33CF
:1014C00002D0000635E08FBF1ED0D8908A378B3708
:1014D0008C378D3789518A5F07E2010E8B5F04E2FA
:1014E0008C5F02E28D5F1AE388518B5F05E2010E8B
:1014F0008C5F02E28D5F12E3875180098C5F03E20B
:10150000010E8D5F0BE3032A09E1022A07E1012A9C
:1015100005E1002A0DE001320232033283C08EF071
:1015200087518E1B8EAF02D0018E06D0019E04D053
:10153000006A016A026A036A000C8F51D8B471D044
:10154000006E9351D8B46DD0002604E3810E0026BE
:1015500068E204D07F0E005E64E363E090C097F021
:101560009451971B908F948F92519603F4CF99F0DA
:1015700091519503F4CF03F0F3CF98F09603F35015
:101580009927F4509823000E032292519503F350AB
:101590009927F4509823000E026A032202229051E8
:1015A0009603F3509827F4500322000E0222905124
:1015B0009503F3500326F4500222000E016A012223
:1015C00092519403F3509827F4500322000E022204
:1015D000012291519403F3500326F4500222000E8D
:1015E000012290519403F3500226F4500122002A64
:1015F00001BE05D098370336023601360006000ECC
:1016000098AF0AD0032A02220122015005E10250BC
:1016100003E1035001E1002A97BF018E97AF019EBD
:1016200004D0006A016A026A036A92EF0BF08F51DC
:10163000B6088F6F036A90C093F0908FD890903364
:101640009133923303320232013200328F2FF6D7B8
:1016500093AF0BD0001E011E021E031E002AD8B439
:10166000012AD8B4022AD8B4032AA5EF0BF0D8B2C5
:1016700003D0EA6A970EE96E006A016A026A036A99
:10168000976B986B996B9A6B965195119411931176
:101690002CE0200E9B6FD8908F3790379137923780
:1016A0009737983799379A3796519A5D08E195514F
:1016B000995D05E19451985D02E19351975D0FE3C7
:1016C0009351975F9451D8A0943D985F9551D8A0BD
:1016D000953D995F9651D8A0963D9A5FD880003687
:1016E0000136023603369B2FD6D797C0EFFF98C03E
:1016F000ECFF99C0ECFF9AC0ECFF000CE950876F3B
:101700008651896F19E085C092F084C091F083C042
:1017100090F082C08FF0966B956B200E946F820EC6
:10172000936F0BD703C085F002C084F001C083F033
:1017300000C082F0892FE7D785C092F084C091F075
:1017400083C090F082C08FF072D703C085F002C0D2
:1017500084F001C083F000C082F085AF0DD0870710
:10176000878B821F831F841F851F822BD8B4832BF6
:10177000D8B4842BD8B4852B3B0E8E6F9A0E8D6F08
:10178000CA0E8C6F8B6B0A0E896F8651D8B4872B6B
:10179000D882EA6A820EE96E85C092F084C091F028
:1017A00083C090F082C08FF08EC096F08DC095F00F
:1017B0008CC094F08BC093F05ADF015000520FE1BF
:1017C0008629895D0CE087510CE00F0B895D01E0F3
:1017D00037E287BF35D087BD04D0200E2DD0200E34
:1017E000871787AB0CD0879B8651D8A487070050FA
:1017F000876F2D0E8F6F08DD8751006E876B8651C6
:10180000895D0AE10050876F2E0E8F6FFDDC8751D6
:10181000006E200E8717000E300E87AB0DD0879B11
:101820008651D8A487070050876F2D0E8F6FECDC90
:101830008751006E876B300E002600C08FF0E4DC0D
:10184000D8928EC092F08DC091F08CC090F08BC079
:101850008FF0966B956B946B0A0E936F08DF03C045
:101860008EF002C08DF001C08CF000C08BF0892F8B
:101870008FD7000C010E916F926FAFDC0CDD01C0B1
:101880007AF0000E6BB1010E7B6F01C07CF01F0E71
:101890007D6F18DD7BC07CF01F0E7D6F13DD700E39
:1018A000F66E0F0EF76E050E826F70DD6CC07CF069
:1018B0001F0E7D6F07DD250E8F6FA6DC790EF66E8D
:1018C0000F0EF76E050E826F61DD6DC07CF01F0E8E
:1018D0007D6FF8DC250E8F6F97DC0A0E8F6F94DC1E
:1018E0006FC07FF06EC07EF060DD00C07AF001C096
:1018F0007BF002C07CF003C07DF003C085F002C025
:1019000084F001C083F000C082F0896B886B480EC0
:10191000876F850E866F64DD00C07AF001C07BF0B2
:1019200002C07CF003C07DF071C07FF070C07EF01B
:101930003CDD00C07EF001C07FF002C080F003C03B
:1019400081F003C085F002C084F001C083F000C0C4
:1019500082F0896B886B480E876F850E866F40DD3D
:1019600000C07EF001C07FF002C080F003C081F0B3
:10197000490E8F6F49DC310E8F6F46DC3D0E8F6F45
:1019800043DC890EE96E7DC085F07CC084F07BC0AD
:1019900083F07AC082F0020E866FB0DE8B0EF66E98
:1019A0000F0EF76E070E826FF1DC890EE96E81C0B3
:1019B00085F080C084F07FC083F07EC082F0020E8C
:1019C000866F9CDE6D0E8F6F1FDC730E8F6F1CDCBD
:1019D0000A0E8F6F19DC000C000E6BB1010E7A5DE0
:1019E00008E06B917AB16B816BA102D0F28A01D0D1
:1019F000F29A000C016A026A006A036A815102E1EC
:101A0000805118E0100E826FD8907E377F370036F5
:101A100003368151035C02E18051005C07E3805191
:101A2000005ED8A003068151035ED88001360236DD
:101A3000822FEAD7000C7AC06CF07BC06DF0036A8D
:101A40007AC07CF003C07DF0196AF2BE198EF29E56
:101A5000010EAA6FC20EA96F03C0ACF07AC0ABF042
:101A600023EC01F019BEF28E02C07DF001C07CF0C3
:101A700002C07FF001C07EF0816B640E806FBADF20
:101A80000150320F6E6F000E02206F6F036A7BC031
:101A90007CF003C07DF0196AF2BE198EF29E010E31
:101AA000AA6FC20EA96F03C0ACF07BC0ABF023ECF1
:101AB00001F019BEF28E02C07DF001C07CF002C0C0
:101AC0007FF001C07EF0816B640E806F93DF015068
:101AD000320F706F000E0220716F196AF2BE198EFC
:101AE000F29E87EC06F019BEF28E000C036A7A5162
:101AF000700FE96E0F0E0320EA6EEF5219E0196ABB
:101B0000F2BE198EF29EAA6B7AC0A9F0AC6B080ED9
:101B1000AB6F23EC01F019BEF28E02C07CF001C065
:101B2000E9FF040E0224EA6EEFCF7BF07BAF02D018
:101B3000000E01D0010E016E86EF0EF0196AF2BEA2
:101B4000198EF29EAA6B7FC0A9F0AC6B080EAB6F2A
:101B500023EC01F019BEF28E01C089F0020E0124BF
:101B6000016E000E0220036E01C0E9FF040E032483
:101B7000EA6EECCF03F0ED52EFCF84F003C085F0B6
:101B8000196AF2BE198EF29EAA6B7FC0A9F0AC6BE7
:101B9000080EAB6F23EC01F019BEF28E01C089F084
:101BA000010E0124016E000E0220036E01C0E9FF48
:101BB000040E0324EA6EEF50036A876F03C088F0B7
:101BC000196AF2BE198EF29EAA6B7FC0A9F0AC6BA7
:101BD000080EAB6F23EC01F019BEF28E01C0E9FFD5
:101BE000040E0224EA6EEFCF86F086B1888186B3B8
:101BF00088838851835D08E303E18251875D04E2B5
:101C000088C083F087C082F081C0EAFF80C0E9FF0E
:101C100085C0E2FF84C0E1FF83C002F082C001F012
:101C2000015202E0022A02D0025206E0E6CFEEFFA5
:101C3000012EFCD7022EFAD782C001F083C002F039
:101C40002DEF0EF07AC07FF07CC081F07BC080F079
:101C50007EC083F07DC082F071D702C07EF001C0EB
:101C60007DF0196AF2BE198EF29E7AC09FF0020EC4
:101C7000A06F4AEC04F019BEF28E7DC001F07EC068
:101C800002F091EF0EF02AC07AF0A6DE2BC07AF0B7
:101C90002CC07BF0D0DEEEDD94EF0EF0F86AD09E23
:101CA000078EEA6AE96A246A286AC150C00B0F09E4
:101CB000C16E070EB46E206A040E216E0C0E226EE9
:101CC000796B786B04EF08F0B4EF08F00C0E8F6FAF
:101CD00004EC09F0010E906F0BEC08F0CBDD000E68
:101CE000936E946E7A6B78DE7A6B320E7B6FA3DE26
:101CF000C80ED56EF28AC00EF212F3EC07F04BEC70
:101D000009F0015211E0010E7A6FF0D601520CE099
:101D1000010E7A6F7C6B2A0E7B6F7E6B400E7D6F9F
:101D200091D701C06AF0AFD7A5DD640E906F0BECC0
:061D300008F0E3D70300F8
:020000040030CA
:0E0000003ACE390E008781000FC00FE00F408E
:00000001FF
;PIC18F2550
;CRC=03C2  CREATED="19-мар-11 22:07"
