:1000000043EF0BF06896000C046ED8CF05F0E0CFFC
:1000100006F00001E9CF0CF0EACF07F0E1CF08F0DD
:10002000E2CF09F0D9CF0AF0DACF0BF0F3CF12F01C
:10003000F4CF13F0FACF14F0F5CF15F0F6CF16F099
:10004000F7CF17F000C00EF001C00FF002C010F0A3
:1000500003C011F0F2AA30EF00F0F2B4D1EF06F0D5
:10006000A0AA36EF00F0A1BA48EF06F00EC000F0EB
:100070000FC001F010C002F011C003F00CC0E9FF86
:1000800007C0EAFF078E08C0E1FF09C0E2FF0AC00F
:10009000D9FF0BC0DAFF12C0F3FF13C0F4FF14C086
:1000A000FAFF15C0F5FF16C0F6FF17C0F7FF0450A2
:1000B00006C0E0FF05C0D8FF1000F76ACA0FF66E51
:1000C000000EF7220900F5501200280C0106F76A0D
:1000D000DE0FF66E000EF7220900F5501200000246
:1000E000FFFFFFFFFFFFFFFFFFFFFFFFFFFFF76ABD
:1000F000FE0FF66E000EF7220900F55012004000C8
:1001000040000000000000000000000000000000AF
:100110000000000000000000000000000000F76A7E
:100120002E0FF66E010EF7220900F550120009029B
:10013000200001010080320904000002FFFFFF00DF
:100140000705810340000107050103400001F76A2C
:100150005E0FF66E010EF7220900F5501200010045
:10016000F76A700FF66E010EF7220900F5501200C3
:100170001201000200000040D80402D00001010278
:100180000001F76A920FF66E010EF7220900F55092
:100190001200040309040803530048004D001E0325
:1001A00052006100640069006F0042006F0061004E
:1001B000740020004300740072006C006D9269941A
:1001C00068A402D06894FCD754EF06F0400E0401F6
:1001D000016F040E036F100E026F880E006F046B28
:1001E000040E076F500E066F0001000C70A002D0C5
:1001F000EDDF7090689A5DEF06F06A6A689263EFCF
:1002000006F09E919DBF9E819D9F9D51100803E227
:10021000000E016E17D09EA10BD0036A9D5157DFCF
:10022000FF0802E1000E01D0010E016E0BD00AD0D2
:10023000036A9D514CDFFF0802E1000E01D0010E60
:10024000016E00D0000C9D519F03F3CF01F0F4CF5D
:1002500000F0A003F35000269E519F03F3500020AE
:10026000026E000C036A9C51700FE96E0F0E0320A2
:10027000EA6EEF6A9CC09DF0C4DF015222E09E6BE3
:100280009CC09DF0A06B080E9F6FDDDF01C0E9FFF1
:10029000040E0224EA6EEF6A9E6B9CC09DF0A06B78
:1002A000080E9F6FD0DF02C09EF001C09DF0040ECB
:1002B0009D27000E9E239DC0E9FF040E9E25EA6E39
:1002C000EF6A000C010E9B6F9B510F0805E39BC06A
:1002D0009CF0C8DF9B2BF8D7000C916B91530AE17F
:1002E000036A9151290FE96E000E0320EA6EEF6A4E
:1002F000912BF4D71D6A010E1E6E1C6A000C6A6AEF
:10030000686A9F0E6B6E3D0E696E6E6ADBDFE5DF1D
:10031000160E706E68A602D075DEFCD76D9856DF9B
:10032000030E246E69EF06F0698468986D826FEFA2
:1003300006F0689C75EF06F096C025F0000CFF0EE5
:10034000256E000C946B285226E094513F0823E35D
:100350001F5005E0020A08E0010A0BE00FD0036A13
:100360002750DDDE956F0AD0036A27500ADF956FAC
:1003700005D0036A2750F4DE956F00D0272A28069F
:100380009451942B500FE96E040EEA6ED8B0EA2A0D
:1003900095C0EFFFD8D7285204E19451400801E0FE
:1003A0001C6A94C096F0C8DF000C276A1F6A04011B
:1003B0001351010A000105E0030A08E0010A09E0FF
:1003C0001AD0120E286E030E1F6E17D0200E286E44
:1003D00014D0020E1F6E036A04011251200FE96E41
:1003E000000E0320EA6EEFCF27F0036A27500001CA
:1003F000C8DE286E02D0A3DF0CD00401175305E13C
:100400002850165D02E216C428F0010E1C6E000191
:1004100099DF2DEF03F0935304E1040E246E52DFB5
:10042000C9D0050E246E040E966F900E956F010EC6
:10043000946F94510F08D8A0BDD094C09CF012DFE7
:10044000976B036A945143DEFF0859E0040E976FDF
:10045000D8909435036A4BDE0900F5CF03F0986F0E
:1004600003C099F09E6B94C09DF0A06B080E9F6F27
:10047000EADE01C09BF0010E0124016E000E022095
:10048000036E01C0E9FF040E0324EA6E98C0EFFF7B
:100490009E6B94C09DF0A06B080E9F6FD4DE01C0D0
:1004A0009BF0020E0124016E000E0220036E01C0BB
:1004B000E9FF040E0324EA6E96C0ECFFED5295C0EE
:1004C000EFFFD8909435036A12DE0900F5CF03F0F0
:1004D000952703509623880E9A6F99B19A8199B304
:1004E0009A839E6B94C09DF0A06B080E9F6FABDE4D
:1004F00001C0E9FF040E0224EA6E9AC0EFFF036A0E
:100500009451E5DDFF0840E097839E6B94C09DF019
:10051000A06B080E9F6F97DE02C09CF001C09BF09D
:10052000040E9B27000E9C23020E9B25016E000EDD
:100530009C21036E01C0E9FF040E0324EA6E96C0FD
:10054000ECFFED5295C0EFFFD8909435036ACFDDF4
:100550000900F5CF03F09527035096239E6B94C0B6
:100560009DF0A06B080E9F6F6EDE02C09CF001C074
:100570009BF0040E9B27000E9C239BC0E9FF040EFA
:100580009C25EA6E400EEF6E9751060802E10E0EB2
:10059000976F036A94519BDD0108D8A49789036A79
:1005A0009451700FE96E0F0E0320EA6E97C0EFFFB3
:1005B000942B3FD727EF03F004011151000A0001EB
:1005C0000DE0010A14E0020A1EE0060A27E0030A11
:1005D0002CE00E0A2CE0010A30E03DD01EC050F4A1
:1005E0000401516B020E0001966FA6DE36D00401A5
:1005F000122D06D0010E1E160001966B9DDE02D054
:1006000000019DDE2AD00401122D05D01E820001BA
:10061000966B92DE02D0000192DE1FD0020E1C6E9D
:1006200012C426F0966B88DE18D0BFD616D01DC037
:1006300050F4010E966F80DE10D0040112510108B3
:1006400008E312C41DF012C493F00001E4D6966BC7
:1006500073DE000102D073DE00D048EF04F01DC04D
:1006600093F004011151000A000105E00A0A0BE0B1
:10067000010A26E037D00401506B516B020E0001D5
:10068000966F5ADE31D0935319E0010E935D036AE1
:100690005EDD016E0401145DD8A002D000010ED011
:1006A000036A1451290FE96E000E0320EA6EEFCFA2
:1006B00050F4010E0001966F3FDE01D040DE14D0F1
:1006C00093530EE0036A04011451290FE96E000EE2
:1006D0000320EA6E12C4EFFF0001966B2DDE01D0FD
:1006E0002EDE02D02CDE00D048EF04F0949193BFB0
:1006F0009481939F94A117D09E6B93C09DF0A06BA3
:10070000080E9F6FA0DD02C096F001C095F0040EA8
:100710009527000E962395C0E9FF040E9625EA6EF4
:10072000880EEF6E0DD09E6B93C09DF0A06B080EEF
:100730009F6F89DD01C0E9FF040E0224EA6EEF6AB3
:1007400016EF04F0949193BF9481939F94A117D0D6
:100750009E6B93C09DF0A06B080E9F6F74DD02C06E
:1007600096F001C095F0040E9527000E962395C0D3
:10077000E9FF040E9625EA6E840EEF6E0ED09E6B96
:1007800093C09DF0A06B080E9F6F5DDD01C0E9FF77
:10079000040E0224EA6E840EEF6E1CEF04F09491B6
:1007A00093BF9481939F94A117D09E6B93C09DF0AB
:1007B000A06B080E9F6F47DD02C097F001C096F056
:1007C000040E9627000E972396C0E9FF040E972586
:1007D000EA6EEFCF95F00ED09E6B93C09DF0A06BAC
:1007E000080E9F6F30DD01C0E9FF040E0224EA6E9F
:1007F000EFCF95F095AF02D095B502D0000E01D0A5
:10080000010E016E26EF04F014C49DF0FADC0152D3
:1008100029E004011151010A000105E0020A09E082
:10082000030A0DE01DD014C493F060D7966B84DDED
:1008300019D014C493F086D7966B7EDD13D00401D3
:10084000506B516B14C493F00001A9D7015204E01E
:10085000010E0401506F0001020E966F6DDD02D093
:100860006EDD00D048EF04F01C6A040110517F0BCC
:10087000000A000105E0010A05E0030A05E006D0D0
:100880009BD606D0ECD604D0BFD702D058DD00D01E
:100890009DEF05F09E6B93C09DF0A06B080E9F6FBF
:1008A000D2DC01C0E9FF040E0224EA6EEFCF95F01E
:1008B0009451020806E195AD02D0946B02D0010E6E
:1008C000946F9451030819E1840E956F9E6B93C049
:1008D0009DF0A06B080E9F6FB6DC02C099F001C0BE
:1008E00098F0040E9827000E992398C0E9FF040E93
:1008F0009925EA6E840EEF6E07D0942D03D0C80EB2
:10090000956F02D0880E956FD8909335036A77EC77
:1009100000F00900F5CF03F0966F03C097F09E6BCF
:1009200093C09DF0A06B080E9F6F8DDC01C098F006
:10093000010E0124016E000E0220036E01C0E9FFCA
:10094000040E0324EA6E96C0EFFF97B1958197B32A
:1009500095839E6B93C09DF0A06B080E9F6F73DC18
:1009600001C0E9FF040E0224EA6E95C0EFFF000CFF
:10097000036A9851700FE96E0F0E0320EA6EEF5272
:1009800018E09E6B98C09DF0A06B080E9F6F5BDC1B
:1009900002C09AF001C099F0040E9927000E9A2324
:1009A00099C0E9FF040E9A25EA6EEFCF99F099AF4E
:1009B00002D0000E01D0010E016EE2EF04F093C0F0
:1009C00098F0D6D70152D8B47AD09E6B93C09DF0E0
:1009D000A06B080E9F6F37DC02C099F001C098F041
:1009E000040E9827000E9923010E9825016E000E23
:1009F0009921036E01C0E9FF040E0324EA6E94C03E
:100A0000EFFF965102081DE19E6B93C09DF0A06B15
:100A1000080E9F6F18DC02C099F001C098F0040E18
:100A20009827000E992398C0E9FF040E9925EA6ED5
:100A3000EFCF97F097AD02D0966B02D0010E966F74
:100A400018D09651040815E19E6B93C09DF0A06BE1
:100A5000080E9F6F23EC01F001C0E9FF040E022491
:100A6000EA6EEFCF97F097AD03D0010E966F01D0ED
:100A7000966B962D03D0C80E976F02D0880E976F95
:100A800095B1978195B397839E6B93C09DF0A06BB2
:100A9000080E9F6F23EC01F002C099F001C098F09E
:100AA000040E9827000E992398C0E9FF040E99259B
:100AB000EA6E97C0EFFF010E016E03D000D0000E6A
:100AC000016E000C935300E1000C94C06EFF945330
:100AD00003E0040E246E02D0020E246E75EF05F0C2
:100AE0001D6A1C6A26C094F0F0D781EF05F093537D
:100AF00008E11C2C02D026DC04D01C50020801E1C5
:100B0000EFD7000C2330916F913391331F0E911763
:100B1000235242E1040100513C0B0001926F430E4D
:100B2000040100170001925134081EE10401045130
:100B3000800B01E0046B000197D66D98253C05D031
:100B4000936B030E946FA6DE0ED0936B020E946F20
:100B5000A1DE2550FE0807E0936B956B25C094F04D
:100B6000040E966F2CDF17D09251040814E1936B9A
:100B7000A9DF936B020E946F8DDE2550FE080AE00C
:100B8000253C01D007D0936B956B25C094F0010EE6
:100B9000966F15DF00D07AD02350040814E1430E7D
:100BA00004010417FF0E256E0001936BA0DF253CA6
:100BB00001D008D0936B956B25C094F0020E966F10
:100BC000FEDE00D063D023B42AD09E6B91C09DF08E
:100BD000A06B080E9F6F23EC01F001C093F001C0E1
:100BE00001F0040E0224036E01C093F0946F9E6B1B
:100BF00091C09DF0A06B080E9F6F23EC01F001C027
:100C0000E9FF040E0224EA6EEF50430B94C0EAFFA2
:100C100093C0E9FFEF6E91C093F054DF37D09E6B25
:100C200091C09DF0A06B080E9F6F23EC01F002C0F5
:100C300094F001C093F0040E9327000E942393C008
:100C400001F0040E9425036E93C093F0946F9E6B95
:100C500091C09DF0A06B080E9F6F23EC01F002C0C5
:100C600096F001C095F0040E9527000E962395C0CE
:100C7000E9FF040E9625EA6EEF50430B94C0EAFF9D
:100C800093C0E9FFEF6E91C093F031DF7FEF06F084
:100C9000A19A245201E139D0685237E068A404D007
:100CA00069A402D0DEEF00F06DA201D02ED068AAB8
:100CB00004D069AA02D0F6EF00F068A204D069A2BD
:100CC00002D0FDEF00F068A004D069A002D07FEF51
:100CD00001F068A804D069A802D094EF01F068ACD4
:100CE00004D069AC02D099EF01F0906B68A608D0EF
:100CF00069A606D06CCF23F002EC00F003D701D038
:100D000004D09051902B0308F1E236EF00F06BB164
:100D100001D045D06F51715D19E303E16E51705DF3
:100D200015E36FC073F06EC072F06E51705D746F3A
:100D30006F517159756F400ED8807055766F1F0EC8
:100D40007155776F786B010E796F14D071C073F0A5
:100D500070C072F070516E5D746F71516F59756F24
:100D6000400ED8806E55766F1F0E6F55776F010E4F
:100D7000786F796B7451751104E1010E725F000E8A
:100D8000735B8B828B84721D906F731D916F902BA0
:100D9000D8B4912B91C0D7FF90C0D6FF7A6BD5EF16
:100DA00006F07A51020802E1B2D73BD07A5317E13C
:100DB00078C090F0905302E18B9201D08B947451E3
:100DC000751103E0010E7A6F09D0020E7A6F79C0B7
:100DD00090F0905302E18B9201D08B9409D079C0AE
:100DE00090F0905302E18B9201D08B94020E7A6FB7
:100DF0007A2D0CD0741D906F751D916F902BD8B407
:100E0000912B91C0D7FF90C0D6FF0BD0761D906F6D
:100E1000771D916F902BD8B4912B91C0D7FF90C0C4
:100E2000D6FFF29436EF00F06D6A696A080E6F6EB5
:100E300094503009946E246A196AF2BE198EF29E9B
:100E40006DEC01F019BEF28E27EF07F0EDD74CEFF5
:100E500007F0196AF2BE198EF29E6DEC01F019BE10
:100E6000F28E6D6A140E6F6E696A6D86010E246EC5
:100E70003DEF07F06DB601D0ECD7242C0BD06DBA46
:100E800009D0686A696AA08AC00EF212110E696EF2
:100E9000020E246E000CDAD7EDDF24500208FCE1CC
:100EA00057EF0BF0EA6A850EE96EEF500EE0050E83
:100EB000016E006A002EFED7012EFBD72E0E006EAB
:100EC000002EFED700D0EF2EF2D7000C8DB102D04D
:100ED000899801D0898892988DB302D0899A01D0DF
:100EE000898A929A8DB502D08A9601D08A86939685
:100EF0008DB702D08A9801D08A88939800008A849E
:100F00009394020E006E002EFED700008A949394F4
:100F1000000C8E6B9288000E80B8010E8E13928AA0
:100F2000000E80BA010E006ED890003600508E136D
:100F30009386000E81B6010E006E00360036FC0E60
:100F4000001600508E139388000E81B8010E006EBB
:100F5000003600360036F80E001600508E138EC094
:100F600001F0000C9288928A938693888A829392E9
:100F700000008A8493940000CCDF01C08DF08A9435
:100F8000939400008A84939400D000D0C2DF01C003
:100F90008CF08A9493949298929A939693988D3920
:100FA000006EF00E001600508C11016EDEEF07F09F
:100FB0009394939093928A909390D4D701C08CF09D
:100FC00001BEFBD78A5302E18A9001D08A809390B8
:100FD00000008A92939200008A9493948B398C6FCC
:100FE0000F0E8C178CC08DF071DF8B510F0B8C6F37
:100FF0008D6F6CDF000C9298929A939693989394CD
:10100000939093928A9093908A9293928A949394D5
:101010000F0E856F47DF010E7B6F7B5103080AE3DC
:10102000030E8D6F53DF8D6B51DF050E856F3ADF39
:101030007B2BF3D7020E8D6F49DF8D6B47DF050EDB
:10104000856F30DF7B6B7B5103080AE3036A7B51BA
:101050005DEC00F07C6F8A6B8B6FAADF7B2BF3D784
:101060001A6A1B6A58EF0BF0872D01D003D0400E8F
:10107000886F01D0886B010E865D882788518009B2
:10108000896F8A6B8B6F94DF010E865D1A6E010E7D
:10109000875D1B6E000C8451070A09E00B0A0CE007
:1010A000010A14E0070A1BE0020A2CE030D0010E0E
:1010B000866F876FD9DF35D08A6B010E8B6F78DF33
:1010C000020E856FEFDE1A6A1B6A2BD0010E1B24FD
:1010D000856F010E866F85C087F0C6DF22D01A505B
:1010E0001A2A130806E3010E8A6F200E8B6F60DF49
:1010F000F6D7020E1B24856F010E866F85C087F020
:10110000B3DF0FD08A6B100E8B6F52DF0AD01A50EC
:10111000130806E3010E8A6F84C08BF049DF1A2A98
:1011200000D0000CEACF83F0E9CF82F07CAF08D08A
:10113000828F82A9822B7B1F7C1F7B2BD8B47C2BB8
:101140007C39F0097E6F7E27E20F7F6F320F816F4F
:101150007C510F0B7F277F278127E90F806F802726
:1011600080277B390F0B8027812780378137811FAC
:1011700081377B510F0B81277E37070E7D6F0A0E5B
:1011800080078127FDE37F078027FDE37E077F2718
:10119000FDE37D077E27FDE3EA6A7D0EE96E070E1B
:1011A0008215829DE906821507E182B9E92A82B992
:1011B00003D0200E006E1CD0E926810EE95CD8B465
:1011C000828DEF50006E08E182BD06D082B91BD03F
:1011D00082B702D0200E0BD082AF06D02D0E006E4B
:1011E000ED50829D829F04D082878299300E002626
:1011F000EACF7CF0E9CF7BF000C084F04CDF7CC00C
:10120000EAFF7BC0E9FFEE5082ADD7D7000C8251D8
:10121000016A815D03E281C000F00CD0006A080E13
:10122000836F813700368251005CD8B0006E013682
:10123000832FF7D7000C200E7CA9300E7D6F7BC06A
:1012400000F07BAF07D0001E002A00C07BF02D0EFF
:101250007D6F7C8F01507BC081F0640E826FD7DF81
:1012600000C07BF0300E01247E6F7BC081F00A0E3F
:10127000826FCDDF300E0024806F300E01247F6F2F
:101280007DC000F07CA702D07CAF7C957CB90BD0F0
:101290007CAF22D07CB520D000C07EF07CB31CD0C7
:1012A00000C07FF019D0300E7E5D16E100C07EF0E8
:1012B000200E7D6F7CA704D07C957C837CAF7C93D3
:1012C000300E7F5D09E100C07FF0200E7E6F7CA7AD
:1012D000F7D77C937CAF7C917CA503D07DC084F054
:1012E000DADE7CA303D07EC084F0D5DE7CA103D0FF
:1012F0007FC084F0D0DE80C084F0CDDE000C010E13
:10130000866F876FB1DE100EE96E6FC07CF06EC025
:101310007BF008DF2C0E846FBEDE200E846FBBDEF8
:10132000100EE96E71C07CF070C07BF0FBDE0A0E1F
:10133000846FB1DE100EE96E73C07CF072C07BF07A
:10134000F1DE2C0E846FA7DE200E846FA4DE100E5B
:10135000E96E75C07CF074C07BF0E4DE2C0E846F07
:101360009ADE200E846F97DE100EE96E77C07CF057
:1013700076C07BF0D7DE2C0E846F8DDE200E846F5E
:101380008ADE78C07BF01F0E7C6F55DF2C0E846FD9
:1013900082DE200E846F7FDE79C07BF01F0E7C6FB3
:1013A0004ADF0A0E846F77DE000C016A026A006A67
:1013B000036A825102E1815118E0100E836FD890C8
:1013C0007F378037003603368251035C02E181515A
:1013D000005C07E38151005ED8A003068251035EE2
:1013E000D88001360236832FEAD7000C7BC06CF020
:1013F0007CC06DF0036A7BC07DF003C07EF0196A8B
:10140000F2BE198EF29E9E6B500E9D6F03C0A0F02F
:101410007BC09FF023EC01F019BEF28E02C07EF07B
:1014200001C07DF002C080F001C07FF0826B640ECD
:10143000816FBBDF02C003F00150460F016E000E4A
:10144000032201346E6F03346F6F6E376F37FC0EFB
:101450006E17036A7CC07DF003C07EF0196AF2BE8D
:10146000198EF29E9E6B640E9D6F03C0A0F07CC02F
:101470009FF023EC01F019BEF28E02C07EF001C095
:101480007DF002C080F001C07FF0826B640E816F3E
:101490008CDF02C003F00150640F016E000E0322C6
:1014A0000134706F0334716F70377137FC0E701731
:1014B000000C000E6BB1010E7B5D08E06B917BB1FF
:1014C0006B816BA102D0F28A01D0F29A000C1D5000
:1014D000016E70EF0BF0036A7B51700FE96E0F0E17
:1014E0000320EA6EEF5219E0196AF2BE198EF29EDD
:1014F0009E6B7BC09DF0A06B080E9F6F23EC01F0EC
:1015000019BEF28E02C07DF001C0E9FF040E022474
:10151000EA6EEFCF7CF07CAF02D0000E01D0010E5E
:10152000016E75EF0BF0196AF2BE198EF29E9E6B7A
:1015300080C09DF0A06B080E9F6F23EC01F019BED8
:10154000F28E01C08AF0020E0124016E000E02200C
:10155000036E01C0E9FF040E0324EA6EECCF03F032
:10156000ED52EFCF85F003C086F0196AF2BE198EF6
:10157000F29E9E6B80C09DF0A06B080E9F6F23ECC7
:1015800001F019BEF28E01C08AF0010E0124016E35
:10159000000E0220036E01C0E9FF040E0324EA6E70
:1015A000EF50036A886F03C089F0196AF2BE198E82
:1015B000F29E9E6B80C09DF0A06B080E9F6F23EC87
:1015C00001F019BEF28E01C0E9FF040E0224EA6E9A
:1015D000EFCF87F087B1898187B389838951845D93
:1015E00008E303E18351885D04E289C084F088C088
:1015F00083F082C0EAFF81C0E9FF86C0E2FF85C0B8
:10160000E1FF84C002F083C001F0015202E0022A2F
:1016100002D0025206E0E6CFEEFF012EFCD7022EEA
:10162000FAD783C001F084C002F022EF0BF07BC038
:1016300080F07DC082F07CC081F07FC084F07EC0ED
:1016400083F071D702C07FF001C07EF0196AF2BE4C
:10165000198EF29E7BC093F0020E946F4AEC04F058
:1016600019BEF28E7EC001F07FC002F080EF0BF059
:101670002AC07BF01EDF2BC07BF02CC07CF0B6DED6
:101680003EDE83EF0BF0F86AD09E078EEA6AE96AC5
:10169000246A286AC150C00B0F09C16E070EB46ED0
:1016A000206A040E216E0C0E226E4BEF07F0A3D4BD
:1016B0000C0E846FF0DC010E856F52EC07F01FDE1C
:1016C000000E936E946E7B6B320E7C6F8FDE840EF9
:1016D000D56EC00EF2127B6BECDE3AEC07F0F7D65B
:1016E000015211E0010E7B6FF6D601520CE0010EA3
:1016F0007B6F7D6B2A0E7C6F7F6B400E7E6F97D762
:1017000001C06AF0B5D7FBDD010E856F52EC07F022
:04171000E4D7030017
:020000040030CA
:0E00000022CE390E000781000FC00FE00F4026
:00000001FF
;PIC18F2550
;CRC=E878  CREATED="26-мар-11 20:03"
