:0400000089EF06F08E
:08000800046ED8CF05F0E0CF33
:1000100006F00001E9CF0CF0EACF07F0E1CF08F0DD
:10002000E2CF09F0D9CF0AF0DACF0BF0F3CF12F01C
:10003000F4CF13F0FACF14F0F5CF15F0F6CF16F099
:10004000F7CF17F000C00EF001C00FF002C010F0A3
:1000500003C011F0F2AA30EF00F0F2B4C8EF00F0E4
:100060000EC000F00FC001F010C002F011C003F08C
:100070000CC0E9FF07C0EAFF078E08C0E1FF09C016
:10008000E2FF0AC0D9FF0BC0DAFF12C0F3FF13C0B2
:10009000F4FF14C0FAFF15C0F5FF16C0F6FF17C035
:1000A000F7FF045006C0E0FF05C0D8FF1000F76A54
:1000B000BE0FF66E000EF7220900F5501200280C54
:1000C00001064F50070B006E4F30016E01320132B6
:1000D0001F0E011601505124E96E000E5220EA6EE7
:1000E000016A012A002A01D00136002EFDD75052A4
:1000F00003E00150EF1203D0011E0150EF16000C77
:100100004C504E02F3CF01F0F4CF00F04F02F35009
:1001100000264D504E02F3500020026E000C939EBC
:100120008A8E94948B841FC04DF01EC04CF04F6A91
:100130000A0E4E6EE5DF0230236E0130226E23324E
:10014000223223322232233222322332223223320B
:100150002232030E231621C04DF020C04CF04F6A0E
:100160000A0E4E6ECDDF0230256E0130246E253230
:1001700024322532243225322432253224322532CB
:100180002432030E2516010E276E860E266E000CF5
:1001900023C04DF022C04CF00F0E4E6E4D5203E1C5
:1001A0004C5001080BE2010E4C5C006E000E4D58E5
:1001B000036E00C001F0026E10D00FD04C504D10F5
:1001C00008E04EC04FF0506A0F0E526E890E516E0D
:1001D00078DF000E016E026E00D002C023F001C075
:1001E00022F025C04DF024C04CF0120E4E6E4D5240
:1001F00003E14C5001080BE2010E4C5C006E000E56
:100200004D58036E00C001F0026E10D00FD04C505C
:100210004D1008E04EC04FF0506A0F0E526E890E1E
:10022000516E4FDF000E016E026E00D002C025F04D
:1002300001C024F0265202E1275205E02650D8B42E
:100240002706260601D06BDFF29430EF00F0433131
:100250003D256425252C2043323D256425250A00B3
:1002600043313D252E32666D732C2043323D252EC1
:1002700032666D730A00EA6A400EE96EEF500EE0D6
:10028000050E016E006A002EFED7012EFBD72E0E42
:10029000006E002EFED700D0EF2EF2D7000C48B033
:1002A00002D0899801D08988929848B202D0899A60
:1002B00001D0898A929A48B402D08A9601D08A865F
:1002C000939648B602D08A9801D08A889398000005
:1002D0008A849394020E006E002EFED700008A944A
:1002E0009394000C496A9288000E80B8010E49125E
:1002F000928A000E80BA010E006ED890003600502F
:1003000049129386000E81B6010E006E003600364B
:10031000FC0E0016005049129388000E81B8010EA1
:10032000006E003600360036F80E001600504912F6
:1003300049C001F0000C9288928A938693888A8241
:10034000939200008A8493940000CCDF01C048F0AF
:100350008A94939400008A84939400D000D0C2DFE2
:1003600001C047F08A9493949298929A93969398A6
:100370004838006EF00E001600504710016EC7EFAF
:1003800001F09394939093928A909390D4D701C064
:1003900047F001BEFBD7455202E18A9001D08A8026
:1003A000939000008A92939200008A949394463826
:1003B000476E0F0E471647C048F071DF46500F0BCF
:1003C000476E486E6CDF000C9298929A93969398C1
:1003D0009394939093928A9093908A9293928A9412
:1003E00093940F0E406E47DF010E2A6E2A500308C9
:1003F0000AE3030E486E53DF486A51DF050E406E74
:100400003ADF2A2AF3D7020E486E49DF486A47DFEF
:10041000050E406E30DF2A6A2A50030809E3036A9A
:100420002A5045DE2B6E456A466EABDF2A2AF4D78A
:100430001A6A1B6A98EF06F0422C01D003D0400ED6
:10044000436E01D0436A010E415C4326435080094C
:10045000446E456A466E95DF010E415C1A6E010ED0
:10046000425C1B6E000C3F50070A09E00B0A0CE0CF
:10047000010A14E0070A1BE0020A2CE030D0010E4A
:10048000416E426ED9DF35D0456A010E466E79DF86
:10049000020E406EF0DE1A6A1B6A2BD0010E1B247E
:1004A000406E010E416E40C042F0C6DF22D01A50AD
:1004B0001A2A130806E3010E456E200E466E61DF10
:1004C000F6D7020E1B24406E010E416E40C042F072
:1004D000B3DF0FD0456A100E466E53DF0AD01A50B4
:1004E000130806E3010E456E3FC046F04ADF1A2AA4
:1004F00000D0000C016A026A006A036A335002E10C
:10050000325018E0100E346ED89030363136003646
:1005100003363350035C02E13250005C07E3325093
:10052000005ED8A003063350035ED8800136023641
:10053000342EEAD7000C2CC01CF02DC01DF0036A2D
:100540002CC02EF003C02FF0196AF2BE198EF29E55
:10055000010E4D6EC20E4C6E03C04FF02CC04EF01B
:10056000CFDD19BEF28E02C02FF001C02EF002C006
:1005700031F001C030F0336A640E326EBBDF0150DF
:10058000320F1E6E000E02201F6E036A2DC02EF069
:1005900003C02FF0196AF2BE198EF29E010E4D6E45
:1005A000C20E4C6E03C04FF02DC04EF0A9DD19BE37
:1005B000F28E02C02FF001C02EF002C031F001C057
:1005C00030F0336A640E326E95DF0150320F206EC8
:1005D000000E0220216E196AF2BE198EF29E9FDD76
:1005E00019BEF28E000C3150016A305C03E230C05B
:1005F00000F00CD0006A080E326E303600363150F2
:10060000005CD8B0006E0136322EF7D7000C200EF9
:100610002BA8300E2C6E2AC000F02AAE07D0001E88
:10062000002A00C02AF02D0E2C6E2B8E01502AC0FD
:1006300030F0640E316ED7DF00C02AF0300E012496
:100640002D6E2AC030F00A0E316ECDDF300E002440
:100650002F6E300E01242E6E2CC000F02BA602D07F
:100660002BAE2B942BB80BD02BAE22D02BB420D09A
:1006700000C02DF02BB21CD000C02EF019D0300ECF
:100680002D5C16E100C02DF0200E2C6E2BA604D0A0
:100690002B942B822BAE2B92300E2E5C09E100C0E6
:1006A0002EF0200E2D6E2BA6F7D72B922BAE2B9073
:1006B0002BA403D02CC03FF0D6DE2BA203D02DC03C
:1006C0003FF0D1DE2BA003D02EC03FF0CCDE2FC0F8
:1006D0003FF0C9DE000C0900F6CF33F0F7CF34F05D
:1006E000F5CF3FF0C0DE33C0F6FF34C0F7FF322E47
:1006F000F2D7000C8E0E006E2FC001F02EC002F05B
:10070000036A015209E102C001F0026A080E005EAC
:10071000015202E1006A08D0D89001BE04D002362E
:1007200001360006F9D7019E000C3250D8B4A5D08E
:100730003E6E3650D8B4A1D03E5E05E37F0E3E2615
:10074000D8B09BD006D0810E3E5ED8A096D0D8B44B
:1007500094D03EC000F0016A026A036A3D6A33C069
:100760003CF03C8E34C03BF035C03AF0190E3E6E82
:1007700039503A5E0DE2010E3B5E0AE23C5E08E251
:100780003D5E06E23D2A3C2A3B2A39503A2628D0D3
:1007900038503B5E12E2010E3C5E0FE23D5E0DE220
:1007A0003D2A3C2A38503B2639503A2619E33B2A49
:1007B00017E13C2A15E13D2A13D0375080093C5EF1
:1007C0000EE2010E3D5E0BE23D2A375080093C26C9
:1007D00038503B26E9E33C2AE7E13D2AE5D7038090
:1007E0003E2E01D00BD0D8903A363B363C363D36C3
:1007F000D8900336023601363F36BAD73FA006D02E
:10080000D8900132023203323F3202D0000635E086
:100810003FBE1ED0D8903A363B363C363D36395036
:100820003A5E07E2010E3B5E04E23C5E02E23D5EA0
:100830001AE338503B5E05E2010E3C5E02E23D5E8B
:1008400012E3375080093C5E03E2010E3D5E0BE38C
:10085000032A09E1022A07E1012A05E1002A0DE045
:1008600001320232033233C03EF037503E1A3EAE00
:1008700002D0018E06D0019E04D0006A016A026A8D
:10088000036A000C3F50D8B471D0006E4350D8B406
:100890006DD0002604E3810E002668E204D07F0EAE
:1008A000005E64E363E040C047F04450471A408E66
:1008B000448E42504602F4CF49F041504502F4CFF5
:1008C00003F0F3CF48F04602F3504926F450482293
:1008D000000E032242504502F3504926F4504822AC
:1008E000000E026A0322022240504602F3504826BC
:1008F000F4500322000E022240504502F35003261A
:10090000F4500222000E016A012242504402F350C8
:100910004826F4500322000E0222012241504402D4
:10092000F3500326F4500222000E012240504402EC
:10093000F3500226F4500122002A01BE05D04836A9
:100940000336023601360006000E48AE0AD0032AEE
:1009500002220122015005E1025003E1035001E1AE
:10096000002A47BE018E47AE019E04D0006A016A8C
:10097000026A036A37EF05F03F50B6083F6E036A1C
:1009800040C043F0408ED890403241324232033270
:100990000232013200323F2EF6D743AE0BD0001E9A
:1009A000011E021E031E002AD8B4012AD8B4022A4E
:1009B000D8B4032A4AEF05F0D8B203D0EA6A470E4A
:1009C000E96E006A016A026A036A476A486A496A0C
:1009D0004A6A46504510441043102CE0200E4B6EDE
:1009E000D8903F364036413642364736483649364B
:1009F0004A3646504A5C08E14550495C05E144509E
:100A0000485C02E14350475C0FE34350475E44506B
:100A1000D8A0443C485E4550D8A0453C495E46506D
:100A2000D8A0463C4A5ED8800036013602360336EE
:100A30004B2ED6D747C0EFFF48C0ECFF49C0ECFFB4
:100A40004AC0ECFF000CE950376E3650396E19E0A1
:100A500035C042F034C041F033C040F032C03FF006
:100A6000466A456A200E446E820E436E0BD703C061
:100A700035F002C034F001C033F000C032F0392E3E
:100A8000E7D735C042F034C041F033C040F032C047
:100A90003FF072D703C035F002C034F001C033F02C
:100AA00000C032F035AE0DD03706378A321E331E05
:100AB000341E351E322AD8B4332AD8B4342AD8B4D6
:100AC000352A3B0E3E6E9A0E3D6ECA0E3C6E3B6A58
:100AD0000A0E396E3650D8B4372AD882EA6A320EF6
:100AE000E96E35C042F034C041F033C040F032C04E
:100AF0003FF03EC046F03DC045F03CC044F03BC036
:100B000043F05ADF015000520FE13628395C0CE007
:100B100037500CE00F0B395C01E037E237BE35D0BF
:100B200037BC04D0200E2DD0200E371637AA0CD09B
:100B3000379A3650D8A437060050376E2D0E3F6EC8
:100B400092DC3750006E376A3650395C0AE100504B
:100B5000376E2E0E3F6E87DC3750006E200E371634
:100B6000000E300E37AA0DD0379A3650D8A437066B
:100B70000050376E2D0E3F6E76DC3750006E376AB0
:100B8000300E002600C03FF06EDCD8923EC042F02E
:100B90003DC041F03CC040F03BC03FF0466A456A72
:100BA000446A0A0E436E08DF03C03EF002C03DF007
:100BB00001C03CF000C03BF0392E8FD7000C010E75
:100BC000416E426E39DC430E3F6E4DDC310E3F6E9E
:100BD0004ADC3D0E3F6E47DC1CC02AF01F0E2B6E18
:100BE00016DD250E3F6E3FDC550EF66E020EF76EDB
:100BF000050E326E70DD1DC02AF01F0E2B6E07DD54
:100C0000250E3F6E30DC0A0E3F6E2DDC1FC02FF02C
:100C10001EC02EF06FDD00C02AF001C02BF002C014
:100C20002CF003C02DF003C035F002C034F001C039
:100C300033F000C032F0396A386A480E376E850EDC
:100C4000366E73DD00C02AF001C02BF002C02CF01C
:100C500003C02DF021C02FF020C02EF04BDD00C0CE
:100C60002EF001C02FF002C030F003C031F003C0FD
:100C700035F002C034F001C033F000C032F0396A00
:100C8000386A480E376E850E366E4FDD00C02EF086
:100C900001C02FF002C030F003C031F0430E3F6EB0
:100CA00033EC02F0310E3F6E33EC02F03D0E3F6E3E
:100CB00033EC02F0890EE96E2DC035F02CC034F013
:100CC0002BC033F02AC032F0020E366EBCDE670E47
:100CD000F66E020EF76E070E326EFDDC890EE96EBF
:100CE00031C035F030C034F02FC033F02EC032F0B8
:100CF000020E366EA8DE6D0E3F6E33EC02F0730E00
:100D00003F6E33EC02F00A0E3F6E33EC02F0A9EFB7
:100D100006F0F86AD09E078EEA6AE96AC150C00BF5
:100D20000F09C16E070EB46E296A286AE4EF01F05C
:100D30000C0E3F6E33EC02F0000E936E946E2C6A34
:100D40002D6A9BEC02F0C80ED56EF28AC00EF2122C
:100D500036D7640E406E3BEC01F0282AD8B4292A1D
:100D600029C031F028C030F0336A050E326E7AECBB
:100D700002F0005003100BE1010E1C242A6E010E3C
:100D80001D242B6E2AC02CF02D6E9BEC02F0E0D7B8
:020D900003005E
:020000040030CA
:0E0000003ACE390E008781000FC00FE00F408E
:00000001FF
;PIC18F2550
;CRC=8F5E  CREATED="13-мар-11 12:59"
