:10000000C2EF0AF06896000C046ED8CF05F0E0CF7E
:1000100006F00001E9CF0CF0EACF07F0E1CF08F0DD
:10002000E2CF09F0D9CF0AF0DACF0BF0F3CF12F01C
:10003000F4CF13F0FACF14F0F5CF15F0F6CF16F099
:10004000F7CF17F000C00EF001C00FF002C010F0A3
:1000500003C011F0A0AA30EF00F0A1BA42EF06F001
:100060000EC000F00FC001F010C002F011C003F08C
:100070000CC0E9FF07C0EAFF078E08C0E1FF09C016
:10008000E2FF0AC0D9FF0BC0DAFF12C0F3FF13C0B2
:10009000F4FF14C0FAFF15C0F5FF16C0F6FF17C035
:1000A000F7FF045006C0E0FF05C0D8FF1000F76A54
:1000B000BE0FF66E000EF7220900F5501200000286
:1000C000FFFFFFFFFFFFFFFFFFFFFFFFFFFFF76ADD
:1000D000DE0FF66E000EF7220900F5501200400008
:1000E00040000000000000000000000000000000D0
:1000F0000000000000000000000000000000F76A9F
:100100000E0FF66E010EF7220900F55012000902DB
:10011000200001010080320904000002FFFFFF00FF
:100120000705810340000107050103400001F76A4C
:100130003E0FF66E010EF7220900F5501200010085
:10014000F76A500FF66E010EF7220900F550120003
:100150001201000200000040D80402D00001010298
:100160000001F76A720FF66E010EF7220900F550D2
:100170001200040309040803530048004D001E0345
:1001800052006100640069006F0042006F0061006E
:10019000740020004300740072006C00F76AAC0F1A
:1001A000F66E010EF7220900F5501200280C010628
:1001B0006D92699468A402D06894FCD74EEF06F063
:1001C000400E0401016F040E036F100E026F880EC3
:1001D000006F046B040E076F500E066F0001000CD9
:1001E00070A002D0EDDF7090689A57EF06F06A6A4F
:1001F00068925DEF06F0939192BF9381929F925126
:10020000100803E2000E016E17D093A10BD0036A11
:1002100092514DDFFF0802E1000E01D0010E016E88
:100220000BD00AD0036A925142DFFF0802E1000EB0
:1002300001D0010E016E00D0000C92519403F3CF57
:1002400001F0F4CF00F09503F3500026935194038E
:10025000F3500020026E000C036A9151700FE96E9A
:100260000F0E0320EA6EEF6A91C092F0C4DF0152D4
:1002700022E0936B91C092F0956B080E946FDDDFD6
:1002800001C0E9FF040E0224EA6EEF6A936B91C08D
:1002900092F0956B080E946FD0DF02C093F001C00E
:1002A00092F0040E9227000E932392C0E9FF040EF1
:1002B0009325EA6EEF6A000C010E906F90510F08C3
:1002C00005E390C091F0C8DF902BF8D7000C866B47
:1002D00086530AE1036A8651270FE96E000E032058
:1002E000EA6EEF6A862BF4D71B6A010E1C6E1A6A3F
:1002F000000C6A6A686A9F0E6B6E3D0E696E6E6ACC
:10030000DBDFE5DF160E706E68A602D07BDEFCD761
:100310006D9856DF030E226E63EF06F069846898CD
:100320006D8269EF06F0689C6FEF06F08BC023F0DA
:10033000000CFF0E236E000C896B265226E08951BB
:100340003F0823E31D5005E0020A08E0010A0BE024
:100350000FD0036A2550D3DE8A6F0AD0036A255076
:1003600000DF8A6F05D0036A2550EADE8A6F00D06D
:10037000252A26068951892B500FE96E040EEA6E54
:10038000D8B0EA2A8AC0EFFFD8D7265204E18951B3
:10039000400801E01A6A89C08BF0C8DF000C256AAA
:1003A0001D6A04011351010A000105E0030A08E077
:1003B000010A09E01AD0120E266E030E1D6E17D028
:1003C000200E266E14D0020E1D6E036A0401125117
:1003D0001E0FE96E000E0320EA6EEFCF25F0036AD0
:1003E00025500001BEDE266E02D0A3DF0CD0040132
:1003F000175305E12650165D02E216C426F0010EE1
:100400001A6E000199DF27EF03F0885304E1040E10
:10041000226E52DFC9D0050E226E040E8B6F900E35
:100420008A6F010E896F89510F08D8A0BDD089C08D
:1004300091F012DF8C6B036A895139DEFF0859E0B5
:10044000040E8C6FD8908935036A41DE0900F5CF20
:1004500003F08D6F03C08EF0936B89C092F0956BA3
:10046000080E946FEADE01C090F0010E0124016EC7
:10047000000E0220036E01C0E9FF040E0324EA6EA1
:100480008DC0EFFF936B89C092F0956B080E946F4F
:10049000D4DE01C090F0020E0124016E000E022095
:1004A000036E01C0E9FF040E0324EA6E8BC0ECFF6B
:1004B000ED528AC0EFFFD8908935036A08DE090043
:1004C000F5CF03F08A2703508B23880E8F6F8EB1F0
:1004D0008F818EB38F83936B89C092F0956B080EDA
:1004E000946FABDE01C0E9FF040E0224EA6E8FC0F8
:1004F000EFFF036A8951DBDDFF0840E08C83936BDB
:1005000089C092F0956B080E946F97DE02C091F04F
:1005100001C090F0040E9027000E9123020E90254A
:10052000016E000E9121036E01C0E9FF040E032449
:10053000EA6E8BC0ECFFED528AC0EFFFD890893590
:10054000036AC5DD0900F5CF03F08A2703508B232A
:10055000936B89C092F0956B080E946F6EDE02C0AB
:1005600091F001C090F0040E9027000E912390C0EE
:10057000E9FF040E9125EA6E400EEF6E8C510608DD
:1005800002E10E0E8C6F036A895191DD0108D8A437
:100590008C89036A8951700FE96E0F0E0320EA6E91
:1005A0008CC0EFFF892B3FD721EF03F004011151DD
:1005B000000A00010DE0010A14E0020A1EE0060A2A
:1005C00027E0030A2CE00E0A2CE0010A30E03DD0BF
:1005D0001CC050F40401516B020E00018B6FA6DEAB
:1005E00036D00401122D06D0010E1C1600018B6BB3
:1005F0009DDE02D000019DDE2AD00401122D05D01F
:100600001C8200018B6B92DE02D0000192DE1FD0B3
:10061000020E1A6E12C424F08B6B88DE18D0BFD67F
:1006200016D01BC050F4010E8B6F80DE10D0040179
:100630001251010808E312C41BF012C488F0000133
:10064000E4D68B6B73DE000102D073DE00D042EF84
:1006500004F01BC088F004011151000A000105E0FC
:100660000A0A0BE0010A26E037D00401506B516BF7
:10067000020E00018B6F5ADE31D0885319E0010E53
:10068000885D036A54DD016E0401145DD8A002D0B8
:1006900000010ED0036A1451270FE96E000E0320EB
:1006A000EA6EEFCF50F4010E00018B6F3FDE01D0F8
:1006B00040DE14D088530EE0036A04011451270F62
:1006C000E96E000E0320EA6E12C4EFFF00018B6B8F
:1006D0002DDE01D02EDE02D02CDE00D042EF04F061
:1006E000899188BF8981889F89A117D0936B88C021
:1006F00092F0956B080E946FA0DD02C08BF001C0E4
:100700008AF0040E8A27000E8B238AC0E9FF040EAC
:100710008B25EA6E880EEF6E0DD0936B88C092F039
:10072000956B080E946F89DD01C0E9FF040E022469
:10073000EA6EEF6A10EF04F0899188BF8981889F83
:1007400089A117D0936B88C092F0956B080E946FB7
:1007500074DD02C08BF001C08AF0040E8A27000EFF
:100760008B238AC0E9FF040E8B25EA6E840EEF6EA0
:100770000ED0936B88C092F0956B080E946F5DDD80
:1007800001C0E9FF040E0224EA6E840EEF6E16EF3C
:1007900004F0899188BF8981889F89A117D0936BC4
:1007A00088C092F0956B080E946F47DD02C08CF004
:1007B00001C08BF0040E8B27000E8C238BC0E9FF49
:1007C000040E8C25EA6EEFCF8AF00ED0936B88C0B2
:1007D00092F0956B080E946F30DD01C0E9FF040EB6
:1007E0000224EA6EEFCF8AF08AAF02D08AB502D037
:1007F000000E01D0010E016E20EF04F014C492F03F
:10080000FADC015229E004011151010A000105E05E
:10081000020A09E0030A0DE01DD014C488F060D775
:100820008B6B84DD19D014C488F086D78B6B7EDD8A
:1008300013D00401506B516B14C488F00001A9D788
:10084000015204E0010E0401506F0001020E8B6F93
:100850006DDD02D06EDD00D042EF04F01A6A0401B3
:1008600010517F0B000A000105E0010A05E0030AB0
:1008700005E006D09BD606D0ECD604D0BFD702D078
:1008800058DD00D097EF05F0936B88C092F0956B20
:10089000080E946FD2DC01C0E9FF040E0224EA6E58
:1008A000EFCF8AF08951020806E18AAD02D0896B48
:1008B00002D0010E896F8951030819E1840E8A6FF5
:1008C000936B88C092F0956B080E946FB6DC02C0F3
:1008D0008EF001C08DF0040E8D27000E8E238DC08A
:1008E000E9FF040E8E25EA6E840EEF6E07D0892D87
:1008F00003D0C80E8A6F02D0880E8A6FD8908835D0
:10090000036A67EC00F00900F5CF03F08B6F03C0BA
:100910008CF0936B88C092F0956B080E946F8DDC11
:1009200001C08DF0010E0124016E000E0220036E45
:1009300001C0E9FF040E0324EA6E8BC0EFFF8CB107
:100940008A818CB38A83936B88C092F0956B080E72
:10095000946F73DC01C0E9FF040E0224EA6E8AC0C2
:10096000EFFF000C036A8D51700FE96E0F0E03202C
:10097000EA6EEF5218E0936B8DC092F0956B080E03
:10098000946F5BDC02C08FF001C08EF0040E8E27E6
:10099000000E8F238EC0E9FF040E8F25EA6EEFCF85
:1009A0008EF08EAF02D0000E01D0010E016EDCEF92
:1009B00004F088C08DF0D6D70152D8B47AD0936BAA
:1009C00088C092F0956B080E946F37DC02C08EF0F1
:1009D00001C08DF0040E8D27000E8E23010E8D2593
:1009E000016E000E8E21036E01C0E9FF040E032488
:1009F000EA6E89C0EFFF8B5102081DE1936B88C03E
:100A000092F0956B080E946F18DC02C08EF001C056
:100A10008DF0040E8D27000E8E238DC0E9FF040E8D
:100A20008E25EA6EEFCF8CF08CAD02D08B6B02D0AE
:100A3000010E8B6F18D08B51040815E1936B88C0A1
:100A400092F0956B080E946F1DEC01F001C0E9FF68
:100A5000040E0224EA6EEFCF8CF08CAD03D0010EB1
:100A60008B6F01D08B6B8B2D03D0C80E8C6F02D097
:100A7000880E8C6F8AB18C818AB38C83936B88C00B
:100A800092F0956B080E946F1DEC01F002C08EF091
:100A900001C08DF0040E8D27000E8E238DC0E9FF5E
:100AA000040E8E25EA6E8CC0EFFF010E016E03D09E
:100AB00000D0000E016E000C885300E1000C89C0CC
:100AC0006EFF895303E0040E226E02D0020E226EE6
:100AD0006FEF05F01B6A1A6A24C089F0F0D77BEF2C
:100AE00005F0885308E11A2C02D026DC04D01A50F5
:100AF000020801E1EFD7000C2130866F8633863380
:100B00001F0E8617215242E1040100513C0B0001E7
:100B1000876F430E040100170001875134081EE15E
:100B200004010451800B01E0046B000197D66D981D
:100B3000233C05D0886B030E896FA6DE0ED0886B30
:100B4000020E896FA1DE2350FE0807E0886B8A6BD6
:100B500023C089F0040E8B6F2CDF17D08751040857
:100B600014E1886BA9DF886B020E896F8DDE23503C
:100B7000FE080AE0233C01D007D0886B8A6B23C0B3
:100B800089F0010E8B6F15DF00D07AD02150040858
:100B900014E1430E04010417FF0E236E0001886B5D
:100BA000A0DF233C01D008D0886B8A6B23C089F07A
:100BB000020E8B6FFEDE00D063D021B42AD0936B7F
:100BC00086C092F0956B080E946F1DEC01F001C089
:100BD00088F001C001F0040E0224036E01C088F009
:100BE000896F936B86C092F0956B080E946F1DEC25
:100BF00001F001C0E9FF040E0224EA6EEF50430B3E
:100C000089C0EAFF88C0E9FFEF6E86C088F054DF34
:100C100037D0936B86C092F0956B080E946F1DECE5
:100C200001F002C089F001C088F0040E8827000E90
:100C3000892388C001F0040E8925036E88C088F0DE
:100C4000896F936B86C092F0956B080E946F1DECC4
:100C500001F002C08BF001C08AF0040E8A27000E5A
:100C60008B238AC0E9FF040E8B25EA6EEF50430BFD
:100C700089C0EAFF88C0E9FFEF6E86C088F031DFE7
:100C800079EF06F0A19A225201E139D0685237E09B
:100C900068A404D069A402D0D8EF00F06DA201D0FE
:100CA0002ED068AA04D069AA02D0F0EF00F068A2A2
:100CB00004D069A202D0F7EF00F068A004D069A0C8
:100CC00002D079EF01F068A804D069A802D08EEFB5
:100CD00001F068AC04D069AC02D093EF01F0856BF1
:100CE00068A608D069A606D06CCF21F002EC00F00F
:100CF00003D701D004D08551852B0308F1E230EFF2
:100D000000F050313D254C6425252050323D254CC6
:100D10006425250A0000000E946E6B9170B16B8102
:100D200070530DE094948B940C0EBD6E94928B9244
:100D3000BA6E000E0609CA6EFF0ECB6E04D0948404
:100D4000BD6A9482BA6A000C6D6B70C06CF070C0A2
:100D500072F0746B0A0E736F196AF2BE198EF29EEE
:100D600074C093F073C092F0956B72C094F01DEC58
:100D700001F019BEF28E02C074F001C073F072313E
:100D8000006E00323F0E001600507327000E7423D1
:100D900073C001F074C002F002C073F001C072F0C1
:100DA0007333723373337233733372C0BEFF733372
:100DB0007331300B006EBD50CF0B0010BD6E6F6BEA
:100DC00071C06EF071C072F0746B0A0E736F196AA5
:100DD000F2BE198EF29E74C093F073C092F0956BC0
:100DE00072C094F01DEC01F019BEF28E02C074F0D6
:100DF00001C073F07231006E00323F0E00160050D9
:100E00007327000E742373C001F074C002F002C097
:100E100073F001C072F07333723373337233733310
:100E200072C0BBFF73337331300B006EBA50CF0BFF
:100E30000010BA6E000C6D6A696A080E6F6E9450ED
:100E40003009946E226A196AF2BE198EF29E67EC1E
:100E500001F019BEF28E2EEF07F0EDD753EF07F039
:100E6000196AF2BE198EF29E67EC01F019BEF28E7D
:100E70006D6A140E6F6E696A6D86010E226E44EF04
:100E800007F06DB601D0ECD7222C0BD06DBA09D08B
:100E9000686A696AA08AC00EF212110E696E020EAB
:100EA000226E000CDAD7EDDF22500208FCE1E3EFFE
:100EB0000AF0EA6A7A0EE96EEF500EE0050E016E56
:100EC000006A002EFED7012EFBD72E0E006E002EDC
:100ED000FED700D0EF2EF2D7000C82B102D0899855
:100EE00001D08988929882B302D0899A01D0898AE8
:100EF000929A82B502D08A9601D08A86939682B75A
:100F000002D08A9801D08A88939800008A849394AA
:100F1000020E006E002EFED700008A949394000CFF
:100F2000836B9288000E80B8010E8313928A000EA4
:100F300080BA010E006ED89000360050831393865D
:100F4000000E81B6010E006E00360036FC0E001653
:100F5000005083139388000E81B8010E006E003696
:100F600000360036F80E00160050831383C001F0DF
:100F7000000C9288928A938693888A8293920000CA
:100F80008A8493940000CCDF01C082F08A94939409
:100F900000008A84939400D000D0C2DF01C081F0A9
:100FA0008A9493949298929A939693988239006E29
:100FB000F00E001600508111016EE5EF07F09394DA
:100FC000939093928A909390D4D701C081F001BE00
:100FD000FBD77F5302E18A9001D08A809390000072
:100FE0008A92939200008A9493948039816F0F0EB5
:100FF000811781C082F071DF80510F0B816F826F8A
:101000006CDF000C9298929A939693989394939095
:1010100093928A9093908A9293928A9493940F0ECB
:101020007A6F47DF010E706F705103080AE3030EF9
:10103000826F53DF826B51DF050E7A6F3ADF702BC0
:10104000F3D7020E826F49DF826B47DF050E7A6F9E
:1010500030DF706B705103080AE3036A7051CEEC05
:1010600000F0716F7F6B806FAADF702BF3D7286A57
:10107000296AE4EF0AF07C2D01D003D0400E7D6F89
:1010800001D07D6B010E7B5D7D277D5180097E6FD8
:101090007F6B806F94DF010E7B5D286E010E7C5D9F
:1010A000296E000C7951070A09E00B0A0CE0010ACD
:1010B00014E0070A1BE0020A2CE030D0010E7B6F1F
:1010C0007C6FD9DF35D07F6B010E806F78DF020E29
:1010D0007A6FEFDE286A296A2BD0010E29247A6FF5
:1010E000010E7B6F7AC07CF0C6DF22D02850282A00
:1010F000130806E3010E7F6F200E806F60DFF6D7C6
:10110000020E29247A6F010E7B6F7AC07CF0B3DF68
:101110000FD07F6B100E806F52DF0AD0285013085B
:1011200006E3010E7F6F79C080F049DF282A00D0E6
:10113000000C1B50016E000C7951016A785D03E2CE
:1011400078C000F00CD0006A080E7A6F783700364D
:101150007951005CD8B0006E01367A2FF7D7000CB9
:10116000200E73A9300E746F72C000F072AF07D0FA
:10117000001E002A00C072F02D0E746F738F015094
:1011800072C078F0640E796FD7DF00C072F0300E55
:101190000124756F72C078F00A0E796FCDDF300EC2
:1011A0000024776F300E0124766F74C000F073A7AF
:1011B00002D073AF739573B90BD073AF22D073B5F0
:1011C00020D000C075F073B31CD000C076F019D0E9
:1011D000300E755D16E100C075F0200E746F73A7B8
:1011E00004D07395738373AF7393300E765D09E10A
:1011F00000C076F0200E756F73A7F7D7739373AFA7
:10120000739173A503D074C079F04CDF73A303D03E
:1012100075C079F047DF73A103D076C079F042DF63
:1012200077C079F03FDF000CEACF78F0E9CF77F0B4
:1012300071AF08D0778F77A9772B701F711F702B34
:10124000D8B4712B7139F009736F7327E20F746F83
:10125000320F766F71510F0B742774277627E90FC1
:10126000756F7527752770390F0B752776277537BA
:101270007637761F763770510F0B76277337070E48
:10128000726F0A0E75077627FDE374077527FDE375
:1012900073077427FDE372077327FDE3EA6A720E92
:1012A000E96E070E7715779DE906771507E177B99F
:1012B000E92A77B903D0200E006E1CD0E926760EFD
:1012C000E95CD8B4778DEF50006E08E177BD06D0A9
:1012D00077B91BD077B702D0200E0BD077AF06D0EE
:1012E0002D0E006EED50779D779F04D0778777990C
:1012F000300E0026EACF71F0E9CF70F000C079F02F
:10130000D1DE71C0EAFF70C0E9FFEE5077ADD7D7EC
:10131000000C0900F6CF71F0F7CF72F0F5CF79F03D
:10132000C1DE71C0F6FF72C0F7FF702FF2D7DAEF9F
:1013300009F0010E7B6F7C6F9EDEFBDE01C070F05A
:10134000000E6BB1010E716F550E796FABDE3D0E65
:10135000796FA8DE70C072F01F0E736F01DF200E70
:10136000796FA0DE500E796F9DDE3D0E796F9ADEAB
:1013700071C072F01F0E736FF3DE0A0E796F92DE8A
:10138000500E796F8FDE310E796F8CDE3D0E796FE6
:1013900089DE100EE96E6DC071F06CC070F044DF34
:1013A000250E796F7FDE0A0EF66E0D0EF76E040EB7
:1013B000706FAFD7100EE96E6FC071F06EC070F035
:1013C00033DF250E796F6EDE0A0E796F6BDE000C4F
:1013D000036A7051700FE96E0F0E0320EA6EEF5230
:1013E00019E0196AF2BE198EF29E936B70C092F0EA
:1013F000956B080E946F1DEC01F019BEF28E02C0C1
:1014000072F001C0E9FF040E0224EA6EEFCF71F022
:1014100071AF02D0000E01D0010E016EF2EF0AF0A2
:10142000196AF2BE198EF29E936B75C092F0956B9D
:10143000080E946F1DEC01F019BEF28E01C07FF012
:10144000020E0124016E000E0220036E01C0E9FFAE
:10145000040E0324EA6EECCF03F0ED52EFCF7AF0E6
:1014600003C07BF0196AF2BE198EF29E936B75C0B1
:1014700092F0956B080E946F1DEC01F019BEF28E80
:1014800001C07FF0010E0124016E000E0220036EE8
:1014900001C0E9FF040E0324EA6EEF50036A7D6F7A
:1014A00003C07EF0196AF2BE198EF29E936B75C06E
:1014B00092F0956B080E946F1DEC01F019BEF28E40
:1014C00001C0E9FF040E0224EA6EEFCF7CF07CB18C
:1014D0007E817CB37E837E51795D08E303E17851A0
:1014E0007D5D04E27EC079F07DC078F077C0EAFFD0
:1014F00076C0E9FF7BC0E2FF7AC0E1FF79C002F06D
:1015000078C001F0015202E0022A02D0025206E045
:10151000E6CFEEFF012EFCD7022EFAD778C001F0FD
:1015200079C002F09FEF0AF070C075F072C077F0DA
:1015300071C076F074C079F073C078F071D702C0D2
:1015400074F001C073F0196AF2BE198EF29E70C079
:1015500088F0020E896F44EC04F019BEF28E73C05D
:1015600001F074C002F0FDEF0AF02AC070F08BECBD
:1015700006F02BC070F02CC071F0A4EC06F0D9DEA0
:1015800000EF0BF0F86AD09E078EEA6AE96A226AD9
:10159000266AC150C00B0F09C16E070EB46E1E6AD9
:1015A000040E1F6E0C0E206E6B916C6B6D6B6E6B70
:1015B0006F6BB16A706B8BEC06F0706B320E716FF3
:1015C000A4EC06F06FD41ED50C0E796F6BDD010E06
:1015D0007A6F6FDCAEDE55DCACDD015211E0010E3E
:1015E000706FF6D601520CE0010E706F726B2A0E0E
:1015F000716F746B400E736F97D701C06AF0B5D7E7
:0C16000098DE640E7A6F55DCE6D703001C
:020000040030CA
:0E0000003ACE390E000581000FC00FE00F4010
:00000001FF
;PIC18F2550
;CRC=E14F  CREATED="12-мар-11 15:13"
