:10000000E3EF0AF06896000C046ED8CF05F0E0CF5D
:1000100006F00001E9CF0CF0EACF07F0E1CF08F0DD
:10002000E2CF09F0D9CF0AF0DACF0BF0F3CF12F01C
:10003000F4CF13F0FACF14F0F5CF15F0F6CF16F099
:10004000F7CF17F000C00EF001C00FF002C010F0A3
:1000500003C011F0A0AA30EF00F0A1BA42EF06F001
:100060000EC000F00FC001F010C002F011C003F08C
:100070000CC0E9FF07C0EAFF078E08C0E1FF09C016
:10008000E2FF0AC0D9FF0BC0DAFF12C0F3FF13C0B2
:10009000F4FF14C0FAFF15C0F5FF16C0F6FF17C035
:1000A000F7FF045006C0E0FF05C0D8FF1000F76A54
:1000B000BE0FF66E000EF7220900F5501200000286
:1000C000FFFFFFFFFFFFFFFFFFFFFFFFFFFFF76ADD
:1000D000DE0FF66E000EF7220900F5501200400008
:1000E00040000000000000000000000000000000D0
:1000F0000000000000000000000000000000F76A9F
:100100000E0FF66E010EF7220900F55012000902DB
:10011000200001010080320904000002FFFFFF00FF
:100120000705810340000107050103400001F76A4C
:100130003E0FF66E010EF7220900F5501200010085
:10014000F76A500FF66E010EF7220900F550120003
:100150001201000200000040D80402D00001010298
:100160000001F76A720FF66E010EF7220900F550D2
:100170001200040309040803530048004D001E0345
:1001800052006100640069006F0042006F0061006E
:10019000740020004300740072006C00F76AAC0F1A
:1001A000F66E010EF7220900F5501200280C010628
:1001B0006D92699468A402D06894FCD74EEF06F063
:1001C000400E0401016F040E036F100E026F880EC3
:1001D000006F046B040E076F500E066F0001000CD9
:1001E00070A002D0EDDF7090689A57EF06F06A6A4F
:1001F00068925DEF06F0999198BF9981989F985108
:10020000100803E2000E016E17D099A10BD0036A0B
:1002100098514DDFFF0802E1000E01D0010E016E82
:100220000BD00AD0036A985142DFFF0802E1000EAA
:1002300001D0010E016E00D0000C98519A03F3CF4B
:1002400001F0F4CF00F09B03F350002699519A037C
:10025000F3500020026E000C036A9751700FE96E94
:100260000F0E0320EA6EEF6A97C098F0C4DF0152C8
:1002700022E0996B97C098F09B6B080E9A6FDDDFB8
:1002800001C0E9FF040E0224EA6EEF6A996B97C081
:1002900098F09B6B080E9A6FD0DF02C099F001C0F6
:1002A00098F0040E9827000E992398C0E9FF040ED9
:1002B0009925EA6EEF6A000C010E966F96510F08B1
:1002C00005E396C097F0C8DF962BF8D7000C8C6B2F
:1002D0008C530AE1036A8C51270FE96E000E03204C
:1002E000EA6EEF6A8C2BF4D71B6A010E1C6E1A6A39
:1002F000000C6A6A686A9F0E6B6E3D0E696E6E6ACC
:10030000DBDFE5DF160E706E68A602D07BDEFCD761
:100310006D9856DF030E226E63EF06F069846898CD
:100320006D8269EF06F0689C6FEF06F091C023F0D4
:10033000000CFF0E236E000C8F6B265226E08F51AF
:100340003F0823E31D5005E0020A08E0010A0BE024
:100350000FD0036A2550D3DE906F0AD0036A255070
:1003600000DF906F05D0036A2550EADE906F00D061
:10037000252A26068F518F2B500FE96E040EEA6E48
:10038000D8B0EA2A90C0EFFFD8D7265204E18F51A7
:10039000400801E01A6A8FC091F0C8DF000C256A9E
:1003A0001D6A04011351010A000105E0030A08E077
:1003B000010A09E01AD0120E266E030E1D6E17D028
:1003C000200E266E14D0020E1D6E036A0401125117
:1003D0001E0FE96E000E0320EA6EEFCF25F0036AD0
:1003E00025500001BEDE266E02D0A3DF0CD0040132
:1003F000175305E12650165D02E216C426F0010EE1
:100400001A6E000199DF27EF03F08E5304E1040E0A
:10041000226E52DFC9D0050E226E040E916F900E2F
:10042000906F010E8F6F8F510F08D8A0BDD08FC075
:1004300097F012DF926B036A8F5139DEFF0859E0A3
:10044000040E926FD8908F35036A41DE0900F5CF14
:1004500003F0936F03C094F0996B8FC098F09B6B7F
:10046000080E9A6FEADE01C096F0010E0124016EBB
:10047000000E0220036E01C0E9FF040E0324EA6EA1
:1004800093C0EFFF996B8FC098F09B6B080E9A6F2B
:10049000D4DE01C096F0020E0124016E000E02208F
:1004A000036E01C0E9FF040E0324EA6E91C0ECFF65
:1004B000ED5290C0EFFFD8908F35036A08DE090037
:1004C000F5CF03F0902703509123880E956F94B1D8
:1004D000958194B39583996B8FC098F09B6B080EB0
:1004E0009A6FABDE01C0E9FF040E0224EA6E95C0EC
:1004F000EFFF036A8F51DBDDFF0840E09283996BC9
:100500008FC098F09B6B080E9A6F97DE02C097F031
:1005100001C096F0040E9627000E9723020E962532
:10052000016E000E9721036E01C0E9FF040E032443
:10053000EA6E91C0ECFFED5290C0EFFFD8908F357E
:10054000036AC5DD0900F5CF03F09027035091231E
:10055000996B8FC098F09B6B080E9A6F6EDE02C08D
:1005600097F001C096F0040E9627000E972396C0D0
:10057000E9FF040E9725EA6E400EEF6E92510608D1
:1005800002E10E0E926F036A8F5191DD0108D8A42B
:100590009289036A8F51700FE96E0F0E0320EA6E85
:1005A00092C0EFFF8F2B3FD721EF03F004011151D1
:1005B000000A00010DE0010A14E0020A1EE0060A2A
:1005C00027E0030A2CE00E0A2CE0010A30E03DD0BF
:1005D0001CC050F40401516B020E0001916FA6DEA5
:1005E00036D00401122D06D0010E1C160001916BAD
:1005F0009DDE02D000019DDE2AD00401122D05D01F
:100600001C820001916B92DE02D0000192DE1FD0AD
:10061000020E1A6E12C424F0916B88DE18D0BFD679
:1006200016D01BC050F4010E916F80DE10D0040173
:100630001251010808E312C41BF012C48EF000012D
:10064000E4D6916B73DE000102D073DE00D042EF7E
:1006500004F01BC08EF004011151000A000105E0F6
:100660000A0A0BE0010A26E037D00401506B516BF7
:10067000020E0001916F5ADE31D08E5319E0010E47
:100680008E5D036A54DD016E0401145DD8A002D0B2
:1006900000010ED0036A1451270FE96E000E0320EB
:1006A000EA6EEFCF50F4010E0001916F3FDE01D0F2
:1006B00040DE14D08E530EE0036A04011451270F5C
:1006C000E96E000E0320EA6E12C4EFFF0001916B89
:1006D0002DDE01D02EDE02D02CDE00D042EF04F061
:1006E0008F918EBF8F818E9F8FA117D0996B8EC0F7
:1006F00098F09B6B080E9A6FA0DD02C091F001C0CC
:1007000090F0040E9027000E912390C0E9FF040E94
:100710009125EA6E880EEF6E0DD0996B8EC098F021
:100720009B6B080E9A6F89DD01C0E9FF040E02245D
:10073000EA6EEF6A10EF04F08F918EBF8F818E9F6B
:100740008FA117D0996B8EC098F09B6B080E9A6F93
:1007500074DD02C091F001C090F0040E9027000EED
:10076000912390C0E9FF040E9125EA6E840EEF6E8E
:100770000ED0996B8EC098F09B6B080E9A6F5DDD62
:1007800001C0E9FF040E0224EA6E840EEF6E16EF3C
:1007900004F08F918EBF8F818E9F8FA117D0996BA0
:1007A0008EC098F09B6B080E9A6F47DD02C092F0E6
:1007B00001C091F0040E9127000E922391C0E9FF31
:1007C000040E9225EA6EEFCF90F00ED0996B8EC09A
:1007D00098F09B6B080E9A6F30DD01C0E9FF040EA4
:1007E0000224EA6EEFCF90F090AF02D090B502D025
:1007F000000E01D0010E016E20EF04F014C498F039
:10080000FADC015229E004011151010A000105E05E
:10081000020A09E0030A0DE01DD014C48EF060D76F
:10082000916B84DD19D014C48EF086D7916B7EDD78
:1008300013D00401506B516B14C48EF00001A9D782
:10084000015204E0010E0401506F0001020E916F8D
:100850006DDD02D06EDD00D042EF04F01A6A0401B3
:1008600010517F0B000A000105E0010A05E0030AB0
:1008700005E006D09BD606D0ECD604D0BFD702D078
:1008800058DD00D097EF05F0996B8EC098F09B6B08
:10089000080E9A6FD2DC01C0E9FF040E0224EA6E52
:1008A000EFCF90F08F51020806E190AD02D08F6B30
:1008B00002D0010E8F6F8F51030819E1840E906FE3
:1008C000996B8EC098F09B6B080E9A6FB6DC02C0D5
:1008D00094F001C093F0040E9327000E942393C06C
:1008E000E9FF040E9425EA6E840EEF6E07D08F2D7B
:1008F00003D0C80E906F02D0880E906FD8908E35BE
:10090000036A67EC00F00900F5CF03F0916F03C0B4
:1009100092F0996B8EC098F09B6B080E9A6F8DDCED
:1009200001C093F0010E0124016E000E0220036E3F
:1009300001C0E9FF040E0324EA6E91C0EFFF92B1FB
:10094000908192B39083996B8EC098F09B6B080E48
:100950009A6F73DC01C0E9FF040E0224EA6E90C0B6
:10096000EFFF000C036A9351700FE96E0F0E032026
:10097000EA6EEF5218E0996B93C098F09B6B080EEB
:100980009A6F5BDC02C095F001C094F0040E9427CE
:10099000000E952394C0E9FF040E9525EA6EEFCF73
:1009A00094F094AF02D0000E01D0010E016EDCEF86
:1009B00004F08EC093F0D6D70152D8B47AD0996B98
:1009C0008EC098F09B6B080E9A6F37DC02C094F0D3
:1009D00001C093F0040E9327000E9423010E93257B
:1009E000016E000E9421036E01C0E9FF040E032482
:1009F000EA6E8FC0EFFF915102081DE1996B8EC026
:100A000098F09B6B080E9A6F18DC02C094F001C03E
:100A100093F0040E9327000E942393C0E9FF040E75
:100A20009425EA6EEFCF92F092AD02D0916B02D096
:100A3000010E916F18D09151040815E1996B8EC089
:100A400098F09B6B080E9A6F1DEC01F001C0E9FF56
:100A5000040E0224EA6EEFCF92F092AD03D0010EA5
:100A6000916F01D0916B912D03D0C80E926F02D07F
:100A7000880E926F90B1928190B39283996B8EC0E1
:100A800098F09B6B080E9A6F1DEC01F002C094F079
:100A900001C093F0040E9327000E942393C0E9FF46
:100AA000040E9425EA6E92C0EFFF010E016E03D092
:100AB00000D0000E016E000C8E5300E1000C8FC0C0
:100AC0006EFF8F5303E0040E226E02D0020E226EE0
:100AD0006FEF05F01B6A1A6A24C08FF0F0D77BEF26
:100AE00005F08E5308E11A2C02D026DC04D01A50EF
:100AF000020801E1EFD7000C21308C6F8C338C336E
:100B00001F0E8C17215242E1040100513C0B0001E1
:100B10008D6F430E0401001700018D5134081EE152
:100B200004010451800B01E0046B000197D66D981D
:100B3000233C05D08E6B030E8F6FA6DE0ED08E6B1E
:100B4000020E8F6FA1DE2350FE0807E08E6B906BC4
:100B500023C08FF0040E916F2CDF17D08D51040845
:100B600014E18E6BA9DF8E6B020E8F6F8DDE23502A
:100B7000FE080AE0233C01D007D08E6B906B23C0A7
:100B80008FF0010E916F15DF00D07AD0215004084C
:100B900014E1430E04010417FF0E236E00018E6B57
:100BA000A0DF233C01D008D08E6B906B23C08FF068
:100BB000020E916FFEDE00D063D021B42AD0996B73
:100BC0008CC098F09B6B080E9A6F1DEC01F001C071
:100BD0008EF001C001F0040E0224036E01C08EF0FD
:100BE0008F6F996B8CC098F09B6B080E9A6F1DEC01
:100BF00001F001C0E9FF040E0224EA6EEF50430B3E
:100C00008FC0EAFF8EC0E9FFEF6E8CC08EF054DF1C
:100C100037D0996B8CC098F09B6B080E9A6F1DECC7
:100C200001F002C08FF001C08EF0040E8E27000E7E
:100C30008F238EC001F0040E8F25036E8EC08EF0C0
:100C40008F6F996B8CC098F09B6B080E9A6F1DECA0
:100C500001F002C091F001C090F0040E9027000E48
:100C6000912390C0E9FF040E9125EA6EEF50430BEB
:100C70008FC0EAFF8EC0E9FFEF6E8CC08EF031DFCF
:100C800079EF06F0A19A225201E139D0685237E09B
:100C900068A404D069A402D0D8EF00F06DA201D0FE
:100CA0002ED068AA04D069AA02D0F0EF00F068A2A2
:100CB00004D069A202D0F7EF00F068A004D069A0C8
:100CC00002D079EF01F068A804D069A802D08EEFB5
:100CD00001F068AC04D069AC02D093EF01F08B6BEB
:100CE00068A608D069A606D06CCF21F002EC00F00F
:100CF00003D701D004D08B518B2B0308F1E230EFE6
:100D000000F050313D254C6425252050323D254CC6
:100D100064252500000E946E6B9172B16B81725345
:100D200028E094948B940C0EBD6E94928B92BA6EC4
:100D30007351010A05E0050A09E0140A0DE012D01A
:100D4000000E0409CA6E74C0CBFF0CD0000E05095A
:100D5000CA6E74C0CBFF06D0000E0609CA6E74C0FE
:100D6000CBFF00D0716B706B71C06FF070C06EF014
:100D700004D09484BD6A9482BA6A000C6D6A696A70
:100D8000080E6F6E94503009946E226A196AF2BE92
:100D9000198EF29E67EC01F019BEF28ED1EF06F0CB
:100DA000EDD7F6EF06F0196AF2BE198EF29E67ECE7
:100DB00001F019BEF28E6D6A140E6F6E696A6D864F
:100DC000010E226EE7EF06F06DB601D0ECD7222CB3
:100DD0000BD06DBA09D0686A696AA08AC00EF21297
:100DE000110E696E020E226E000CDAD7EDDF225072
:100DF0000208FCE108EF0BF0EA6A800EE96EEF50A2
:100E00000EE00F0E016E006A002EFED7012EFBD7FA
:100E10008F0E006E002EFED70000EF2EF2D7000CD2
:100E200088B102D0899801D08988929888B302D07D
:100E3000899A01D0898A929A88B502D08A9601D07F
:100E40008A86939688B702D08A9801D08A88939828
:100E500000008A849394070E006E002EFED700D007
:100E60008A949394000C896B9288000E80B8010ECE
:100E70008913928A000E80BA010E006ED890003657
:100E8000005089139386000E81B6010E006E003665
:100E90000036FC0E0016005089139388000E81B8AE
:100EA000010E006E003600360036F80E00160050B7
:100EB000891389C001F0000C9288928A93869388E6
:100EC0008A82939200008A8493940000CCDF01C050
:100ED00088F08A94939400008A849394030E006EA1
:100EE000002EFED700D0BFDF01C087F08A94939414
:100EF0009298929A939693988839006EF00E001605
:100F000000508711016E8BEF07F0939493909392AA
:100F10008A909390D1D701C087F001BEFBD785534B
:100F200002E18A9001D08A80939000008A92939285
:100F300000008A9493948639876F0F0E871787C0B5
:100F400088F06EDF86510F0B876F886F69DF000CAA
:100F50009298929A939693989394939093928A905E
:100F600093908A9293928A9493940F0E806F44DFA9
:100F7000010E726F725103080AE3030E886F50DF8F
:100F8000886B4EDF050E806F37DF722BF3D7020EB2
:100F9000886F46DF886B44DF050E806F2DDF726B34
:100FA000725103080AE3036A7251CEEC00F0736FCA
:100FB000856B866FAADF722BF3D7286A296A09EF3F
:100FC0000BF0822D01D003D0400E836F01D0836BD4
:100FD000010E815D832783518009846F856B866F45
:100FE00094DF010E815D286E010E825D296E000C7A
:100FF0007F51070A09E00B0A0CE0010A14E0070A16
:101000001BE0020A2CE030D0010E816F826FD9DF25
:1010100035D0856B010E866F78DF020E806FECDEB7
:10102000286A296A2BD0010E2924806F010E816F56
:1010300080C082F0C6DF22D02850282A130806E399
:10104000010E856F200E866F60DFF6D7020E292411
:10105000806F010E816F80C082F0B3DF0FD0856B8F
:10106000100E866F52DF0AD02850130806E3010ED7
:10107000856F7FC086F049DF282A00D0000C7A51A6
:10108000016A795D03E279C000F00CD0006A080EB5
:101090007B6F793700367A51005CD8B0006E01362C
:1010A0007B2FF7D7000C200E74A9300E756F73C01C
:1010B00000F073AF07D0001E002A00C073F02D0EA1
:1010C000756F748F015073C079F0640E7A6FD7DF3B
:1010D00000C073F0300E0124766F73C079F00A0EF1
:1010E0007A6FCDDF300E0024786F300E0124776FD9
:1010F00075C000F074A702D074AF749574B90BD0AA
:1011000074AF22D074B520D000C076F074B31CD078
:1011100000C077F019D0300E765D16E100C076F091
:10112000200E756F74A704D07495748374AF749394
:10113000300E775D09E100C077F0200E766F74A75E
:10114000F7D7749374AF749174A503D075C07FF012
:101150004FDF74A303D076C07FF04ADF74A103D0C1
:1011600077C07FF045DF78C07FF042DF000C016A76
:10117000026A006A036A775102E1765118E0100EA4
:10118000786FD89074377537003603367751035C23
:1011900002E17651005C07E37651005ED8A00306B9
:1011A0007751035ED88001360236782FEAD7000CDB
:1011B000EACF7EF0E9CF7DF077AF08D07D8F7DA9B3
:1011C0007D2B761F771F762BD8B4772B7739F009D4
:1011D000796F7927E20F7A6F320F7C6F77510F0B9F
:1011E0007A277A277C27E90F7B6F7B277B27763945
:1011F0000F0B7B277C277B377C377C1F7C37765116
:101200000F0B7C277937070E786F0A0E7B077C2738
:10121000FDE37A077B27FDE379077A27FDE378076B
:101220007927FDE3EA6A780EE96E070E7D157D9D4C
:10123000E9067D1507E17DB9E92A7DB903D0200EC5
:10124000006E1CD0E9267C0EE95CD8B47D8DEF5091
:10125000006E08E17DBD06D07DB91BD07DB702D000
:10126000200E0BD07DAF06D02D0E006EED507D9D73
:101270007D9F04D07D877D99300E0026EACF77F0E0
:10128000E9CF76F000C07FF0B3DE77C0EAFF76C02A
:10129000E9FFEE507DADD7D7000C0900F6CF77F00F
:1012A000F7CF78F0F5CF7FF0A3DE77C0F6FF78C0F8
:1012B000F7FF762FF2D7C3EF09F0010E816F826F2F
:1012C00080DE000E6BB1010E726F500E7F6F90DEEC
:1012D0003D0E7F6F8DDE72C073F01F0E746FE3DE04
:1012E000200E7F6F85DE440E7F6F82DE3D0E7F6FA6
:1012F0007FDE6CC073F01F0E746FD5DE200E7F6F23
:1013000077DE490E7F6F74DE3D0E7F6F71DE6DC03C
:1013100073F01F0E746FC7DE010E816F020E826FB5
:1013200050DE6FC075F06EC074F0776B0A0E766F8A
:101330001EDF02C073F001C072F071C075F070C0A2
:1013400074F0776B0A0E766F12DF02C075F001C081
:1013500074F0500E7F6F4CDE310E7F6F49DE3D0E14
:101360007F6F46DE100EE96E73C077F072C076F0C4
:101370001FDF250E7F6F3CDE0A0EF66E0D0EF76E38
:10138000040E766F8AD7100EE96E75C077F074C0C0
:1013900076F00EDF250E7F6F2BDE000C1B50016EEA
:1013A00014EF0BF0036A7251700FE96E0F0E0320F9
:1013B000EA6EEF5219E0196AF2BE198EF29E996B2D
:1013C00072C098F09B6B080E9A6F1DEC01F019BE6D
:1013D000F28E02C074F001C0E9FF040E0224EA6E2E
:1013E000EFCF73F073AF02D0000E01D0010E016E8B
:1013F00019EF0BF0196AF2BE198EF29E996B77C045
:1014000098F09B6B080E9A6F1DEC01F019BEF28EDE
:1014100001C081F0020E0124016E000E0220036E55
:1014200001C0E9FF040E0324EA6EECCF03F0ED5295
:10143000EFCF7CF003C07DF0196AF2BE198EF29EE8
:10144000996B77C098F09B6B080E9A6F1DEC01F0BA
:1014500019BEF28E01C081F0010E0124016E000E52
:101460000220036E01C0E9FF040E0324EA6EEF5070
:10147000036A7F6F03C080F0196AF2BE198EF29E74
:10148000996B77C098F09B6B080E9A6F1DEC01F07A
:1014900019BEF28E01C0E9FF040E0224EA6EEFCFFE
:1014A0007EF07EB180817EB3808380517B5D08E3D6
:1014B00003E17A517F5D04E280C07BF07FC07AF067
:1014C00079C0EAFF78C0E9FF7DC0E2FF7CC0E1FFA0
:1014D0007BC002F07AC001F0015202E0022A02D081
:1014E000025206E0E6CFEEFF012EFCD7022EFAD71D
:1014F0007AC001F07BC002F089EF0AF072C077F089
:1015000074C079F073C078F076C07BF075C07AF063
:1015100071D702C076F001C075F0196AF2BE198E5B
:10152000F29E72C08EF0020E8F6F44EC04F019BE72
:10153000F28E75C001F076C002F024EF0BF073C09C
:101540006FF072C06EF073C002F072C001F0023230
:10155000013202320132023201C0BEFF02320230D9
:10156000300B006EBD50CF0B0010BD6E75C071F01A
:1015700074C070F075C002F074C001F00232013224
:1015800002320132023201C0BBFF02320230300BA4
:10159000006EBA50CF0B0010BA6EE0EF0AF02AC00E
:1015A00072F02BC073F02CC074F08AEC06F02EC0E1
:1015B00073F02DC072F030C075F02FC074F0BFD73B
:1015C0007CDE27EF0BF0F86AD09E078EEA6AE96AA4
:1015D000226A266A6F6BC80E6E6F030E716F200E43
:1015E000706FC150C00B0F09C16E070EB46E1E6A3A
:1015F000040E1F6E0C0E206E6B916C6B6D6BB16ADE
:10160000726B010E736F746F8AEC06F0F5EF06F0E3
:101610009FD40C0E7F6FECDC010E806FFCEC06F0AB
:101620004CDEE4EC06F0BAD6015211E0010E726F06
:10163000B9D601520CE0010E726F746B2A0E736FF3
:10164000766B400E756F5AD701C06AF0A8D7640E4A
:0A165000806FFCEC06F0E5D7030004
:020000040030CA
:0E0000003ACE390E000581000FC00FE00F4010
:00000001FF
;PIC18F2550
;CRC=120B  CREATED="06-мар-11 16:26"
