:10000000C2EF0DF06896000C046ED8CF05F0E0CF7B
:1000100006F00001E9CF0CF0EACF07F0E1CF08F0DD
:10002000E2CF09F0D9CF0AF0DACF0BF0F3CF12F01C
:10003000F4CF13F0FACF14F0F5CF15F0F6CF16F099
:10004000F7CF17F000C00EF001C00FF002C010F0A3
:1000500003C011F0F2AA30EF00F0F2B4A3EF06F003
:100060009DA036EF00F09EB0CCEF06F0A0AA3CEFCA
:1000700000F0A1BA4FEF06F00EC000F00FC001F083
:1000800010C002F011C003F00CC0E9FF07C0EAFF86
:10009000078E08C0E1FF09C0E2FF0AC0D9FF0BC00C
:1000A000DAFF12C0F3FF13C0F4FF14C0FAFF15C04B
:1000B000F5FF16C0F6FF17C0F7FF045006C0E0FFBB
:1000C00005C0D8FF1000F76AD60FF66E000EF722B3
:1000D0000900F5501200280C0106F76AEA0FF66EC7
:1000E000000EF7220900F55012000002FFFFFFFF8B
:1000F000FFFFFFFFFFFFFFFFFFFFF76A0A0FF66E2C
:10010000010EF7220900F5501200400040000000E7
:1001100000000000000000000000000000000000DF
:1001200000000000000000000000F76A3A0FF66EC1
:10013000010EF7220900F55012000902200001010A
:100140000080320904000002FFFFFF000705810361
:1001500040000107050103400001F76A6A0FF66ECF
:10016000010EF7220900F55012000100F76A7C0F1A
:10017000F66E010EF7220900F5501200120100027E
:1001800000000040D80402D0000101020001F76A1B
:100190009E0FF66E010EF7220900F55012000403BF
:1001A00009040803530048004D001E03520061007B
:1001B000640069006F0042006F006100740020005D
:1001C0004300740072006C006D92699468A402D0C0
:1001D0006894FCD75BEF06F0400E0401016F040E3B
:1001E000036F100E026F880E006F046B040E076F12
:1001F000500E066F0001000C70A002D0EDDF709071
:10020000689A64EF06F06A6A68926AEF06F067918E
:1002100066BF6781669F6651100803E2000E016E9B
:1002200017D067A10BD0036A665157DFFF0802E1C0
:10023000000E01D0010E016E0BD00AD0036A665188
:100240004CDFFF0802E1000E01D0010E016E00D06C
:10025000000C66516803F3CF01F0F4CF00F069039E
:10026000F350002667516803F3500020026E000C23
:10027000036A6551700FE96E0F0E0320EA6EEF6A94
:1002800065C066F0C4DF015222E0676B65C066F0AE
:10029000696B080E686FDDDF01C0E9FF040E022400
:1002A000EA6EEF6A676B65C066F0696B080E686F8F
:1002B000D0DF02C067F001C066F0040E6627000EB2
:1002C000672366C0E9FF040E6725EA6EEF6A000C3B
:1002D000010E646F64510F0805E364C065F0C8DF68
:1002E000642BF8D7000C5A6A5A520AE1036A5A5032
:1002F000290FE96E000E0320EA6EEF6A5A2AF4D73E
:100300001D6A010E1E6E1C6A000C6A6A686A9F0EE6
:100310006B6E3D0E696E6E6ADBDFE5DF160E706E8A
:1003200068A602D06FDEFCD76D9856DF030E246EF0
:1003300070EF06F0698468986D8276EF06F0689C2D
:100340007CEF06F05FC025F0000CFF0E256E000C60
:100350005D6A285226E05D503F0823E31F5005E008
:10036000020A08E0010A0BE00FD0036A2750DDDE25
:100370005E6E0AD0036A27500ADF5E6E05D0036AFC
:100380002750F4DE5E6E00D0272A28065D505D2AD5
:10039000500FE96E040EEA6ED8B0EA2A5EC0EFFF95
:1003A000D8D7285204E15D50400801E01C6A5DC0C6
:1003B0005FF0C8DF000C276A1F6A04011351010AAD
:1003C000000105E0030A08E0010A09E01AD0120E54
:1003D000286E030E1F6E17D0200E286E14D0020E4A
:1003E0001F6E036A04011251200FE96E000E0320F4
:1003F000EA6EEFCF27F0036A27500001C8DE286EAF
:1004000002D0A3DF0CD00401175305E12850165D7C
:1004100002E216C428F0010E1C6E000199DF33EFD2
:1004200003F05C5204E1040E246E52DFC9D0050EC5
:10043000246E040E5F6E900E5E6E010E5D6E5D505A
:100440000F08D8A0BDD05DC065F012DF606B036AF5
:100450005D5043DEFF0859E0040E606FD8905D34B4
:10046000036A4BDE0900F5CF03F0616F03C062F051
:10047000676B5DC066F0696B080E686FEADE01C0ED
:1004800064F0010E0124016E000E0220036E01C013
:10049000E9FF040E0324EA6E61C0EFFF676B5DC0E5
:1004A00066F0696B080E686FD4DE01C064F0020E5E
:1004B0000124016E000E0220036E01C0E9FF040E4C
:1004C0000324EA6E5FC0ECFFED525EC0EFFFD890F0
:1004D0005D34036A12DE0900F5CF03F05E26035097
:1004E0005F22880E636F62B1638162B36383676B5F
:1004F0005DC066F0696B080E686FABDE01C0E9FF96
:10050000040E0224EA6E63C0EFFF036A5D50E5DD6E
:10051000FF0840E06083676B5DC066F0696B080EA2
:10052000686F97DE02C065F001C064F0040E6427B6
:10053000000E6523020E6425016E000E6521036E18
:1005400001C0E9FF040E0324EA6E5FC0ECFFED5228
:100550005EC0EFFFD8905D34036ACFDD0900F5CFB0
:1005600003F05E2603505F22676B5DC066F0696B27
:10057000080E686F6EDE02C065F001C064F0040E04
:100580006427000E652364C0E9FF040E6525EA6E4A
:10059000400EEF6E6051060802E10E0E606F036AB6
:1005A0005D509BDD0108D8A46089036A5D50700F1F
:1005B000E96E0F0E0320EA6E60C0EFFF5D2A3FD7A1
:1005C0002DEF03F004011151000A00010DE0010AB2
:1005D00014E0020A1EE0060A27E0030A2CE00E0AD5
:1005E0002CE0010A30E03DD01EC050F40401516BF4
:1005F000020E5F6E0001A6DE36D00401122D06D079
:10060000010E1E165F6A00019DDE02D000019DDE14
:100610002AD00401122D05D01E825F6A000192DEED
:1006200002D0000192DE1FD0020E1C6E12C426F012
:100630005F6A88DE18D0BFD616D01DC050F4010EF8
:100640005F6E80DE10D004011251010808E312C46D
:100650001DF012C45CF00001E4D65F6A73DE000195
:1006600002D073DE00D04EEF04F01DC05CF0040138
:100670001151000A000105E00A0A0BE0010A26E018
:1006800037D00401506B516B020E5F6E00015ADED1
:1006900031D05C5219E0010E5C5C036A5EDD016ED4
:1006A0000401145DD8A002D000010ED0036A1451D9
:1006B000290FE96E000E0320EA6EEFCF50F4010E11
:1006C0005F6E00013FDE01D040DE14D05C520EE0D0
:1006D000036A04011451290FE96E000E0320EA6E2B
:1006E00012C4EFFF5F6A00012DDE01D02EDE02D0C2
:1006F0002CDE00D04EEF04F05D905CBE5D805C9E11
:100700005DA017D0676B5CC066F0696B080E686F00
:10071000A0DD02C05FF001C05EF0040E5E26000E98
:100720005F225EC0E9FF040E5F24EA6E880EEF6E62
:100730000DD0676B5CC066F0696B080E686F89DD71
:1007400001C0E9FF040E0224EA6EEF6A1CEF04F018
:100750005D905CBE5D805C9E5DA017D0676B5CC0E9
:1007600066F0696B080E686F74DD02C05FF001C04F
:100770005EF0040E5E26000E5F225EC0E9FF040EEE
:100780005F24EA6E840EEF6E0ED0676B5CC066F07D
:10079000696B080E686F5DDD01C0E9FF040E02247D
:1007A000EA6E840EEF6E22EF04F05D905CBE5D8019
:1007B0005C9E5DA017D0676B5CC066F0696B080E2D
:1007C000686F47DD02C060F001C05FF0040E5F2675
:1007D000000E60235FC0E9FF040E6025EA6EEFCFD4
:1007E0005EF00ED0676B5CC066F0696B080E686FD8
:1007F00030DD01C0E9FF040E0224EA6EEFCF5EF0A7
:100800005EAE02D05EB402D0000E01D0010E016EC9
:100810002CEF04F014C466F0FADC015229E0040164
:100820001151010A000105E0020A09E0030A0DE086
:100830001DD014C45CF060D75F6A84DD19D014C485
:100840005CF086D75F6A7EDD13D00401506B516B7C
:1008500014C45CF00001A9D7015204E0010E0401A8
:10086000506F0001020E5F6E6DDD02D06EDD00D0B4
:100870004EEF04F01C6A040110517F0B000A0001C6
:1008800005E0010A05E0030A05E006D09BD606D084
:10089000ECD604D0BFD702D058DD00D09EEF05F0D3
:1008A000676B5CC066F0696B080E686FD2DC01C0D4
:1008B000E9FF040E0224EA6EEFCF5EF05D500208FD
:1008C00006E15EAC02D05D6A02D0010E5D6E5D5045
:1008D000030819E1840E5E6E676B5CC066F0696B9D
:1008E000080E686FB6DC02C062F001C061F0040E51
:1008F0006127000E622361C0E9FF040E6225EA6EE3
:10090000840EEF6E07D05D2C03D0C80E5E6E02D051
:10091000880E5E6ED8905C34036A7DEC00F00900AE
:10092000F5CF03F05F6E03C060F0676B5CC066F0EC
:10093000696B080E686F8DDC01C061F0010E012447
:10094000016E000E0220036E01C0E9FF040E0324B5
:10095000EA6E5FC0EFFF60B15E8060B35E82676B7E
:100960005CC066F0696B080E686F73DC01C0E9FF5C
:10097000040E0224EA6E5EC0EFFF000C036A6151B0
:10098000700FE96E0F0E0320EA6EEF5218E0676BEE
:1009900061C066F0696B080E686F5BDC02C063F0D3
:1009A00001C062F0040E6227000E632362C0E9FFFB
:1009B000040E6325EA6EEFCF62F062AF02D0000E44
:1009C00001D0010E016E000C5CC061F0D7DF015256
:1009D000D8B47AD0676B5CC066F0696B080E686F3C
:1009E00038DC02C062F001C061F0040E6127000E25
:1009F0006223010E6125016E000E6221036E01C0AB
:100A0000E9FF040E0324EA6E5DC0EFFF5F500208A9
:100A10001DE1676B5CC066F0696B080E686F19DCDE
:100A200002C062F001C061F0040E6127000E622373
:100A300061C0E9FF040E6225EA6EEFCF60F060ADA1
:100A400002D05F6A02D0010E5F6E18D05F500408BA
:100A500015E1676B5CC066F0696B080E686F29EC86
:100A600001F001C0E9FF040E0224EA6EEFCF60F04E
:100A700060AD03D0010E5F6E01D05F6A5F2C03D0C2
:100A8000C80E606F02D0880E606F5EB060815EB28B
:100A90006083676B5CC066F0696B080E686F29EC59
:100AA00001F002C062F001C061F0040E6127000E87
:100AB000622361C0E9FF040E6225EA6E60C0EFFFA9
:100AC000010E016E03D000D0000E016E000C5C52CE
:100AD00000E1000C5DC06EFF5D5203E0040E246E69
:100AE00002D0020E246E7AEF05F01D6A1C6A26C041
:100AF0005DF0F0D786EF05F05C5208E11C2C02D0C7
:100B000027DC04D01C50020801E1EFD7000C233091
:100B10005A6E5A325A321F0E5A16235242E10401BB
:100B200000513C0B5B6E430E00175B5034081EE116
:100B30000451800B01E0046B00019CD66D98253CAC
:100B400005D05C6A030E5D6EABDE0ED05C6A020EF1
:100B50005D6EA6DE2550FE0807E05C6A5E6A25C071
:100B60005DF0040E5F6E30DF19D004015B500408A5
:100B700016E15C6A0001ABDF5C6A020E5D6E90DE1E
:100B80002550FE080AE0253C01D007D05C6A5E6A69
:100B900025C05DF0010E5F6E17DF00D004017CD030
:100BA00000012350040814E1430E04010417FF0E52
:100BB000256E5C6A0001A0DF253C01D008D05C6A8C
:100BC0005E6A25C05DF0020E5F6EFEDE00D063D06F
:100BD00023B42AD0676B5AC066F0696B080E686F41
:100BE00029EC01F001C05CF001C001F0040E022408
:100BF000036E01C05CF05D6E676B5AC066F0696B96
:100C0000080E686F29EC01F001C0E9FF040E022410
:100C1000EA6EEF50430B5DC0EAFF5CC0E9FFEF6E88
:100C20005AC05CF054DF37D0676B5AC066F0696B0E
:100C3000080E686F29EC01F002C05DF001C05CF0A5
:100C4000040E5C26000E5D225CC001F0040E5D24E3
:100C5000036E5CC05CF05D6E676B5AC066F0696BDA
:100C6000080E686F29EC01F002C05FF001C05EF071
:100C7000040E5E26000E5F225EC0E9FF040E5F24B4
:100C8000EA6EEF50430B5DC0EAFF5CC0E9FFEF6E18
:100C90005AC05CF031DF0401000186EF06F0A19A32
:100CA000245201E139D0685237E068A404D069A425
:100CB00002D0E4EF00F06DA201D02ED068AA04D0DB
:100CC00069AA02D0FCEF00F068A204D069A202D0A9
:100CD00003EF01F068A004D069A002D085EF01F015
:100CE00068A804D069A802D09AEF01F068AC04D0DB
:100CF00069AC02D09FEF01F0596A68A608D069A6D6
:100D000006D06CCF23F002EC00F001D701D004D064
:100D10005950592A0308F1E23CEF00F032B001D0FB
:100D200010D08B8E939E8A8E8B82331C596E341C0E
:100D30005A6E592AD8B45A2A5AC0D7FF59C0D6FF7A
:100D40003284B4EF06F032A40ED08B9E939E8A9E1E
:100D50008B92000E335C596E7D0E3458D76E59C09D
:100D6000D6FF329401D0DAD7F2943CEF00F032B2E1
:100D700001D010D08B8C939C8A8C8B84351C596E3F
:100D8000361C5A6E592AD8B45A2A5AC0CFFF59C0B5
:100D9000CEFF3286DDEF06F032A60ED08B9C939C00
:100DA0008A9C8B94000E355C596E7D0E3658CF6E42
:100DB00059C0CEFF329601D0DAD79E903CEF00F0BA
:100DC00049313D252E32666D732C2049323D252E4A
:100DD00032666D730A006D6A696A080E6F6E945010
:100DE0003009946E246A196AF2BE198EF29E73EC71
:100DF00001F019BEF28EFEEF06F0EDD723EF07F0FB
:100E0000196AF2BE198EF29E73EC01F019BEF28ED1
:100E10006D6A140E6F6E696A6D86010E246E14EF92
:100E200007F06DB601D0ECD7242C0BD06DBA09D0E9
:100E3000686A696AA08AC00EF212110E696E020E0B
:100E4000246E000CDAD7EDDF24500208FCE1D6EF67
:100E50000DF0EA6A4D0EE96EEF500EE0050E016EE0
:100E6000006A002EFED7012EFBD72E0E006E002E3C
:100E7000FED700D0EF2EF2D7000C55B002D08998E3
:100E800001D08988929855B202D0899A01D0898A76
:100E9000929A55B402D08A9601D08A86939655B616
:100EA00002D08A9801D08A88939800008A8493940B
:100EB000020E006E002EFED700008A949394000C60
:100EC000566A9288000E80B8010E5612928A000E61
:100ED00080BA010E006ED8900036005056129386EC
:100EE000000E81B6010E006E00360036FC0E0016B4
:100EF000005056129388000E81B8010E006E003625
:100F000000360036F80E00160050561256C001F09A
:100F1000000C9288928A938693888A82939200002A
:100F20008A8493940000CCDF01C055F08A94939496
:100F300000008A84939400D000D0C2DF01C054F036
:100F40008A9493949298929A939693985538006EB7
:100F5000F00E001600505410016EB5EF07F0939498
:100F6000939093928A909390D4D701C054F001BE8D
:100F7000FBD7525202E18A9001D08A809390000000
:100F80008A92939200008A9493945338546E0F0E71
:100F9000541654C055F071DF53500F0B546E556EFC
:100FA0006CDF000C9298929A9396939893949390F6
:100FB00093928A9093908A9293928A9493940F0E2C
:100FC0004D6E47DF010E376E375003080AE3030EFC
:100FD000556E53DF556A51DF050E4D6E3ADF372AE5
:100FE000F3D7020E556E49DF556A47DF050E4D6E89
:100FF00030DF376A375003080AE3036A375063EC7F
:1010000000F0386E526A536EAADF372AF3D71A6A95
:101010001B6AD8EF0DF04F2C01D003D0400E506E5C
:1010200001D0506A010E4E5C502650508009516E1E
:10103000526A536E94DF010E4E5C1A6E010E4F5CC5
:101040001B6E000C4C50070A09E00B0A0CE0010A69
:1010500014E0070A1BE0020A2CE030D0010E4E6EAD
:101060004F6ED9DF35D0526A010E536E78DF020E13
:101070004D6EEFDE1A6A1B6A2BD0010E1B244D6EDB
:10108000010E4E6E4DC04FF0C6DF22D01A501A2A04
:10109000130806E3010E526E200E536E60DFF6D782
:1010A000020E1B244D6E010E4E6E4DC04FF0B3DF8D
:1010B0000FD0526A100E536E52DF0AD01A50130826
:1010C00006E3010E526E4CC053F049DF1A2A00D0DD
:1010D000000C1D50016E000C4150016A405C03E29F
:1010E00040C000F00CD0006A080E426E4036003658
:1010F0004150005CD8B0006E0136422EF7D7000C8C
:10110000200E3BA8300E3C6E3AC000F03AAE07D03D
:10111000001E002A00C03AF02D0E3C6E3B8E01509E
:101120003AC040F0640E416ED7DF00C03AF0300E96
:1011300001243D6E3AC040F00A0E416ECDDF300E04
:1011400000243F6E300E01243E6E3CC000F03BA6F2
:1011500002D03BAE3B943BB80BD03BAE22D03BB46D
:1011600020D000C03DF03BB21CD000C03EF019D0F2
:10117000300E3D5C16E100C03DF0200E3C6E3BA6FB
:1011800004D03B943B823BAE3B92300E3E5C09E187
:1011900000C03EF0200E3D6E3BA6F7D73B923BAE23
:1011A0003B903BA403D03CC04CF04CDF3BA203D0AF
:1011B0003DC04CF047DF3BA003D03EC04CF042DFC7
:1011C0003FC04CF03FDF000C8E0E006E3CC001F0C3
:1011D0003BC002F0036A015209E102C001F0026A59
:1011E000080E005E015202E1006A08D0D89001BEEC
:1011F00004D0023601360006F9D7019E000C3F509C
:10120000D8B4A5D04B6E4350D8B4A1D04B5E05E303
:101210007F0E4B26D8B09BD006D0810E4B5ED8A057
:1012200096D0D8B494D04BC000F0016A026A036A29
:101230004A6A40C049F0498E41C048F042C047F078
:10124000190E4B6E4650475E0DE2010E485E0AE2F3
:10125000495E08E24A5E06E24A2A492A482A46507E
:10126000472628D04550485E12E2010E495E0FE243
:101270004A5E0DE24A2A492A4550482646504726EA
:1012800019E3482A17E1492A15E14A2A13D04450A4
:101290008009495E0EE2010E4A5E0BE24A2A445082
:1012A0008009492645504826E9E3492AE7E14A2AC8
:1012B000E5D703804B2E01D00BD0D8904736483667
:1012C00049364A36D8900336023601364C36BAD7FC
:1012D0004CA006D0D8900132023203324C3202D0F8
:1012E000000635E04CBE1ED0D89047364836493609
:1012F0004A364650475E07E2010E485E04E2495E08
:1013000002E24A5E1AE34550485E05E2010E495E7C
:1013100002E24A5E12E344508009495E03E2010E94
:101320004A5E0BE3032A09E1022A07E1012A05E1EB
:10133000002A0DE001320232033240C04BF044502B
:101340004B1A4BAE02D0018E06D0019E04D0006A2B
:10135000016A026A036A000C4C50D8B471D0006E66
:101360005050D8B46DD0002604E3810E002668E208
:1013700004D07F0E005E64E363E04DC054F0515032
:10138000541A4D8E518E4F505302F4CF56F04E509A
:101390005202F4CF03F0F3CF55F05302F350562628
:1013A000F4505522000E03224F505202F35056269D
:1013B000F4505522000E026A032202224D505302BD
:1013C000F3505526F4500322000E02224D505202D3
:1013D000F3500326F4500222000E016A01224F50FE
:1013E0005102F3505526F4500322000E022201222E
:1013F0004E505102F3500326F4500222000E0122F7
:101400004D505102F3500226F4500122002A01BE31
:1014100005D055360336023601360006000E55AEAD
:101420000AD0032A02220122015005E1025003E101
:10143000035001E1002A54BE018E54AE019E04D037
:10144000006A016A026A036AA1EF0AF04C50B6080A
:101450004C6E036A4DC050F04D8ED8904D324E32D6
:101460004F3203320232013200324C2EF6D750AEE8
:101470000BD0001E011E021E031E002AD8B4012A32
:10148000D8B4022AD8B4032AB4EF0AF0D8B203D0F1
:10149000EA6A540EE96E006A016A026A036A546AD3
:1014A000556A566A576A53505210511050102CE02A
:1014B000200E586ED8904C364D364E364F36543638
:1014C0005536563657365350575C08E15250565CE5
:1014D00005E15150555C02E15050545C0FE350500F
:1014E000545E5150D8A0513C555E5250D8A0523C49
:1014F000565E5350D8A0533C575ED8800036013614
:1015000002360336582ED6D754C0EFFF55C0ECFF35
:1015100056C0ECFF57C0ECFF000CE950446E43503E
:10152000466E19E042C04FF041C04EF040C04DF051
:101530003FC04CF0536A526A200E516E820E506EBC
:101540000BD703C042F002C041F001C040F000C020
:101550003FF0462EE7D742C04FF041C04EF040C0AA
:101560004DF03FC04CF072D703C042F002C041F0D2
:1015700001C040F000C03FF042AE0DD04406448AA6
:101580003F1E401E411E421E3F2AD8B4402AD8B4F6
:10159000412AD8B4422A3B0E4B6E9A0E4A6ECA0EAE
:1015A000496E486A0A0E466E4350D8B4442AD8821F
:1015B000EA6A3F0EE96E42C04FF041C04EF040C0B3
:1015C0004DF03FC04CF04BC053F04AC052F049C000
:1015D00051F048C050F05ADF015000520FE143284B
:1015E000465C0CE044500CE00F0B465C01E037E237
:1015F00044BE35D044BC04D0200E2DD0200E44165D
:1016000044AA0CD0449A4350D8A444060050446ED7
:101610002D0E4C6E17DD4450006E446A4350465CFC
:101620000AE10050446E2E0E4C6E0CDD4450006EEC
:10163000200E4416000E300E44AA0DD0449A43509A
:10164000D8A444060050446E2D0E4C6EFBDC445072
:10165000006E446A300E002600C04CF0F3DCD892D5
:101660004BC04FF04AC04EF049C04DF048C04CF05E
:10167000536A526A516A0A0E506E08DF03C04BF07B
:1016800002C04AF001C049F000C048F0462E8FD792
:10169000000C0900F6CF40F0F7CF41F0F5CF4CF049
:1016A000D1DC40C0F6FF41C0F7FF3F2EF2D70BEF71
:1016B0000CF0010E4E6E4F6EAEDC0BDD01C037F04C
:1016C000000E32B0010E386E000E32B2010E396ECD
:1016D00001C03AF01F0E3B6E13DD38C03AF01F0E0A
:1016E0003B6E0EDD39C03AF01F0E3B6E09DD0A0E6F
:1016F0004C6EA8DC34C03CF033C03BF065DD00C06C
:1017000037F001C038F002C039F003C03AF003C02E
:1017100042F002C041F001C040F000C03FF0466A14
:10172000456A480E446E850E436E69DD00C037F091
:1017300001C038F002C039F003C03AF003C042F0F3
:1017400002C041F001C040F000C03FF0466A456A67
:10175000446A830E436E53DD00C037F001C038F099
:1017600002C039F003C03AF036C03CF035C03BF05F
:101770002BDD00C03BF001C03CF002C03DF003C0D7
:101780003EF003C042F002C041F001C040F000C092
:101790003FF0466A456A480E446E850E436E2FDD63
:1017A00000C03BF001C03CF002C03DF003C03EF081
:1017B00003C042F002C041F001C040F000C03FF061
:1017C000466A456A446A830E436E19DD00C03BF0E9
:1017D00001C03CF002C03DF003C03EF0490E4C6E2B
:1017E00031DC310E4C6E2EDC3D0E4C6E2BDC890E46
:1017F000E96E3AC042F039C041F038C040F037C01D
:101800003FF0020E436E89DEC70EF66E0D0EF76EC8
:10181000070E3F6E3ED7890EE96E3EC042F03DC0D6
:1018200041F03CC040F03BC03FF0020E436E75DE1D
:101830006D0E4C6E07DC730E4C6E04DC0A0E4C6EA3
:1018400001DC000C3750000A03E0010A0EE01AD058
:101850003834336E3934346E3336343633363436C6
:1018600033363436F00E33160DD03834356E393405
:10187000366E353636363536363635363636F00E41
:10188000351600D0000C000E32B0010E375C08E0B7
:10189000329037B03280375202E0F28A01D0F29AA9
:1018A000000E32B2010E385C08E0329238B032825B
:1018B000385202E09D8001D09D90000C036A3750A1
:1018C000700FE96E0F0E0320EA6EEF5219E0196AED
:1018D000F2BE198EF29E676B37C066F0696B080E18
:1018E000686F29EC01F019BEF28E02C039F001C018
:1018F000E9FF040E0224EA6EEFCF38F038AE02D0D2
:10190000000E01D0010E016EFFEF0DF0196AF2BE5C
:10191000198EF29E676B3CC066F0696B080E686FAB
:1019200029EC01F019BEF28E01C046F0020E01242E
:10193000016E000E0220036E01C0E9FF040E0324B5
:10194000EA6EECCF03F0ED52EFCF41F003C042F06E
:10195000196AF2BE198EF29E676B3CC066F0696B25
:10196000080E686F29EC01F019BEF28E01C046F036
:10197000010E0124016E000E0220036E01C0E9FF7A
:10198000040E0324EA6EEF50036A446E03C045F070
:10199000196AF2BE198EF29E676B3CC066F0696BE5
:1019A000080E686F29EC01F019BEF28E01C0E9FF44
:1019B000040E0224EA6EEFCF43F043B0458043B2F9
:1019C00045824550405C08E303E13F50445C04E23B
:1019D00045C040F044C03FF03EC0EAFF3DC0E9FFD3
:1019E00042C0E2FF41C0E1FF40C002F03FC001F051
:1019F000015202E0022A02D0025206E0E6CFEEFFD8
:101A0000012EFCD7022EFAD73FC001F040C002F0F1
:101A100015EF0DF037C03CF039C03EF038C03DF056
:101A20003BC040F03AC03FF071D702C03BF001C06C
:101A30003AF0196AF2BE198EF29E37C05CF0020EBF
:101A40005D6E50EC04F019BEF28E3AC001F03BC05E
:101A500002F00AEF0EF0196AF2BE198EF29E37C03C
:101A600061F0BEEC04F019BEF28E015253E0196A27
:101A7000F2BE198EF29E676B37C066F0696B080E76
:101A8000686F29EC01F019BEF28E02C040F001C06F
:101A90003FF0040E3F26000E4022020E3F24016E4E
:101AA000000E4020036E01C0E9FF040E0324EA6E1D
:101AB000ECCF03F0ED52EFCF3DF003C03EF03EC05F
:101AC000EAFF3DC0E9FF39C0E2FF38C0E1FF3BC09B
:101AD00002F03AC001F0015202E0022A02D00252A2
:101AE00006E0E6CFEEFF012EFCD7022EFAD7196AE8
:101AF000F2BE198EF29E37C05CF03BC05EF03AC079
:101B00005DF03CC05FF0E4EC04F019BEF28E0150D1
:101B100003D000D0000E016E000C2A50010A05E02F
:101B2000030A12E0010A16E01DD0010E2E6E2F6A84
:101B3000306E376E396A2E0E386E3B6A030E3A6E7F
:101B4000020E3C6E88DF1CD02BC037F02CC038F062
:101B50009ADE08D02BC037F02DC039F02CC038F0F9
:101B600071DE00D02E6A2F6A010E376E396A2E0E92
:101B7000386E3B6A030E3A6E020E3C6E6CDF99DDE6
:101B80000DEF0EF0F86AD09E078EEA6AE96A246AC1
:101B9000286AC150C00B0F09C16E070EB46E206ACF
:101BA000040E216E0C0E226E22EF07F0D2EF07F02A
:101BB0000C0E4C6E22EC08F0010E4D6E29EC07F075
:101BC00078DD000E936E946E376A396A386A3ADEB1
:101BD000010E376E396A386A35DE820ED56EB50E63
:101BE000CD6EC00EF212376A386A4DDE11EC07F086
:101BF00069EC08F0015211E0010E376E5FD6015218
:101C00000CE0010E376E396A2A0E386E3B6A040EFC
:101C10003A6E00D701C031F080D7010E4D6E29EC2D
:061C200007F0E4D7030009
:020000040030CA
:0E00000022CE390E000381000FC00FE00F402A
:00000001FF
;PIC18F2550
;CRC=434F  CREATED="05-апр-11 20:46"
