:10000000B8EF0DF06896000C046ED8CF05F0E0CF85
:1000100006F00001E9CF0CF0EACF07F0E1CF08F0DD
:10002000E2CF09F0D9CF0AF0DACF0BF0F3CF12F01C
:10003000F4CF13F0FACF14F0F5CF15F0F6CF16F099
:10004000F7CF17F000C00EF001C00FF002C010F0A3
:1000500003C011F0F2AA30EF00F0F2B4B4EF06F0F2
:100060009DA036EF00F09EB0C9EF06F0A0AA3CEFCD
:1000700000F0A1BA4EEF06F00EC000F00FC001F084
:1000800010C002F011C003F00CC0E9FF07C0EAFF86
:10009000078E08C0E1FF09C0E2FF0AC0D9FF0BC00C
:1000A000DAFF12C0F3FF13C0F4FF14C0FAFF15C04B
:1000B000F5FF16C0F6FF17C0F7FF045006C0E0FFBB
:1000C00005C0D8FF1000F76AD60FF66E000EF722B3
:1000D0000900F5501200280C0106F76AEA0FF66EC7
:1000E000000EF7220900F55012000002FFFFFFFF8B
:1000F000FFFFFFFFFFFFFFFFFFFFF76A0A0FF66E2C
:10010000010EF7220900F5501200400040000000E7
:1001100000000000000000000000000000000000DF
:1001200000000000000000000000F76A3A0FF66EC1
:10013000010EF7220900F55012000902200001010A
:100140000080320904000002FFFFFF000705810361
:1001500040000107050103400001F76A6A0FF66ECF
:10016000010EF7220900F55012000100F76A7C0F1A
:10017000F66E010EF7220900F5501200120100027E
:1001800000000040D80402D0000101020001F76A1B
:100190009E0FF66E010EF7220900F55012000403BF
:1001A00009040803530048004D001E03520061007B
:1001B000640069006F0042006F006100740020005D
:1001C0004300740072006C006D92699468A402D0C0
:1001D0006894FCD75AEF06F0400E0401016F040E3C
:1001E000036F100E026F880E006F046B040E076F12
:1001F000500E066F0001000C70A002D0EDDF709071
:10020000689A63EF06F06A6A689269EF06F0A29155
:10021000A1BFA281A19FA151100803E2000E016EAF
:1002200017D0A2A10BD0036AA15157DFFF0802E14A
:10023000000E01D0010E016E0BD00AD0036AA1514D
:100240004CDFFF0802E1000E01D0010E016E00D06C
:10025000000CA151A303F3CF01F0F4CF00F0A403ED
:10026000F3500026A251A303F3500020026E000CAD
:10027000036AA051700FE96E0F0E0320EA6EEF6A59
:10028000A0C0A1F0C4DF015222E0A26BA0C0A1F087
:10029000A46B080EA36FDDDF01C0E9FF040E02248A
:1002A000EA6EEF6AA26BA0C0A1F0A46B080EA36F68
:1002B000D0DF02C0A2F001C0A1F0040EA127000E01
:1002C000A223A1C0E9FF040EA225EA6EEF6A000C8A
:1002D000010E9F6F9F510F0805E39FC0A0F0C8DF7C
:1002E0009F2BF8D7000C956B95530AE1036A955143
:1002F000290FE96E000E0320EA6EEF6A952BF4D702
:100300001D6A010E1E6E1C6A000C6A6A686A9F0EE6
:100310006B6E3D0E696E6E6ADBDFE5DF160E706E8A
:1003200068A602D06FDEFCD76D9856DF030E246EF0
:100330006FEF06F0698468986D8275EF06F0689C2F
:100340007BEF06F09AC025F0000CFF0E256E000C26
:10035000986B285226E098513F0823E31F5005E090
:10036000020A08E0010A0BE00FD0036A2750DDDE25
:10037000996F0AD0036A27500ADF996F05D0036A84
:100380002750F4DE996F00D0272A28069851982B21
:10039000500FE96E040EEA6ED8B0EA2A99C0EFFF5A
:1003A000D8D7285204E19851400801E01C6A98C04F
:1003B0009AF0C8DF000C276A1F6A04011351010A72
:1003C000000105E0030A08E0010A09E01AD0120E54
:1003D000286E030E1F6E17D0200E286E14D0020E4A
:1003E0001F6E036A04011251200FE96E000E0320F4
:1003F000EA6EEFCF27F0036A27500001C8DE286EAF
:1004000002D0A3DF0CD00401175305E12850165D7C
:1004100002E216C428F0010E1C6E000199DF33EFD2
:1004200003F0975304E1040E246E52DFC9D0050E89
:10043000246E040E9A6F900E996F010E986F98516A
:100440000F08D8A0BDD098C0A0F012DF9B6B036A44
:10045000985143DEFF0859E0040E9B6FD890983501
:10046000036A4BDE0900F5CF03F09C6F03C09DF0DB
:10047000A26B98C0A1F0A46B080EA36FEADE01C0C6
:100480009FF0010E0124016E000E0220036E01C0D8
:10049000E9FF040E0324EA6E9CC0EFFFA26B98C034
:1004A000A1F0A46B080EA36FD4DE01C09FF0020E72
:1004B0000124016E000E0220036E01C0E9FF040E4C
:1004C0000324EA6E9AC0ECFFED5299C0EFFFD8907A
:1004D0009835036A12DE0900F5CF03F0992703501F
:1004E0009A23880E9E6F9DB19E819DB39E83A26BC1
:1004F00098C0A1F0A46B080EA36FABDE01C0E9FFAA
:10050000040E0224EA6E9EC0EFFF036A9851E5DDF7
:10051000FF0840E09B83A26B98C0A1F0A46B080E7B
:10052000A36F97DE02C0A0F001C09FF0040E9F27CA
:10053000000EA023020E9F25016E000EA021036E67
:1005400001C0E9FF040E0324EA6E9AC0ECFFED52ED
:1005500099C0EFFFD8909835036ACFDD0900F5CF39
:1005600003F0992703509A23A26B98C0A1F0A46BC3
:10057000080EA36F6EDE02C0A0F001C09FF0040E53
:100580009F27000EA0239FC0E9FF040EA025EA6E5E
:10059000400EEF6E9B51060802E10E0E9B6F036A40
:1005A00098519BDD0108D8A49B89036A9851700F6C
:1005B000E96E0F0E0320EA6E9BC0EFFF982B3FD72A
:1005C0002DEF03F004011151000A00010DE0010AB2
:1005D00014E0020A1EE0060A27E0030A2CE00E0AD5
:1005E0002CE0010A30E03DD01EC050F40401516BF4
:1005F000020E00019A6FA6DE36D00401122D06D03D
:10060000010E1E1600019A6B9DDE02D000019DDED8
:100610002AD00401122D05D01E8200019A6B92DEB1
:1006200002D0000192DE1FD0020E1C6E12C426F012
:100630009A6B88DE18D0BFD616D01DC050F4010EBC
:100640009A6F80DE10D004011251010808E312C431
:100650001DF012C497F00001E4D69A6B73DE00011E
:1006600002D073DE00D04EEF04F01DC097F00401FD
:100670001151000A000105E00A0A0BE0010A26E018
:1006800037D00401506B516B020E00019A6F5ADE95
:1006900031D0975319E0010E975D036A5EDD016E5C
:1006A0000401145DD8A002D000010ED0036A1451D9
:1006B000290FE96E000E0320EA6EEFCF50F4010E11
:1006C00000019A6F3FDE01D040DE14D097530EE058
:1006D000036A04011451290FE96E000E0320EA6E2B
:1006E00012C4EFFF00019A6B2DDE01D02EDE02D086
:1006F0002CDE00D04EEF04F0989197BF9881979F21
:1007000098A117D0A26B97C0A1F0A46B080EA36F9D
:10071000A0DD02C09AF001C099F0040E9927000EE6
:100720009A2399C0E9FF040E9A25EA6E880EEF6EAF
:100730000DD0A26B97C0A1F0A46B080EA36F89DD4A
:1007400001C0E9FF040E0224EA6EEF6A1CEF04F018
:10075000989197BF9881979F98A117D0A26B97C047
:10076000A1F0A46B080EA36F74DD02C09AF001C063
:1007700099F0040E9927000E9A2399C0E9FF040E00
:100780009A25EA6E840EEF6E0ED0A26B97C0A1F090
:10079000A46B080EA36F5DDD01C0E9FF040E022407
:1007A000EA6E840EEF6E22EF04F0989197BF988165
:1007B000979F98A117D0A26B97C0A1F0A46B080EC9
:1007C000A36F47DD02C09BF001C09AF0040E9A2788
:1007D000000E9B239AC0E9FF040E9B25EA6EEFCF23
:1007E00099F00ED0A26B97C0A1F0A46B080EA36F76
:1007F00030DD01C0E9FF040E0224EA6EEFCF99F06C
:1008000099AF02D099B502D0000E01D0010E016E51
:100810002CEF04F014C4A1F0FADC015229E0040129
:100820001151010A000105E0020A09E0030A0DE086
:100830001DD014C497F060D79A6B84DD19D014C40E
:1008400097F086D79A6B7EDD13D00401506B516B05
:1008500014C497F00001A9D7015204E0010E04016D
:10086000506F0001020E9A6F6DDD02D06EDD00D078
:100870004EEF04F01C6A040110517F0B000A0001C6
:1008800005E0010A05E0030A05E006D09BD606D084
:10089000ECD604D0BFD702D058DD00D0A3EF05F0CE
:1008A000A26B97C0A1F0A46B080EA36FD2DC01C0AD
:1008B000E9FF040E0224EA6EEFCF99F09851020886
:1008C00006E199AD02D0986B02D0010E986F985155
:1008D000030819E1840E996FA26B97C0A1F0A46B75
:1008E000080EA36FB6DC02C09DF001C09CF0040EA0
:1008F0009C27000E9D239CC0E9FF040E9D25EA6EF7
:10090000840EEF6E07D0982D03D0C80E996F02D0D9
:10091000880E996FD8909735036A7DEC00F0090036
:10092000F5CF03F09A6F03C09BF0A26B97C0A1F0C4
:10093000A46B080EA36F8DDC01C09CF0010E012496
:10094000016E000E0220036E01C0E9FF040E0324B5
:10095000EA6E9AC0EFFF9BB199819BB39983A26B1A
:1009600097C0A1F0A46B080EA36F73DC01C0E9FF70
:10097000040E0224EA6E99C0EFFF000C036A9C513A
:10098000700FE96E0F0E0320EA6EEF5218E0A26BB3
:100990009CC0A1F0A46B080EA36F5BDC02C09EF0AC
:1009A00001C09DF0040E9D27000E9E239DC0E9FF0F
:1009B000040E9E25EA6EEFCF9DF09DAF02D0000E93
:1009C00001D0010E016EE8EF04F097C09CF0D6D77D
:1009D0000152D8B47AD0A26B97C0A1F0A46B080ED4
:1009E000A36F37DC02C09DF001C09CF0040E9C2771
:1009F000000E9D23010E9C25016E000E9D21036EAD
:100A000001C0E9FF040E0324EA6E98C0EFFF9A517B
:100A100002081DE1A26B97C0A1F0A46B080EA36FA2
:100A200018DC02C09DF001C09CF0040E9C27000E53
:100A30009D239CC0E9FF040E9D25EA6EEFCF9BF03D
:100A40009BAD02D09A6B02D0010E9A6F18D09A51CA
:100A5000040815E1A26B97C0A1F0A46B080EA36F68
:100A600029EC01F001C0E9FF040E0224EA6EEFCF89
:100A70009BF09BAD03D0010E9A6F01D09A6B9A2D1B
:100A800003D0C80E9B6F02D0880E9B6F99B19B81DB
:100A900099B39B83A26B97C0A1F0A46B080EA36FC0
:100AA00029EC01F002C09DF001C09CF0040E9C27CF
:100AB000000E9D239CC0E9FF040E9D25EA6E9BC09D
:100AC000EFFF010E016E03D000D0000E016E000C8E
:100AD000975300E1000C98C06EFF985303E0040E9A
:100AE000246E02D0020E246E7BEF05F01D6A1C6A94
:100AF00026C098F0F0D787EF05F0975308E11C2C3B
:100B000002D026DC04D01C50020801E1EFD7000C13
:100B10002330956F953395331F0E9517235242E17D
:100B2000040100513C0B0001966F430E04010017B5
:100B30000001965134081EE104010451800B01E0CC
:100B4000046B000197D66D98253C05D0976B030E7A
:100B5000986FA6DE0ED0976B020E986FA1DE25501F
:100B6000FE0807E0976B996B25C098F0040E9A6F0A
:100B70002CDF17D09651040814E1976BA9DF976B0F
:100B8000020E986F8DDE2550FE080AE0253C01D04C
:100B900007D0976B996B25C098F0010E9A6F15DFFF
:100BA00000D07AD02350040814E1430E0401041746
:100BB000FF0E256E0001976BA0DF253C01D008D009
:100BC000976B996B25C098F0020E9A6FFEDE00D0ED
:100BD00063D023B42AD0A26B95C0A1F0A46B080EF9
:100BE000A36F29EC01F001C097F001C001F0040EE1
:100BF0000224036E01C097F0986FA26B95C0A1F01C
:100C0000A46B080EA36F29EC01F001C0E9FF040EEC
:100C10000224EA6EEF50430B98C0EAFF97C0E9FF49
:100C2000EF6E95C097F054DF37D0A26B95C0A1F05E
:100C3000A46B080EA36F29EC01F002C098F001C06C
:100C400097F0040E9727000E982397C001F0040E2A
:100C50009825036E97C097F0986FA26B95C0A1F08E
:100C6000A46B080EA36F29EC01F002C09AF001C03A
:100C700099F0040E9927000E9A2399C0E9FF040EFB
:100C80009A25EA6EEF50430B98C0EAFF97C0E9FF40
:100C9000EF6E95C097F031DF85EF06F0A19A2452F0
:100CA00001E139D0685237E068A404D069A402D0C9
:100CB000E4EF00F06DA201D02ED068AA04D069AA9A
:100CC00002D0FCEF00F068A204D069A202D003EFCA
:100CD00001F068A004D069A002D085EF01F068A8F7
:100CE00004D069A802D09AEF01F068AC04D069ACD6
:100CF00002D09FEF01F0946B68A608D069A606D0D9
:100D00006CCF23F002EC00F003D701D004D0945153
:100D1000942B0308F1E23CEF00F06BB101D023D03B
:100D2000945311E18B8E939E8A8E8B826E1D956FEC
:100D30006F1D966F952BD8B4962B96C0D7FF95C094
:100D4000D6FF6B8310D08B8C939C8A8C8B84701D08
:100D5000956F711D966F952BD8B4962B96C0CFFFCB
:100D600095C0CEFF6B85000C6BA30ED08B9E939E1F
:100D70008A9E8B92000E6E5D946F7D0E6F59D76EBA
:100D800094C0D6FF6B9302D0946BC7DFF2943CEF14
:100D900000F06BA50ED08B9C939C8A9C8B94000ECC
:100DA000705D946F7D0E7159CF6E94C0CEFF6B95C0
:100DB00003D0010E946FB1DF9E903CEF00F02564EC
:100DC00025642C2043313D256425252C2043323DCC
:100DD000256425250A0049313D252E32666D732C88
:100DE0002049323D252E32666D730A006D6A696AAC
:100DF000080E6F6E94503009946E246A196AF2BE20
:100E0000198EF29E73EC01F019BEF28E09EF07F015
:100E1000EDD72EEF07F0196AF2BE198EF29E73EC31
:100E200001F019BEF28E6D6A140E6F6E696A6D86DE
:100E3000010E246E1FEF07F06DB601D0ECD7242C05
:100E40000BD06DBA09D0686A696AA08AC00EF21226
:100E5000110E696E020E246E000CDAD7EDDF2450FD
:100E60000208FCE1CCEF0DF0EA6A880EE96EEF5063
:100E70000EE0050E016E006A002EFED7012EFBD794
:100E80002E0E006E002EFED700D0EF2EF2D7000CF3
:100E900090B102D0899801D08988929890B302D0FD
:100EA000899A01D0898A929A90B502D08A9601D007
:100EB0008A86939690B702D08A9801D08A889398B0
:100EC00000008A849394020E006E002EFED700006C
:100ED0008A949394000C916B9288000E80B8010E56
:100EE0009113928A000E80BA010E006ED8900036DF
:100EF000005091139386000E81B6010E006E0036ED
:100F00000036FC0E0016005091139388000E81B835
:100F1000010E006E003600360036F80E0016005046
:100F2000911391C001F0000C9288928A9386938865
:100F30008A82939200008A8493940000CCDF01C0DF
:100F400090F08A94939400008A84939400D000D007
:100F5000C2DF01C08FF08A9493949298929A9396EC
:100F600093989039006EF00E001600508F11016EAC
:100F7000C0EF07F09394939093928A909390D4D774
:100F800001C08FF001BEFBD78D5302E18A9001D0E2
:100F90008A80939000008A92939200008A9493949E
:100FA0008E398F6F0F0E8F178FC090F071DF8E51BB
:100FB0000F0B8F6F906F6CDF000C9298929A939644
:100FC00093989394939093928A9093908A92939209
:100FD0008A9493940F0E886F47DF010E726F7251DF
:100FE00003080AE3030E906F53DF906B51DF050E89
:100FF000886F3ADF722BF3D7020E906F49DF906B48
:1010000047DF050E886F30DF726B725103080AE309
:10101000036A725163EC00F0736F8D6B8E6FAADF01
:10102000722BF3D71A6A1B6ACEEF0DF08A2D01D00E
:1010300003D0400E8B6F01D08B6B010E895D8B2727
:101040008B5180098C6F8D6B8E6F94DF010E895DE3
:101050001A6E010E8A5D1B6E000C8751070A09E0AB
:101060000B0A0CE0010A14E0070A1BE0020A2CE05C
:1010700030D0010E896F8A6FD9DF35D08D6B010EAC
:101080008E6F78DF020E886FEFDE1A6A1B6A2BD034
:10109000010E1B24886F010E896F88C08AF0C6DF9D
:1010A00022D01A501A2A130806E3010E8D6F200E63
:1010B0008E6F60DFF6D7020E1B24886F010E896FDA
:1010C00088C08AF0B3DF0FD08D6B100E8E6F52DFA9
:1010D0000AD01A50130806E3010E8D6F87C08EF0F8
:1010E00049DF1A2A00D0000C1D50016E000C7B5104
:1010F000016A7A5D03E27AC000F00CD0006A080E43
:101100007C6F7A3700367B51005CD8B0006E0136B8
:101110007C2FF7D7000C200E75A9300E766F74C0A7
:1011200000F074AF07D0001E002A00C074F02D0E2E
:10113000766F758F015074C07AF0640E7B6FD7DFC5
:1011400000C074F0300E0124776F74C07AF00A0E7C
:101150007B6FCDDF300E0024796F300E0124786F65
:1011600076C000F075A702D075AF759575B90BD034
:1011700075AF22D075B520D000C077F075B31CD004
:1011800000C078F019D0300E775D16E100C077F01E
:10119000200E766F75A704D07595758375AF75931E
:1011A000300E785D09E100C078F0200E776F75A7EA
:1011B000F7D7759375AF759175A503D076C087F095
:1011C0004CDF75A303D077C087F047DF75A103D04C
:1011D00078C087F042DF79C087F03FDF000C09005C
:1011E000F6CF7BF0F7CF7CF0F5CF87F036DF7BC012
:1011F000F6FF7CC0F7FF7A2FF2D7000C8E0E006E40
:1012000077C001F076C002F0036A015209E102C022
:1012100001F0026A080E005E015202E1006A08D085
:10122000D89001BE04D0023601360006F9D7019EDF
:10123000000C7A51D8B4A5D0866F7E51D8B4A1D015
:10124000865F05E37F0E8627D8B09BD006D0810E3F
:10125000865FD8A096D0D8B494D086C000F0016A3A
:10126000026A036A856B7BC084F0848F7CC083F044
:101270007DC082F0190E866F8151825F0DE2010EF2
:10128000835F0AE2845F08E2855F06E2852B842B98
:10129000832B8151822728D08051835F12E2010E77
:1012A000845F0FE2855F0DE2852B842B80518327BD
:1012B0008151822719E3832B17E1842B15E1852BBC
:1012C00013D07F518009845F0EE2010E855F0BE22F
:1012D000852B7F518009842780518327E9E3842B64
:1012E000E7E1852BE5D70380862F01D00BD0D8907E
:1012F0008237833784378537D890033602360136F4
:101300008737BAD787A106D0D8900132023203328C
:10131000873302D0000635E087BF1ED0D8908237D1
:101320008337843785378151825F07E2010E835FFF
:1013300004E2845F02E2855F1AE38051835F05E285
:10134000010E845F02E2855F12E37F518009845FB2
:1013500003E2010E855F0BE3032A09E1022A07E19C
:10136000012A05E1002A0DE00132023203327BC07E
:1013700086F07F51861B86AF02D0018E06D0019E7B
:1013800004D0006A016A026A036A000C8751D8B46B
:1013900071D0006E8B51D8B46DD0002604E3810E5D
:1013A000002668E204D07F0E005E64E363E088C03C
:1013B0008FF08C518F1B888F8C8F8A518E03F4CFC6
:1013C00091F089518D03F4CF03F0F3CF90F08E03A9
:1013D000F3509127F4509023000E03228A518D037D
:1013E000F3509127F4509023000E026A0322022248
:1013F00088518E03F3509027F4500322000E0222EE
:1014000088518D03F3500326F4500222000E016A26
:1014100001228A518C03F3509027F4500322000ECE
:101420000222012289518C03F3500326F450022238
:10143000000E012288518C03F3500226F450012241
:10144000002A01BE05D09037033602360136000669
:10145000000E90AF0AD0032A02220122015005E1BA
:10146000025003E1035001E1002A8FBF018E8FAFCC
:10147000019E04D0006A016A026A036ABBEF0AF0A7
:101480008751B608876F036A88C08BF0888FD89021
:10149000883389338A330332023201320032872F94
:1014A000F6D78BAF0BD0001E011E021E031E002AB2
:1014B000D8B4012AD8B4022AD8B4032ACEEF0AF04D
:1014C000D8B203D0EA6A8F0EE96E006A016A026A36
:1014D000036A8F6B906B916B926B8E518D118C1197
:1014E0008B112CE0200E936FD8908737883789377F
:1014F0008A378F379037913792378E51925D08E156
:101500008D51915D05E18C51905D02E18B518F5DB4
:101510000FE38B518F5F8C51D8A08C3D905F8D5124
:10152000D8A08D3D915F8E51D8A08E3D925FD8801E
:101530000036013602360336932FD6D78FC0EFFF21
:1015400090C0ECFF91C0ECFF92C0ECFF000CE950A2
:101550007F6F7E51816F19E07DC08AF07CC089F079
:101560007BC088F07AC087F08E6B8D6B200E8C6FFD
:10157000820E8B6F0BD703C07DF002C07CF001C0E0
:101580007BF000C07AF0812FE7D77DC08AF07CC065
:1015900089F07BC088F07AC087F072D703C07DF0F5
:1015A00002C07CF001C07BF000C07AF07DAF0DD0AE
:1015B0007F077F8B7A1F7B1F7C1F7D1F7A2BD8B400
:1015C0007B2BD8B47C2BD8B47D2B3B0E866F9A0E28
:1015D000856FCA0E846F836B0A0E816F7E51D8B4FB
:1015E0007F2BD882EA6A7A0EE96E7DC08AF07CC0D1
:1015F00089F07BC088F07AC087F086C08EF085C005
:101600008DF084C08CF083C08BF05ADF0150005203
:101610000FE17E29815D0CE07F510CE00F0B815DB5
:1016200001E037E27FBF35D07FBD04D0200E2DD042
:10163000200E7F177FAB0CD07F9B7E51D8A47F07F5
:1016400000507F6F2D0E876F08DD7F51006E7F6B1E
:101650007E51815D0AE100507F6F2E0E876FFDDCA9
:101660007F51006E200E7F17000E300E7FAB0DD025
:101670007F9B7E51D8A47F0700507F6F2D0E876F10
:10168000ECDC7F51006E7F6B300E002600C087F0CF
:10169000E4DCD89286C08AF085C089F084C088F0E6
:1016A00083C087F08E6B8D6B8C6B0A0E8B6F08DF9F
:1016B00003C086F002C085F001C084F000C083F052
:1016C000812F8FD7000C010E896F8A6FAFDC0CDD84
:1016D00001C072F0000E6BB1010E736F01C074F0A7
:1016E0001F0E756F18DD73C074F01F0E756F13DD5C
:1016F000C20EF66E0D0EF76E050E7A6F70DD6CC0C1
:1017000074F01F0E756F07DD250E876FA6DCCB0EFC
:10171000F66E0D0EF76E050E7A6F61DD6DC074F01A
:101720001F0E756FF8DC250E876F97DC0A0E876F2A
:1017300094DC6FC077F06EC076F060DD00C072F0B0
:1017400001C073F002C074F003C075F003C07DF0F7
:1017500002C07CF001C07BF000C07AF0816B806B2E
:10176000480E7F6F850E7E6F64DD00C072F001C091
:1017700073F002C074F003C075F003C07DF002C0C6
:101780007CF001C07BF000C07AF0816B806B7F6BD6
:10179000830E7E6F4EDD00C072F001C073F002C098
:1017A00074F003C075F071C077F070C076F026DD7C
:1017B00000C076F001C077F002C078F003C079F085
:1017C00003C07DF002C07CF001C07BF000C07AF065
:1017D000816B806B480E7F6F850E7E6F2ADD00C0A7
:1017E00076F001C077F002C078F003C079F003C052
:1017F0007DF002C07CF001C07BF000C07AF0816B0C
:10180000806B7F6B830E7E6F14DD00C076F001C0AD
:1018100077F002C078F003C079F0490E876F1DDCC5
:10182000310E876F1ADC3D0E876F17DC890EE96E6B
:1018300075C07DF074C07CF073C07BF072C07AF02C
:10184000020E7E6F84DEDD0EF66E0D0EF76E070E55
:101850007A6FC5DC890EE96E79C07DF078C07CF0C6
:1018600077C07BF076C07AF0020E7E6F70DE6D0E70
:10187000876F2DEC08F0730E876F2DEC08F00A0EC1
:10188000876F2DEC08F0000C016A026A006A036A97
:10189000795102E1785118E0100E7A6FD8907637BE
:1018A0007737003603367951035C02E17851005CEA
:1018B00007E37851005ED8A003067951035ED88013
:1018C000013602367A2FEAD7000C72C06CF073C072
:1018D0006DF0036A72C074F003C075F0196AF2BE4D
:1018E000198EF29EA26B500EA16F03C0A4F072C0BD
:1018F000A3F029EC01F019BEF28E02C075F001C010
:1019000074F002C077F001C076F0796B640E786FE6
:10191000BBDF02C003F00150460F016E000E032230
:1019200001346E6F03346F6F6E376F376E376F37FA
:101930006E376F37F00E6E17036A73C074F003C012
:1019400075F0196AF2BE198EF29EA26B640EA16F39
:1019500003C0A4F073C0A3F029EC01F019BEF28E0D
:1019600002C075F001C074F002C077F001C076F0DB
:10197000796B640E786F88DF02C003F00150640F4A
:10198000016E000E03220134706F0334716F7037E3
:1019900071377037713770377137F00E7017000C70
:1019A000000E6BB1010E725D0AE06B9172B16B813A
:1019B0006BA103D0F28A9D8002D0F29A9D90000C18
:1019C000036A7251700FE96E0F0E0320EA6EEF5238
:1019D00019E0196AF2BE198EF29EA26B72C0A1F0D4
:1019E000A46B080EA36F29EC01F019BEF28E02C0A1
:1019F00074F001C0E9FF040E0224EA6EEFCF73F029
:101A000073AF02D0000E01D0010E016EEFEF0DF0AA
:101A1000196AF2BE198EF29EA26B77C0A1F0A46B78
:101A2000080EA36F29EC01F019BEF28E01C081F0FF
:101A3000020E0124016E000E0220036E01C0E9FFB8
:101A4000040E0324EA6EECCF03F0ED52EFCF7CF0EE
:101A500003C07DF0196AF2BE198EF29EA26B77C0A8
:101A6000A1F0A46B080EA36F29EC01F019BEF28E51
:101A700001C081F0010E0124016E000E0220036EF0
:101A800001C0E9FF040E0324EA6EEF50036A7F6F82
:101A900003C080F0196AF2BE198EF29EA26B77C065
:101AA000A1F0A46B080EA36F29EC01F019BEF28E11
:101AB00001C0E9FF040E0224EA6EEFCF7EF07EB192
:101AC00080817EB3808380517B5D08E303E17A519E
:101AD0007F5D04E280C07BF07FC07AF079C0EAFFCE
:101AE00078C0E9FF7DC0E2FF7CC0E1FF7BC002F06F
:101AF0007AC001F0015202E0022A02D0025206E04E
:101B0000E6CFEEFF012EFCD7022EFAD77AC001F005
:101B10007BC002F097EF0DF072C077F074C079F0DF
:101B200073C078F076C07BF075C07AF071D702C0D0
:101B300076F001C075F0196AF2BE198EF29E72C07D
:101B400097F0020E986F50EC04F019BEF28E75C03B
:101B500001F076C002F0FAEF0DF02AC072F020DF3B
:101B60002BC072F02CC073F0B0DEADDDFDEF0DF0D8
:101B7000F86AD09E078EEA6AE96A246A286AC15028
:101B8000C00B0F09C16E070EB46E206A040E216EE1
:101B90000C0E226E2DEF07F0DDEF07F00C0E876FB5
:101BA0002DEC08F0010E886F34EC07F08CDD000E90
:101BB000936E946E726B320E736F87DE820ED56EEB
:101BC000B50ECD6EC00EF212726BEADE1CEC07F0A1
:101BD00074EC08F0015211E0010E726FF1D601525F
:101BE0000CE0010E726F746B2A0E736F766B400EF1
:101BF000756F92D701C06AF0B0D7010E886F34ECD0
:061C000007F0E4D7030029
:020000040030CA
:0E00000022CE390E000381000FC00FE00F402A
:00000001FF
;PIC18F2550
;CRC=C69A  CREATED="05-апр-11 19:57"
